:060000000A128A11C62F4E
:10000C0083120313A101F31F0C280D281A28F009E1
:10001C00F109F209F309F00A0319F10A0319F20ABA
:10002C000319F30AA101A10AF71F1D281E282D2868
:10003C00F409F509F609F709F40A0319F50A031985
:10004C00F60A0319F70A0130F8007808A106003007
:10005C00A5000030A4000030A3000030A2007308FB
:10006C0072047104700403193C283D288A28A001ED
:10007C00A00A4D280130F8000310F00DF10DF20D1F
:10008C00F30DF80B42280130F8007808A007F31F95
:10009C005028512840280130F8000310A20DA30D60
:1000AC00A40DA50DF80B532873087702031D6828BF
:1000BC0072087602031D682871087502031D6828F2
:1000CC0070087402031C6B286C287B287008F402DF
:1000DC007108031C710FF5027208031C720FF602F3
:1000EC007308031C730FF702221401300310F30C76
:1000FC00F20CF10CF00CFF3E031D7C280130A00229
:10010C00031D89288A285128210803198E288F2835
:10011C009A28A209A309A409A509A20A0319A30AEA
:10012C000319A40A0319A50A2508F3002408F200F0
:10013C002308F1002208F0000800831203133F0883
:10014C008039C4004408C9003F08C4004407C500F6
:10015C004508CF00BE1FB328B428B5284F144F084C
:10016C000319B928BA28C9284F0A031DBE28BF286D
:10017C00C7280030BF000030BE000030BD0000308A
:10018C00BC00BE17D1280030BF000030BE000030CC
:10019C00BD000030BC0043088039C4004408C906C7
:1001AC004308C4004407C5004508CE00C21FDF2821
:1001BC00E028E1284E144E080319E528E628F52816
:1001CC004E0A031DEA28EB28F3280030C300003048
:1001DC00C2000030C1000030C000C217FD28003042
:1001EC00C3000030C2000030C1000030C0004E0817
:1001FC0003190129022907294F08031D062907297C
:10020C0010290030BF000030BE000030BD000030AF
:10021C00BC00032C3C08C4004408F00042080A1639
:10022C008A115C220A128A11710883120313D500F9
:10023C007008D4005408C400C501C601C7014708A2
:10024C00CD004608CC004508CB004408CA00550830
:10025C00C400C501C601C7014708D3004608D20037
:10026C004508D1004408D0003D08C4004408F00003
:10027C0041080A168A115C220A128A11710883122B
:10028C000313D5007008D4005408C400C501C6017E
:10029C00C7014408CA07450803110318013E031996
:1002AC005829CB07460803110318013E03195F298F
:1002BC00CC07470803110318013E03196629CD0723
:1002CC005508C400C501C601C7014408D00745083C
:1002DC0003110318013E03197429D10746080311B1
:1002EC000318013E03197B29D20747080311031891
:1002FC00013E03198229D3073E08C4004408F000CC
:10030C0040080A168A115C220A128A11710883129B
:10031C000313D5007008D4005408C400C501C601ED
:10032C00C7014408CA07450803110318013E031905
:10033C00A029CB07460803110318013E0319A7296E
:10034C00CC07470803110318013E0319AE29CD074A
:10035C005508C400C501C601C7014408D0074508AB
:10036C0003110318013E0319BC29D10746080311D8
:10037C000318013E0319C329D207470803110318B8
:10038C00013E0319CA29D3070830C4000310CA0D53
:10039C00CB0DCC0DCD0DC40BCC293D08C4004408AD
:1003AC00F00040080A168A115C220A128A117108A0
:1003BC0083120313D5007008D4005408C4005508E8
:1003CC00C500C601C7014408CA0745080311031834
:1003DC00013E0319F229CB07460803110318013E0D
:1003EC000319F929CC07470803110318013E031917
:1003FC00002ACD073C08C4004408F00041080A1646
:10040C008A115C220A128A11710883120313D50017
:10041C007008D4005408C4005508C500C601C701B3
:10042C004408CA07450803110318013E03191F2A83
:10043C00CB07460803110318013E0319262ACC07E3
:10044C00470803110318013E03192D2ACD07083064
:10045C00C4000310CA0DCB0DCC0DCD0DC40B2F2A2F
:10046C003C08C4004408F00040080A168A115C22BB
:10047C000A128A11710883120313D5007008D40074
:10048C005408C4005508C500C601C7014408CA0772
:10049C00450803110318013E0319552ACB074608DA
:1004AC0003110318013E03195C2ACC0747080311FA
:1004BC000318013E0319632ACD073D08C400440804
:1004CC00F00042080A168A115C220A128A1171087D
:1004DC0083120313D5007008D4005408C4005508C7
:1004EC00C500C601C7014408D0074508031103180D
:1004FC00013E0319822AD107460803110318013E55
:10050C000319892AD207470803110318013E03195E
:10051C00902AD3073E08C4004408F00041080A168C
:10052C008A115C220A128A11710883120313D500F6
:10053C007008D4005408C4005508C500C601C70192
:10054C004408D007450803110318013E0319AF2ACC
:10055C00D107460803110318013E0319B62AD20726
:10056C00470803110318013E0319BD2AD3073E089F
:10057C00C4004408F00042080A168A115C220A12D0
:10058C008A11710883120313D5007008D400540823
:10059C00C4005508C500C601C70108300310C40DBE
:1005AC00C50DC60DC70DFF3E031DD42A4408D00748
:1005BC00450803110318013E0319E52AD107460823
:1005CC0003110318013E0319EC2AD2074708031143
:1005DC000318013E0319F32AD3074A08C4004B0839
:1005EC00C5004C08C6004D08C70018300310C70CD6
:1005FC00C60CC50CC40CFF3E031DFC2A4408D007D6
:10060C00450803110318013E03190D2BD1074608A9
:10061C0003110318013E0319142BD20747080311C9
:10062C000318013E03191B2BD3070830C400031019
:10063C00CA0DCB0DCC0DCD0DC40B1D2B4F084E0789
:10064C00C400C501C50D4408823ED40045080318FA
:10065C00013EFF3ED5004F2B0130C4000310D00DDE
:10066C00D10DD20DD30DC40B342BCD1F3E2B3F2BF4
:10067C00402B50140130C4000310CA0DCB0DCC0D0F
:10068C00CD0DC40B422BFF30D4070318D50AFF3015
:10069C00D507D21F522B532B322BCE01CD1F572BEC
:1006AC00582B742BFF304A05C400FF304B05C50096
:1006BC00FF304C05C6007F304D05C7004708460487
:1006CC004504440403196B2B6C2B6F2BCE01CE0A03
:1006DC00742B501C722B732B742B6C2B4E08031920
:1006EC00782B792BAA2B0130D0070030031801305E
:1006FC00D107003003180130D20700300318013045
:10070C00D307531C8A2B8B2BAA2B5008C4005108DF
:10071C00C5005208C6005308C7000130C800470D79
:10072C00C70CC60CC50CC40CC80B952B4708D300C2
:10073C004608D2004508D1004408D0000130D40747
:10074C000318D50A0030D5075508803AFF008030D1
:10075C007F02031DB32BFF305402031CB62BB72BA7
:10076C00C22B7F3083120313D3008030D2000030B1
:10077C00D1000030D000F72B831203135508803AB8
:10078C00FF0080307F02031DCD2B01305402031873
:10079C00D02BD12BDD2B003083120313D300003070
:1007AC00D2000030D1000030D000C901F72B8312E9
:1007BC0003135408C4004408CF00FF30D005FF30A9
:1007CC00D1057F30D2050030D3054F1CEE2BEF2B1B
:1007DC00F02BD2174F08C4000310440CC500450879
:1007EC00D3004908C4004408D3045308BF0052087E
:1007FC00BE005108BD005008BC0008000A30F700CC
:10080C000030F80000300A168A11DE220A128A1112
:10081C007108F6007008F5000A168A1137220A12C0
:10082C008A11750883160313C3007608C4000310DD
:10083C00C40CC30C0310C40CC30C0310C40CC30CA9
:10084C0043086A3EC50044080318013EFF3EC6003B
:10085C004508C7004608C800C901CA014A088312E6
:10086C000313B10083160313490883120313B0005A
:10087C0083160313480883120313AF008316031364
:10088C00470883120313AE0000300A168A11A525FF
:10089C000A128A1183120313310883160313DC0026
:1008AC0083120313300883160313DB008312031324
:1008BC002F0883160313DA00831203132E088316F2
:1008CC000313D9005C08A3005B08A2005A08A1001E
:1008DC005908A0006C08F3006B08F2000A30F00015
:1008EC000030F1000A168A11C2240A128A1170080B
:1008FC0083120313AE007108AF000030AF1BFF3042
:10090C00B000B10001300A168A11A5250A128A110D
:10091C0083120313310883160313A70083120313E6
:10092C00300883160313A600831203132F088316B3
:10093C000313A500831203132E0883160313A400BC
:10094C000A128A1515200A128A118316031323081A
:10095C0083160317A30083160313220883160317A9
:10096C00A20083160313210883160317A100831614
:10097C000313200883160317A00023088312031304
:10098C00BF0083160317220883120313BE008316BD
:10099C000317210883120313BD00831603172008C5
:1009AC0083120313BC00831603136A088312031308
:1009BC00C30083160313690883120313C200831642
:1009CC000313680883120313C1008316031367080B
:1009DC0083120313C0000A128A11A3200A128A116F
:1009EC00831203133F08831603179F00831203130C
:1009FC003E08831603179E00831203133D088316CB
:100A0C0003179D00831203133C08831603179C00E5
:100A1C00230883120313C3008316031722088312BF
:100A2C000313C20083160317210883120313C1009A
:100A3C0083160317200883120313C0003F30BF0036
:100A4C008030BE000030BD000030BC000A128A119C
:100A5C00A3200A128A11831203133F08831603136F
:100A6C00CE00831203133E0883160313CD008312AA
:100A7C0003133D0883160313CC00831203133C08A5
:100A8C0083160313CB004E0883120313C300831683
:100A9C0003134D0883120313C200831603134C086F
:100AAC0083120313C100831603134B088312031321
:100ABC00C0003D30BF00CC30BE00CC30BD00CD30CE
:100ACC00BC000A128A11A3200A128A118312031382
:100ADC003F08D9003E08D8003D08D7003C08D60096
:100AEC00831603171B0883120313DD0083160317E9
:100AFC001A0883120313DC008316031719088312D8
:100B0C000313DB0083160317180883120313DA0090
:100B1C000A128A1578250A128A11831203135908AE
:100B2C00831603179B0083120313580883160317AD
:100B3C009A00831203135708831603179900831224
:100B4C0003135608831603179800270883160313FC
:100B5C00A70083160317260883160313A600831613
:100B6C000317250883160313A500831603172408FF
:100B7C0083160313A4005C08A3005B08A2005A08A8
:100B8C00A1005908A0000A128A1515200A128A1110
:100B9C0083160313230883120313C3008316031352
:100BAC00220883120313C200831603132108831235
:100BBC000313C10083160313200883120313C00010
:100BCC003B30BF000330BE001230BD006F30BC00A4
:100BDC000A128A11A3200A128A11831203133F08E6
:100BEC0083160313AF00831203133E0883160313FB
:100BFC00AE00831203133D0883160313AD0083125A
:100C0C0003133C0883160313AC003D30AB00CC300F
:100C1C00AA00CC30A900CD30A8000A128A151523E1
:100C2C000A128A11831603132B08D2002A08D1004A
:100C3C002908D0002808CF00520883120313D900CA
:100C4C0083160313510883120313D800831603135E
:100C5C00500883120313D700831603134F08831213
:100C6C000313D60083160317170883120313DD0032
:100C7C0083160317160883120313DC00831603175D
:100C8C00150883120313DB00831603171408831251
:100C9C000313DA000A128A1578250A128A118312B4
:100CAC00031359088316031797008312031358086C
:100CBC008316031796008312031357088316031722
:100CCC00950083120313560883160317940083169A
:100CDC0003135C0883160317A700831603135B0822
:100CEC0083160317A600831603135A0883160317DB
:100CFC00A50083160313590883160317A4001B08B9
:100D0C0083120313D900831603171A0883120313D3
:100D1C00D80083160317190883120313D700831600
:100D2C000317180883120313D600831603171F0822
:100D3C0083120313DD00831603171E08831203139B
:100D4C00DC00831603171D0883120313DB008316C4
:100D5C0003171C0883120313DA000A128A1578256C
:100D6C000A128A1183120313590883160313D6002F
:100D7C0083120313580883160313D500831203132D
:100D8C00570883160313D4008312031356088316D3
:100D9C000313D3004030AB008030AA000030A90010
:100DAC000030A80083160317170883120313D90009
:100DBC0083160317160883120313D8008316031720
:100DCC00150883120313D700831603171408831214
:100DDC000313D60083160313560883120313DD0086
:100DEC0083160313550883120313DC0083160313B5
:100DFC00540883120313DB00831603135308831266
:100E0C000313DA000A128A1578250A128A11831242
:100E1C000313590883160313AF00831203135808E6
:100E2C0083160313AE0083120313570883160313A0
:100E3C00AD0083120313560883160313AC000A1279
:100E4C008A1515230A128A11831603132B0883168D
:100E5C0003179300831603132A08831603179200B3
:100E6C0083160313290883160317910083160313A3
:100E7C002808831603179000130883120313A90084
:100E8C0083160317120883120313A8008316031783
:100E9C00110883120313A70083160317100883127B
:100EAC000313A6000A168A1129250A128A11831225
:100EBC0003132708AD002608AC000A168A111B2262
:100ECC000A128A11831203132C08AE002D08AF00EE
:100EDC000030AF1BFF30B000B10001300A168A1190
:100EEC00A5250A128A1183120313310883160317DE
:100EFC009300831203133008831603179200831296
:100F0C0003132F08831603179100831203132E0863
:100F1C00831603179000130883120313A90083167A
:100F2C000317120883120313A80083160317110862
:100F3C0083120313A70083160317100883120313DD
:100F4C00A6000A168A1129250A128A118312031384
:100F5C00270883160313D80083120313260883165D
:100F6C000313D7005808BE005708BD00A030BF00BF
:100F7C000F30C0000A128A1549210A128A11080082
:100F8C008317D230FD001130FE00CE30FF00CA3086
:100F9C0084000A128A1506200A128A118313EF3074
:100FAC00FD001130FE00D630FF00E73084000A123D
:100FBC008A1506200A128A11831790308400CA30D1
:100FCC000A168A11C6210A128A1110308400303098
:100FDC000A168A11C6210A128A118313D930840089
:100FEC00E7300A168A11C6210A128A1183010A16E1
:040FFC008A11AE2A7E
:101004007E088A007F0882000A128A1502200A12CA
:101014008A158000840A04087D0603190034FF0A37
:101024000319FE0A0628803083160313A306270833
:1010340083120313D90083160313260883120313A0
:10104400D80083160313250883120313D7008316CD
:101054000313240883120313D600831603132308EF
:1010640083120313DD008316031322088312031370
:10107400DC0083160313210883120313DB00831699
:101084000313200883120313DA000A128A15782541
:101094000A128A1583120313590883160313A30033
:1010A40083120313580883160313A2008312031335
:1010B400570883160313A1008312031356088316DB
:1010C4000313A0000800831603133F0883120313BD
:1010D400A60083160313400883120313A700A80174
:1010E400A9010A168A117D230A128A15043083166F
:1010F40003133E02003003193D020318822883289B
:1011040048293D0883120313AE00831603133E08D7
:1011140083120313AF00B001B10100300A168A1123
:10112400A5250A128A1583120313310883160313A3
:10113400AF0083120313300883160313AE00831227
:1011440003132F0883160313AD00831203132E0811
:1011540083160313AC004430AB007F30AA00C030C8
:10116400A9000030A8000A128A1515230A128A154C
:10117400831603132B0883120313C300831603136C
:101184002A0883120313C200831603132908831247
:101194000313C10083160313280883120313C0002A
:1011A4000030F7003D30F6000930F5000030F4005F
:1011B400831603134008C2003F08C1000310C10D89
:1011C400C20D0310C10DC20D4108F0004208F10028
:1011D400F201F3010A128A1106200A128A15730811
:1011E40083120313B1007208B0007108AF007008D5
:1011F400AE0001300A168A11A5250A128A15831237
:1012040003133108BF003008BE002F08BD002E08AC
:10121400BC000A128A11A3200A128A15831203132E
:101224003F08A9003E08A8003D08A7003C08A60006
:101234000A168A1129250A128A158312031327080C
:1012440083160313BE0083120313260883160313A5
:10125400BD00831203139D12831603133D18332913
:101264003729831203131D163A29831203131D12FF
:10127400831603133D08C10002300310C10CFF3E66
:10128400031D3F294108831203139B0008008316A2
:1012940003133F0883120313A600831603134008A5
:1012A40083120313A700A801A9010A168A117D233A
:1012B4000A128A150430831603133E020030031900
:1012C4003D020318662967292C2A3D08831203135B
:1012D400AE00831603133E0883120313AF00B0015C
:1012E400B10100300A168A11A5250A128A15831243
:1012F4000313310883160313AF008312031330085A
:1013040083160313AE00831203132F0883160313EB
:10131400AD00831203132E0883160313AC0044306C
:10132400AB007F30AA00C030A9000030A8000A1228
:101334008A1515230A128A15831603132B088312A0
:101344000313C300831603132A0883120313C20072
:1013540083160313290883120313C100831603138E
:10136400280883120313C0000030F7003D30F60054
:101374000930F5000030F400831603134008C2005E
:101384003F08C1000310C10DC20D0310C10DC20DF1
:101394004108F0004208F100F201F3010A128A1137
:1013A40006200A128A15730883120313B100720807
:1013B400B0007108AF007008AE0001300A168A113F
:1013C400A5250A128A15831203133108BF003008B9
:1013D400BE002F08BD002E08BC000A128A11A320EB
:1013E4000A128A15831203133F08A9003E08A800B5
:1013F4003D08A7003C08A6000A168A1129250A12EE
:101404008A1583120313270883160313BE0083125D
:101414000313260883160313BD00831203139712C4
:10142400831603133D18172A1B2A83120313171656
:101434001E2A831203131712831603133D08C100D7
:1014440002300310C10CFF3E031D232A41088312FE
:1014540003139500080083120313AD002130A50087
:101464002508A800FE2A25302E0603193A2A3B2A0D
:10147400472A2E08A5002D0884002508831780001C
:101484000130A5002508AD07FE2AA9010130A007F7
:10149400FF30200784000A168A110A200A128A15CE
:1014A400AE00A500A6012608003A03195A2AFE2A0E
:1014B4002508003A0319102B643A0319652A0D3ADA
:1014C4000319652AFE2A2808840083130008AB0048
:1014D400840A0008AC000230A5002508A807AC1F48
:1014E400742A752A7E2A0330A5002508A904AB09AD
:1014F400AC09AB0A0319AC0AAE01AE0A2E08A5006A
:101504002507013E84000A168A110A200A128A1548
:10151400A6000A168A110A200A128A15A7002708AB
:101524002C02031D972A26082B0203189A2A9B2AA9
:101534009C2AA62A0130A5002508AE0705302E06F0
:10154400031DA52AA62A802A290803390319AB2AD0
:10155400AC2AB72A2D30A5002D088400250883174E
:1015640080000130A5002508AD072E08A500250838
:10157400AA00F52A0A30F0000030F1002A08A5007C
:101584002507013E84000A168A110A200A128A15C8
:10159400F6000A168A110A200A128A15F7002C0886
:1015A400F9002B08F8000A168A112E240A128A154B
:1015B4007708F3007608F2000A168A11B4230A1297
:1015C4008A157008303E83120313A6002608AE0065
:1015D4002E08A5002D0884002508831780000130FB
:1015E400A5002508AD07FF30A5002508AA072A0A8B
:1015F400031DFD2AFE2ABC2A0130A007FF30200764
:1016040084000A168A110A200A128A15A5002508E0
:10161400AE002E08031D0F2B102B352A2D08840035
:10162400831780010800831603132F08803983125F
:101634000313EA006A0883160313B4002F08831205
:101644000313EA006A07EB006B0883160313BB005D
:10165400AE1F2D2B2E2B2F2B3B143B080319332BA2
:10166400342B442B3B0A031D382B392B412B0030E0
:10167400AF000030AE000030AD000030AC00AE175B
:10168400AF014C2B0030AF000030AE000030AD0095
:101694000030AC002B08803983120313EA006A0877
:1016A40083160313B4062B0883120313EA006A0794
:1016B400EB006B0883160313BC00AA1F622B632B79
:1016C400642B3C143C080319682B692B792B3C0AC6
:1016D400031D6D2B6E2B762B0030AB000030AA005F
:1016E4000030A9000030A800AA17AB01812B0030FC
:1016F400AB000030AA000030A9000030A8002B087D
:101704002A0429042804031D882B892BA62B0030C6
:10171400AF000030AE000030AD000030AC008030CF
:10172400AE047F30AF04340883120313EA006A085E
:1017340083160313AF042F08AB002E08AA002D084C
:10174400A9002C08A800772D3B08031DAA2BAB2B5E
:10175400B42B0030AB000030AA000030A9000030E8
:10176400A800772D3B0883120313EA00EB016B08F2
:10177400ED00831603133C08831203136A02EC0082
:10178400031CED036C087F3E83160313B50083121C
:1017940003136D080318013E003E83160313B600BD
:1017A4002F08B3002E08B2002D08B1002C08B00099
:1017B4000030AF000030AE000030AD000030AC00AF
:1017C4000030BA000030B9000030B8000030B70073
:1017D400BC014E2C3C080319F02BF12B232C0130B7
:1017E40083120313EA00031083160313B00DB10D23
:1017F400B20DB30D83120313EA0BF52B0130EA008B
:10180400031083160313AC0DAD0DAE0DAF0D831293
:101814000313EA0B022C83160313BA1F122C132C86
:10182400142C2C14013083120313EA0003108316C2
:101834000313B70DB80DB90DBA0D83120313EA0BD8
:10184400182C831603132B083302031D332C2A0888
:101854003202031D332C29083102031D332C2808BE
:101864003002031C362C372C462C3A172808B002B9
:101874002908031C290FB1022A08031C2A0FB202EB
:101884002B08031C2B0FB302013083120313EA004D
:101894006A0883160313BC071A303C02031C532C3A
:1018A400542CEC2B330832043104300403195B2C20
:1018B4005C2C8B2C37148B2C013083120313EA001D
:1018C400031083160313AC0DAD0DAE0DAF0D8312D3
:1018D4000313EA0B622C83160313BA1F722C732CA6
:1018E400742C2C14013083120313EA0003108316A2
:1018F4000313B70DB80DB90DBA0D83120313EA0B18
:10190400782CFF3083160313B5070318B60AFF308B
:10191400B607AE1F8E2C8F2C5E2CBC01BA1F932CE5
:10192400942CC22CFF30370583120313EA00FF30D6
:1019340083160313380583120313EB00FF30831659
:101944000313390583120313EC007F30831603134A
:101954003A0583120313ED006D086C046B046A04EA
:101964000319B52CB62CBB2C83160313BC01BC0A7B
:10197400C22C831603132C1CC02CC12CC22CB62CD5
:101984003C080319C62CC72C142D0130AC070030B9
:1019940003180130AD07003003180130AE070030E2
:1019A40003180130AF072F1CD82CD92C142D2C0868
:1019B40083120313EA00831603132D0883120313FF
:1019C400EB00831603132E0883120313EC00831613
:1019D40003132F0883120313ED000130EE006D0D85
:1019E400ED0CEC0CEB0CEA0CEE0BF12C6D088316F1
:1019F4000313AF00831203136C0883160313AE00A2
:101A0400831203136B0883160313AD0083120313AD
:101A14006A0883160313AC000130B5070318B60A2D
:101A24000030B6073608803AFF0080307F02031D7D
:101A34001D2DFF303502031C202D212D2F2DFF30AD
:101A440083160313B5000030B6000030AF00003039
:101A5400AE000030AD000030AC008316031336082E
:101A6400803AFF0080307F02031D3A2D0130350299
:101A740003183D2D3E2D4B2D83160313B501B601DE
:101A84000030AF000030AE000030AD000030AC00DC
:101A9400B40183160313350883120313EA006A089A
:101AA40083160313BB003B1C582D592D5B2DAE1719
:101AB400632D7F3083120313EA006A08831603132D
:101AC400AE053B0883120313EA0003106A0CEB0013
:101AD4006B0883160313AF00340883120313EA0060
:101AE4006A0883160313AF049D2B080083120313A3
:101AF40059088039DE005E08E6005908DE005E07FA
:101B0400DF005F08E800D81F882D892D8A2D68140E
:101B1400680803198E2D8F2D9F2D680A031D932DA0
:101B2400942D9C2D0030D9000030D8000030D7000F
:101B34000030D600D817D901A72D0030D9000030C5
:101B4400D8000030D7000030D6005D088039DE00B0
:101B54005E08E700670866060319B12DB22DB32DA0
:101B640066175D08DE005E07DF005F08E700DC1F24
:101B7400BC2DBD2DBE2D671467080319C22DC32DBE
:101B8400D32D670A031DC72DC82DD02D0030DD00CD
:101B94000030DC000030DB000030DA00DC17DD014F
:101BA400DB2D0030DD000030DC000030DB000030D5
:101BB400DA00680867020318E02DE12D252E661F60
:101BC400E42DE52DE92D8030DE005E08E606680888
:101BD400DE005E08E9006708DE005E08E8006908C8
:101BE400DE005E08E7005608DE005E08E9005A08D9
:101BF400DE005E08D6006908DE005E08DA005708D9
:101C0400DE005E08E9005B08DE005E08D7006908B4
:101C1400DE005E08DB005808DE005E08E9005C08B0
:101C2400DE005E08D8006908DE005E08DC005908A2
:101C3400DE005E08E9005D08DE005E08D900690880
:101C4400DE005E08DD00E9016708DE00DF015F08F1
:101C5400E10068085E02E000031CE1036108803AC9
:101C6400FF0080307F02031D392E1A306002031CEE
:101C74003C2E3D2E7A2E8312031359085804570420
:101C84005604031D462E482E0130492E0030DE0036
:101C94005E08E9000030D9000030D8000030D700D9
:101CA4000030D6006708DE005E08E800822E691C5A
:101CB4005C2E5D2E662E6908DE0003105E0C013872
:101CC400DF005F08E900682E0310E90C561C6B2E38
:101CD4006C2E6D2EE9170130DE00590DD90CD80C8D
:101CE400D70CD60CDE0B6F2E0130DE005E08E80741
:101CF4008312031367086802031C812E822E592E57
:101D0400661B852E862ED12E6808031D8A2E8B2EE7
:101D1400942E0030D9000030D8000030D7000030B5
:101D2400D600FF2F5A08D6075B0803110318013E9B
:101D340003199D2ED7075C0803110318013E0319EC
:101D4400A42ED8075D0803110318013E0319AB2E16
:101D5400D907591CAE2EAF2E852F691CB22EB32E77
:101D6400BC2E6908DE0003105E0C0138DF005F083A
:101D7400E900BE2E0310E90C561CC12EC22EC32E40
:101D8400E9170130DE00590DD90CD80CD70CD60C4C
:101D9400DE0BC52E0130DE005E08E807852F5908EA
:101DA400803AFF005D08803A7F02031DE32E5C0841
:101DB4005802031DE32E5B085702031DE32E5A0845
:101DC40056020318E62EE72E3F2FFF30DE00FF30C9
:101DD400DF00FF30E000FF30E1005A08E2005B085A
:101DE400E3005C08E4005D08E5005608E2025708D9
:101DF400031C570FFE2EFF2EE3025808031C580F36
:101E0400042F052FE4025908031C590F0A2F0B2F26
:101E1400E5026208DE0763080318630F122F132F0D
:101E2400DF0764080318640F182F192FE0076508EB
:101E34000318650AE1076108D9006008D8005F0843
:101E4400D7005E08D6008030DE005E08E606E909A9
:101E5400E90A6908031D2F2F302F4D2F0130D607B3
:101E6400003003180130D707003003180130D807B9
:101E7400003003180130D9074D2F5A08D6025B08E9
:101E8400031C5B0FD7025C08031C5C0FD8025D08BF
:101E9400031C5D0FD9025908580457045604031D46
:101EA400542F552F812F6908031D592F5A2F812F25
:101EB4000030D9000030D8000030D7000030D60000
:101EC400FF2F0130DE000310D60DD70DD80DD90D2C
:101ED400DE0B652FE91F6F2F702F712F5614691CAD
:101EE400742F752F782F0314E90D7A2F0310E90D41
:101EF400680803197E2F7F2F812F0130E802D81F35
:101F0400842F852F632FE701E91F892F8A2F982FAC
:101F140069087F3903198F2F902F932FE701E70A60
:101F2400982F561C962F972F982F902F67080319D8
:101F34009C2F9D2FD12F0130D6070030031801307C
:101F4400D707003003180130D807003003180130D8
:101F5400D907591CAE2FAF2FD12F5608DE005708D2
:101F6400DF005808E0005908E1000130E200610D8B
:101F7400E10CE00CDF0CDE0CE20BB92F6108D90098
:101F84006008D8005F08D7005E08D600680A031905
:101F9400CC2FCD2FD12F0130DE005E08E807680A70
:101FA4000319D52FD62FDB2F6808031DDA2FDB2F5B
:101FB400E92F0030D9000030D8000030D7000030BD
:101FC400D6006808031DE72FE82FE92FE601681CF7
:101FD400EC2FED2FEF2FD817F32F7F30DE005E08A4
:101FE400D8056808DE0003105E0CDF005F08D90026
:101FF400E61FFD2FFE2FFF2FD9170800FF1B0A280D
:1020040083137F1883170008840A0319FF0A080042
:1020140010308A000408840A820700340134003432
:102024000A34003464340034E8340334103427347C
:10203400203420344B3450343A340034543445344E
:102044004D3450343A34003420344334003425348D
:08205400643400342E34003422
:10238000F0007008831203138800080064008001C5
:10239000840A0406031900340406C7296F34123472
:1023A00003343B340034003480343F340034003490
:1023B000203441348834133401340034803083169F
:1023C00003139F00C130831203139F000800831280
:1023D0000313971517151215831603130711080019
:1023E000831203139D151D151214921012158316D6
:1023F000031387100800F100831203138914710876
:102400000A168A11C0210A168A11831203130910B1
:10241000891089140800F1008312031389147108CC
:102420000A168A11C0210A168A118312031309148D
:1024300089108914080083120313AD1F202A212A52
:10244000232AAC01AD012D08803AFF0084307F02C1
:10245000031D2C2A00302C02031C2F2A302A362A76
:10246000FF3083120313AC000330AD000800F90104
:10247000FA01751C3C2A3D2A432A7708F9070318FC
:10248000FA0A7808FA0701300310F70DF80DFF3E3D
:10249000031D442A01300310F60CF50CFF3E031D0A
:1024A0004B2A75087604031D562A572A392A7A08BA
:1024B000F6007908F5000800F800F401F50170084D
:1024C000F200F3017208F6007308F700781C692A1D
:1024D0006A2A702A7608F4070318F50A7708F507C0
:1024E00001300310F60DF70DFF3E031D712A031096
:1024F000F80C7808031D7D2A7E2A662A7508F100EB
:102500007408F0000800F5019A2A75087207840023
:1025100073080318730AFF000A168A1100200A16AE
:102520008A110A168A110B220A168A110130F40048
:102530007408F50775087207840073080318730A96
:1025400083120313FF000A168A1100200A168A114B
:10255000003A031DAC2AAD2A852A0800FF308316F5
:10256000031385000F3086008701880189010A1650
:102570008A11DE210A168A110A168A11E7210A1623
:102580008A110A168A11F0210A168A110A168A116E
:10259000EE230A168A110A128A1104240A168A11D5
:1025A0000A168A1112230A168A110A168A112D2771
:1025B0000A168A11CB2A0A128A110028F400083060
:1025C0007402031CE42AE52AE82AF001F101112B28
:1025D000C530F2007208831203139F057408F200DD
:1025E00002300310F20DFF3E031DF12A0310720D9D
:1025F000F30073089F040330F3009730F200F20BEE
:10260000FF2AF30BFF2A042B831203131F151F1934
:102610000A2B0B2B072B1E08F100831603131E0831
:10262000F000080001300A168A11DE220A168A110B
:10263000710883160313C4007008C3004408831292
:102640000313AD0083160313430883120313AC0076
:102650000A168A111B220A168A11831203132D08E7
:1026600083160313C400831203132C088316031369
:10267000C3004408BE004308BD00A030BF000F30B7
:10268000C0000A128A1565200A168A1108008312F2
:10269000031389100910891438300A168A11FB2196
:1026A0000A168A1138300A168A11FB210A168A1175
:1026B00038300A168A11FB210A168A1108300A16C8
:1026C0008A11FB210A168A110F300A168A11FB2182
:1026D0000A168A1101300A168A11FB210A168A117C
:1026E00038300A168A11FB210A168A1180300A1620
:1026F0008A11FB210A168A11080083120313260887
:10270000F9002708FA002808FB002908FC0002301D
:102710000310F90DFA0DFB0DFC0DFF3E031D882B78
:1027200002300310F90DFA0DFB0DFC0DFF3E031DE9
:10273000912B7C08F3007B08F2007A08F1007908FD
:10274000F0000030F7003D30F6000930F5000030B1
:10275000F4000A128A1106200A168A117008FF3E38
:102760008316031392000800700871040319B92B33
:10277000BA2BE92BF501F50AC82B01300310F00D37
:10278000F10DFF3E031DBE2B0130F4007408F50768
:10279000F11FCB2BCC2BBD2B71087302031DD22B49
:1027A00070087202031CD52BD62BDC2B7008F202AA
:1027B0007108031CF303F30201300310F10CF00C59
:1027C000FF3E031DDD2B0130F502031DE82BE92B35
:1027D000CC2B7308F1007208F00008000A168A1169
:1027E00047230A168A1180300A168A11FB210A161D
:1027F0008A111130F2008030F3000A168A11832208
:102800000A168A11C0300A168A11FB210A168A118B
:102810000B30F2008030F3000A168A1183220A1668
:102820008A1185300A168A11FB210A168A110A16A6
:102830008A112D270A168A11023083160313ED0020
:102840000030EE000A168A112D270A168A1101306F
:1028500083160313ED000030EE000800FB01FC01BD
:10286000760877040319352C362C6D2CFD01FD0AF2
:10287000442C01300310F60DF70DFF3E031D3A2CDA
:102880000130FA007A08FD07F71F472C482C392C35
:1028900001300310FB0DFC0DFF3E031D492C770892
:1028A0007902031D552C76087802031C582C592CEC
:1028B000602C7608F8027708031CF903F9027B14F0
:1028C00001300310F70CF60CFF3E031D612C0130A4
:1028D000FD02031D6C2C6D2C482C7C08F7007B0836
:1028E000F60008000030831203133C05C4000030DA
:1028F0003D05C50080303E05C6007F303F05C7005E
:102900004708460445044404031D872C882C902C5A
:102910000030BF000030BE000030BD000030BC0001
:1029200000304005C40000304105C500803042053C
:10293000C6007F304305C7004708460445044404E9
:10294000031DA32CA42CAC2C0030C3000030C2000B
:102950000030C1000030C00043083F06031DBA2C00
:1029600042083E06031DBA2C41083D06031DBA2C41
:1029700040083C060319BD2CBE2CC02C0310C12CF2
:1029800003140800F601F11FC62CC72CCE2CF00949
:10299000F109F00A0319F10AF601F60AF31FD12C26
:1029A000D22CDB2CF209F309F20A0319F30A0130E5
:1029B000F4007408F606F701F801700871040319B1
:1029C000E22CE32C1A2DF501F50AF12C013003104D
:1029D000F00DF10DFF3E031DE72C0130F4007408EB
:1029E000F507F11FF42CF52CE62C01300310F70D40
:1029F000F80DFF3E031DF62C71087302031D022D16
:102A000070087202031C052D062D0D2D7008F202B0
:102A10007108031CF303F302771401300310F10C67
:102A2000F00CFF3E031D0E2D0130F502031D192D84
:102A30001A2DF52C760803191E2D1F2D242DF709AC
:102A4000F809F70A0319F80A7808F1007708F00086
:102A50000800031083120313280D290DF9007908CB
:102A6000AB002B08031D352D362D3F2D0030A9005E
:102A70000030A8000030A7000030A600A42D2608D2
:102A8000F9002708FA002808FB002908FC001F307D
:102A90000310FC0CFB0CFA0CF90CFF3E031D482D37
:102AA0007908FD007D08AA00A817FF30A605FF30B1
:102AB000A705FF30A8050030A9059630AB02AB1F73
:102AC000622D632D7D2D2B08803A973E0318692DCA
:102AD0006A2D6B2D362D01300310A90CA80CA70C04
:102AE000A60CFF3E031D6C2D0130F9007908AB07E1
:102AF000031D7B2D7C2D6B2D942D20302B02031C70
:102B0000822D832D8F2D362D0130F9000310A60D57
:102B1000A70DA80DA90DF90B862D0130AB022B08CE
:102B2000031D932D942D842D2A080319982D992D7A
:102B3000A42DA609A709A809A909A60A0319A70A85
:102B40000319A80A0319A90A080083120313B6007F
:102B500036080319AC2DAD2DC12DB11FB02DB12DEF
:102B6000C12D2E09B8002F09B9003009BA0031096A
:102B7000BB00B80A0319B90A0319BA0A0319BB0A38
:102B8000C92D3108BB003008BA002F08B9002E0843
:102B9000B800310830042F042E04031DD02DD12D90
:102BA000DA2D0030B1000030B0000030AF0000304E
:102BB000AE00602E9630B2003208B700EC2D013026
:102BC000B2003208B70701300310BB0CBA0CB90CC5
:102BD000B80CFF3E031DE42DFE303B05031DF12D17
:102BE000F22DDF2D0E2E0130B2003208B707013072
:102BF000B807003003180130B9070030031801305E
:102C0000BA07003003180130BB0701300310BB0CBA
:102C1000BA0CB90CB80CFF3E031D062EFF303B0565
:102C2000031D132E142EF32D202E0130B702013078
:102C3000B2000310B80DB90DBA0DBB0DB20B192EB1
:102C4000BA1B232E242E2A2E023037020318292ED7
:102C50002A2E152E37182D2E2E2E362EFF30B80583
:102C6000FF30B9057F30BA05FF30BB050310B70C44
:102C70003708B200B301B401B50118300310B20D2A
:102C8000B30DB40DB50DFF3E031D3E2E3208B80442
:102C90003308B9043408BA043508BB0436080319EC
:102CA000522E532E582EB11F562E572E582EBB176C
:102CB0003B08B1003A08B0003908AF003808AE0050
:102CC0000800E830F6000330F700831203133008E1
:102CD000F9002F08F8000A168A112E240A168A1104
:102CE000770883120313B3007608B2006430F6004D
:102CF0000030F7003008F3002F08F200E830F00051
:102D00000330F1000A168A11B4230A168A117108D9
:102D1000F9007008F8000A168A112E240A168A1182
:102D2000770883120313B5007608B4003008F30067
:102D30002F08F200E830F0000330F1000A168A1183
:102D4000B4230A168A11710883120313B90070089C
:102D5000B8000A30F6000030F7003908F3003808F0
:102D6000F2006430F0000030F1000A168A11B4233A
:102D70000A168A117108F9007008F8000A168A11FB
:102D80002E240A168A11770883120313B7007608D7
:102D9000B60085300A168A11FB210A168A111A30EC
:102DA00083120313B1003108A0003308A2003208D7
:102DB000A100AA300A128A152D220A168A11AA30F9
:102DC000F2000130F3000A168A1183220A168A11D2
:102DD0001A3083120313B1003108A0003508A20095
:102DE0003408A100AA300A128A152D220A168A1167
:102DF000AA30F2000130F3000A168A1183220A1663
:102E00008A111D30F2008030F3000A168A118322E5
:102E10000A168A111A3083120313B1003108A00078
:102E20003708A2003608A100AA300A128A152D22FE
:102E30000A168A11AA30F2000130F3000A168A112C
:102E400083220A168A111730F2008030F3000A1626
:102E50008A1183220A168A110800831603136D0350
:102E60006E040319342F352F5B2F5E086C06031D8B
:102E70003B2F5D086B0603193E2F3F2F542F6C0824
:102E800083120313B000831603136B08831203131A
:102E9000AF000A168A1161260A168A1183160313D7
:102EA0006C08DE006B08DD008F300A168A11FB21EA
:102EB0000A168A11FF2F831603172808831203139B
:102EC000AE0083160317290883120313AF000030E6
:102ED000AF1BFF30B000B10001300A168A11A525E2
:102EE0000A168A11831203133108BF003008BE008E
:102EF0002F08BD002E08BC00831603136A08831236
:102F00000313C30083160313690883120313C2005B
:102F100083160313680883120313C1008316031377
:102F2000670883120313C0000A168A1172240A1656
:102F30008A1103189C2F9D2FF92FC5300A168A116C
:102F4000FB210A168A111A3083120313C80048089D
:102F5000A000831603136A0883120313A4008316C8
:102F60000313690883120313A3008316031368086D
:102F700083120313A200831603136708831203133B
:102F8000A10010300A128A152D220A168A1110305B
:102F9000F2000130F3000A168A1183220A168A1100
:102FA000831603136A0883120313A90083160313FD
:102FB000690883120313A800831603136808831299
:102FC0000313A70083160313670883120313A600D5
:102FD0000A168A1129250A168A1183120313270853
:102FE00083160317A90083120313260883160317F9
:102FF000A800CF300A168A11FB210A168A11080090
:02400E003A3F37
:00000001FF
