:060000000A128A11C42F50
:10000C00F10083120313891471080A168A11DD2674
:10001C000A128A1183120313091489108914080017
:10002C000030831203130618013083160313C20029
:10003C0042080319222823285B284308031D27287C
:10004C0028285B2836033704031D2D282E28342836
:10005C006430D1070318D20A0030D20702303606BA
:10006C003704031D3A283B2841280A30CF070318D0
:10007C00D00A0030D007033036063704031D47285A
:10008C0048284E280130CD070318CE0A0030CE0781
:10009C00043036063704031D542855285B280130DC
:1000AC00AE070318AF0A0030AF074208F000700823
:1000BC00C300003083120313861801308316031318
:1000CC00C000400803196B286C28A4284108031DA4
:1000DC0070287128A42836033704031D7628772846
:1000EC007D289C30D1070318D20AFF30D20702308A
:1000FC0036063704031D832884288A28F630CF0758
:10010C000318D00AFF30D007033036063704031D1E
:10011C00902891289728FF30CD070318CE0AFF307E
:10012C00CE07043036063704031D9D289E28A428CC
:10013C00FF30AE070318AF0AFF30AF074008F000DE
:10014C007008C100003083120313061901308316A6
:10015C000313BE003E080319B428B528BE283F0877
:10016C00031DB928BA28BE285208B5005108B4009E
:10017C003E08F0007008BF0000308312031386198C
:10018C00013083160313BC003C080319CE28CF287A
:10019C00E5283D08031DD328D428E5280130B607EF
:1001AC000318B70A0030B707053036063704031DAD
:1001BC00E028E128E5280130B6000030B7003C0803
:1001CC00F0007008BD0008008316031336033704D3
:1001DC00031DF128F228F82887300A128A154620C8
:1001EC000A128A1102308316031336063704031DD4
:1001FC00002901290729C7300A128A1546200A123C
:10020C008A1103308316031336063704031D0F2996
:10021C00102916298F300A128A1546200A128A11C3
:10022C0004308316031336063704031D1E291F29B9
:10023C002529CF300A128A1546200A128A118316F4
:10024C00031333085206031D2D29320851060319D6
:10025C0030293129B329E830F7000330F80052086F
:10026C00FA005108F9000A128A159A210A128A1109
:10027C00780883120313AF007708AE006430F700E0
:10028C000030F800831603135208F3005108F200F3
:10029C00E830F0000330F1000A128A1541210A12ED
:1002AC008A117108FA007008F9000A128A159A214D
:1002BC000A128A11780883120313B1007708B00070
:1002CC0083300A128A1546200A128A112930F2004C
:1002DC008030F3000A168A1172270A128A118330B1
:1002EC000A128A1546200A128A112F308312031320
:1002FC00AD002D08A0002F08A2002E08A100903000
:10030C000A128A15E5250A128A119030F200013082
:10031C00F3000A168A1172270A128A112F308312DF
:10032C000313AD002D08A0003108A2003008A10075
:10033C0090300A128A15E5250A128A119030F200C3
:10034C000130F3000A168A1172270A128A118316D9
:10035C0003135208B3005108B2002D085006031DB8
:10036C00B9292C084F060319BC29BD29F929C3301A
:10037C000A128A1546200A128A112330F2008030A4
:10038C00F3000A168A1172270A128A11C3300A1254
:10039C008A1546200A128A112F3083120313AD00DE
:1003AC002D08A00083160313500883120313A20018
:1003BC00831603134F0883120313A10090300A1203
:1003CC008A15E5250A128A119030F2000130F300EB
:1003DC000A168A1172270A128A11831603135008FF
:1003EC00AD004F08AC002B084E06031DFF292A0850
:1003FC004D060319022A032A3F2A8B300A128A154A
:10040C0046200A128A112330F2008030F3000A16BB
:10041C008A1172270A128A118B300A128A15462009
:10042C000A128A112F3083120313AD002D08A0007D
:10043C00831603134E0883120313A20083160313AF
:10044C004D0883120313A10090300A128A15E5257A
:10045C000A128A119030F2000130F3000A168A1148
:10046C0072270A128A11831603134E08AB004D082B
:10047C00AA0029082F06031D452A28082E06031951
:10048C00482A492A852ACB300A128A1546200A1294
:10049C008A112330F2008030F3000A168A11722779
:1004AC000A128A11CB300A128A1546200A128A11B6
:1004BC002F3083120313AD002D08A00083160313F5
:1004CC002F0883120313A200831603132E08831222
:1004DC000313A10090300A128A15E5250A128A111D
:1004EC009030F2000130F3000A168A1172270A12BA
:1004FC008A11831603132F08A9002E08A8000800E0
:10050C00831203133B088039BC003C08C5003B0830
:10051C00BC003C07BD003D08CC00BA1F962A972AA8
:10052C00982A4C144C0803199C2A9D2AAD2A4C0A73
:10053C00031DA12AA22AAA2A0030BB000030BA004F
:10054C000030B9000030B800BA17BB01B52A003032
:10055C00BB000030BA000030B9000030B8003708DA
:10056C008039BC003C08C5063708BC003C07BD0000
:10057C003D08CD00B61FC32AC42AC52A4D144D0808
:10058C000319C92ACA2ADA2A4D0A031DCE2ACF2AF0
:10059C00D72A0030B7000030B6000030B50000306C
:1005AC00B400B617B701E22A0030B7000030B6002D
:1005BC000030B5000030B40037083604350434047C
:1005CC00031DE92AEA2A032B0030BB000030BA00D5
:1005DC000030B9000030B8008030BA047F30BB0462
:1005EC004508BC003C08BB043B08B7003A08B60001
:1005FC003908B5003808B400622C4C08031D072BD1
:10060C00082B112B0030B7000030B6000030B500BD
:10061C000030B400622C4C08BC00BD013D08BF008A
:10062C004D083C02BE00031CBF033E087F3EC600C3
:10063C003F080318013E003EC7003B08C4003A08BF
:10064C00C3003908C2003808C1000030BB000030BC
:10065C00BA000030B9000030B8000030CB000030D8
:10066C00CA000030C9000030C800CD01872B4D08EE
:10067C000319412B422B622B0130BC000310C10D1E
:10068C00C20DC30DC40DBC0B442B0130BC000310B8
:10069C00B80DB90DBA0DBB0DBC0B4D2BCB1F572B89
:1006AC00582B592B38140130BC000310C80DC90D40
:1006BC00CA0DCB0DBC0B5B2B37084402031D702BF2
:1006CC0036084302031D702B35084202031D702BA4
:1006DC0034084102031C732B742B832B4B173408E7
:1006EC00C1023508031C350FC2023608031C360F35
:1006FC00C3023708031C370FC4020130BC003C088E
:10070C00CD071A304D02031C8C2B8D2B3D2B44082E
:10071C004304420441040319942B952BB42B481425
:10072C00B42B0130BC000310B80DB90DBA0DBB0DC4
:10073C00BC0B992BCB1FA32BA42BA52B381401304E
:10074C00BC000310C80DC90DCA0DCB0DBC0BA72BDB
:10075C00FF30C6070318C70AFF30C707BA1FB72BED
:10076C00B82B972BCD01CB1FBC2BBD2BD92BFF301E
:10077C004805BC00FF304905BD00FF304A05BE00EE
:10078C007F304B05BF003F083E043D043C04031979
:10079C00D02BD12BD42BCD01CD0AD92B381CD72B58
:1007AC00D82BD92BD12B4D080319DD2BDE2B0F2C7D
:1007BC000130B807003003180130B90700300318B6
:1007CC000130BA07003003180130BB073B1CEF2B7C
:1007DC00F02B0F2C3808BC003908BD003A08BE00BD
:1007EC003B08BF000130C0003F0DBF0CBE0CBD0C60
:1007FC00BC0CC00BFA2B3F08BB003E08BA003D08EE
:10080C00B9003C08B8000130C6070318C70A00300D
:10081C00C7074708803AFF0080307F02031D182C61
:10082C00FF304602031C1B2C1C2C2A2CFF3083127D
:10083C000313C6000030C7000030BB000030BA0004
:10084C000030B9000030B800831203134708803A17
:10085C00FF0080307F02031D352C01304602031847
:10086C00382C392C462C83120313C601C7010030D7
:10087C00BB000030BA000030B9000030B800C50130
:10088C00831203134608BC003C08CC004C1C4F2CB4
:10089C00502C522CBA17562C7F30BC003C08BA0591
:1008AC004C08BC0003103C0CBD003D08BB004508C7
:1008BC00BC003C08BB04FA2A08008312031351083D
:1008CC008039D6005608DB005108D6005607D700F1
:1008DC005708E100D01F732C742C752C611461081F
:1008EC000319792C7A2C892C610A031D7E2C7F2C00
:1008FC00872C0030D1000030D0000030CF00003009
:10090C00CE00D017912C0030D1000030D000003038
:10091C00CF000030CE0055088039D6005608DB06D3
:10092C005508D6005607D7005708E000D41F9F2C57
:10093C00A02CA12C601460080319A52CA62CB52C96
:10094C00600A031DAA2CAB2CB32C0030D500003050
:10095C00D4000030D3000030D200D417BD2C0030AE
:10096C00D5000030D4000030D3000030D200600835
:10097C000319C12CC22CC72C6108031DC62CC72C13
:10098C00D02C0030D1000030D0000030CF0000302F
:10099C00CE00C32F4E08D6005608F00054080A1695
:1009AC008A114B270A128A11710883120313E7006C
:1009BC007008E6006608D600D701D801D90159089D
:1009CC00DF005808DE005708DD005608DC00670819
:1009DC00D600D701D801D9015908E5005808E40020
:1009EC005708E3005608E2004F08D6005608F000FE
:1009FC0053080A168A114B270A128A11710883129E
:100A0C000313E7007008E6006608D600D701D8018A
:100A1C00D9015608DC07570803110318013E0319C6
:100A2C00182DDD07580803110318013E03191F2D5B
:100A3C00DE07590803110318013E0319262DDF07A1
:100A4C006708D600D701D801D9015608E207570824
:100A5C0003110318013E0319342DE3075808031141
:100A6C000318013E03193B2DE40759080311031821
:100A7C00013E0319422DE5075008D6005608F00038
:100A8C0052080A168A114B270A128A11710883120E
:100A9C000313E7007008E6006608D600D701D801FA
:100AAC00D9015608DC07570803110318013E031936
:100ABC00602DDD07580803110318013E0319672D3B
:100ACC00DE07590803110318013E03196E2DDF07C9
:100ADC006708D600D701D801D9015608E207570894
:100AEC0003110318013E03197C2DE3075808031169
:100AFC000318013E0319832DE40759080311031849
:100B0C00013E03198A2DE5070830D6000310DC0DD1
:100B1C00DD0DDE0DDF0DD60B8C2D4F08D6005608E3
:100B2C00F00052080A168A114B270A128A11710812
:100B3C0083120313E7007008E6006608D600670806
:100B4C00D700D801D9015608DC0757080311031840
:100B5C00013E0319B22DDD07580803110318013E9D
:100B6C000319B92DDE07590803110318013E0319A7
:100B7C00C02DDF074E08D6005608F00053080A16A1
:100B8C008A114B270A128A11710883120313E7008A
:100B9C007008E6006608D6006708D700D801D901AE
:100BAC005608DC07570803110318013E0319DF2D03
:100BBC00DD07580803110318013E0319E62DDE0763
:100BCC00590803110318013E0319ED2DDF070830F6
:100BDC00D6000310DC0DDD0DDE0DDF0DD60BEF2D79
:100BEC004E08D6005608F00052080A168A114B27F8
:100BFC000A128A11710883120313E7007008E600C9
:100C0C006608D6006708D700D801D9015608DC075A
:100C1C00570803110318013E0319152EDD07580858
:100C2C0003110318013E03191C2EDE07590803118A
:100C3C000318013E0319232EDF074F08D600560870
:100C4C00F00054080A168A114B270A128A117108EF
:100C5C0083120313E7007008E6006608D6006708E5
:100C6C00D700D801D9015608E20757080311031819
:100C7C00013E0319422EE307580803110318013EE5
:100C8C000319492EE407590803110318013E0319EF
:100C9C00502EE5075008D6005608F00053080A16E7
:100CAC008A114B270A128A11710883120313E70069
:100CBC007008E6006608D6006708D700D801D9018D
:100CCC005608E207570803110318013E03196F2E4B
:100CDC00E307580803110318013E0319762EE407A5
:100CEC00590803110318013E03197D2EE50750081E
:100CFC00D6005608F00054080A168A114B270A121F
:100D0C008A11710883120313E7007008E600660865
:100D1C00D6006708D700D801D90108300310D60DCA
:100D2C00D70DD80DD90DFF3E031D942E5608E207A2
:100D3C00570803110318013E0319A52EE3075808A1
:100D4C0003110318013E0319AC2EE40759080311D3
:100D5C000318013E0319B32EE5075C08D6005D08A5
:100D6C00D7005E08D8005F08D90018300310D90CE2
:100D7C00D80CD70CD60CFF3E031DBC2E5608E20730
:100D8C00570803110318013E0319CD2EE307580829
:100D9C0003110318013E0319D42EE407590803115B
:100DAC000318013E0319DB2EE5070830D6000310AB
:100DBC00DC0DDD0DDE0DDF0DD60BDD2E61086007C1
:100DCC00D600D701D70D5608823EE6005708031807
:100DDC00013EFF3EE7000F2F0130D6000310E20D5D
:100DEC00E30DE40DE50DD60BF42EDF1FFE2EFF2ECA
:100DFC00002F62140130D6000310DC0DDD0DDE0D6A
:100E0C00DF0DD60B022FFF30E6070318E70AFF3081
:100E1C00E707E41F122F132FF22EE001DF1F172F0D
:100E2C00182F342FFF305C05D600FF305D05D7003E
:100E3C00FF305E05D8007F305F05D9005908580493
:100E4C005704560403192B2F2C2F2F2FE001E00AE7
:100E5C00342F621C322F332F342F2C2F60080319A0
:100E6C00382F392F6A2F0130E20700300318013078
:100E7C00E307003003180130E40700300318013099
:100E8C00E507651C4A2F4B2F6A2F6208D6006308B2
:100E9C00D7006408D8006508D9000130DA00590D74
:100EAC00D90CD80CD70CD60CDA0B552F5908E500F9
:100EBC005808E4005708E3005608E2000130E60742
:100ECC000318E70A0030E7076708803AFF00803014
:100EDC007F02031D732FFF306602031C762F772FC2
:100EEC00822F7F3083120313E5008030E400003042
:100EFC00E3000030E200B72F831203136708803A37
:100F0C00FF0080307F02031D8D2F01306602031815
:100F1C00902F912F9D2F003083120313E50000308A
:100F2C00E4000030E3000030E200DB01B72F831255
:100F3C0003136608D6005608E100FF30E205FF30C7
:100F4C00E3057F30E4050030E505611CAE2FAF2FC3
:100F5C00B02FE4176108D6000310560CD7005708C1
:100F6C00E5005B08D6005608E5046508D100640866
:100F7C00D0006308CF006208CE000800831603136C
:100F8C000A168A11E3260A128A11CD000A168A1152
:100F9C00E4260A128A11CE000A168A11E5260A12D4
:100FAC008A11CF000A168A11E6260A128A11D0007D
:100FBC000A168A11E7260A128A11D1000A168A111A
:100FCC00E8260A128A11D200831790308400B030C0
:100FDC000A168A11E9260A128A118313A03084009A
:100FEC00C4300A168A11E9260A128A1183010A12E0
:100FFC008A15032AFF1B0A2883137F1883170008FE
:10100C00840A0319FF0A080008308A000408840ABD
:10101C0082070034013400340A3400346434003460
:10102C00E8340334103427344B3450343A342034FD
:10103C0020342034203420344B3444343A340034BB
:10104C00543450343A342034203443342034203453
:10105C004B3449343A340034203420342034203496
:10106C0020340034203420344334203420340034F1
:06107C0025346434003449
:10108C00F10083120313891471080A168A11DD26E4
:10109C000A128A1583120313091089108914080087
:1010AC008312031389100910891438300A128A1517
:1010BC0046200A128A1538300A128A1546200A125E
:1010CC008A1538300A128A1546200A128A150830F9
:1010DC000A128A1546200A128A150F300A128A152E
:1010EC0046200A128A1501300A128A1546200A1265
:1010FC008A1538300A128A1546200A128A15803051
:10110C000A128A1546200A128A1508008312031344
:10111C002608F9002708FA002808FB002908FC001B
:10112C0002300310F90DFA0DFB0DFC0DFF3E031DF3
:10113C00972802300310F90DFA0DFB0DFC0DFF3E44
:10114C00031DA0287C08F3007B08F2007A08F1004C
:10115C007908F0000030F7003D30F6000930F5005A
:10116C000030F4000A128A1520230A128A1570081E
:10117C00FF3E8316031392000800780879040319C4
:10118C00C828C928F828FD01FD0AD728013003100A
:10119C00F80DF90DFF3E031DCD280130FC007C0835
:1011AC00FD07F91FDA28DB28CC2879087B02031D00
:1011BC00E12878087A02031CE428E528EB28780853
:1011CC00FA027908031CFB03FB0201300310F90C33
:1011DC00F80CFF3E031DEC280130FD02031DF7281F
:1011EC00F828DB287B08F9007A08F8000800F501DC
:1011FC00F601700871040319042905293C29F7012B
:10120C00F70A132901300310F00DF10DFF3E031DF9
:10121C0009290130F4007408F707F11F1629172962
:10122C00082901300310F50DF60DFF3E031D18299A
:10123C0071087302031D242970087202031C2729EC
:10124C0028292F297008F2027108031CF303F302FA
:10125C00751401300310F10CF00CFF3E031D302906
:10126C000130F702031D3B293C2917297608F100B0
:10127C007508F0000800F601F31F452946294D2991
:10128C00F209F309F20A0319F30AF601F60AF11F3F
:10129C00502951295629F009F109F00A0319F10ACC
:1012AC007008710403195B295C298B29F501F50A77
:1012BC006A2901300310F00DF10DFF3E031D60296A
:1012CC000130F4007408F507F11F6D296E295F29B0
:1012DC0071087302031D742970087202031C7729AC
:1012EC0078297E297008F2027108031CF303F302BB
:1012FC0001300310F10CF00CFF3E031D7F2901306F
:10130C00F502031D8A298B296E29760803198F296A
:10131C0090299529F209F309F20A0319F30A7308C3
:10132C00F1007208F000080083120313A101F81FEA
:10133C00A029A129A829F709F809F70A0319F80A1D
:10134C00A101A10AFA1FAB29AC29B529F909FA099F
:10135C00F90A0319FA0A0130FB007B08A106A20165
:10136C00A301770878040319BC29BD29F429A0012D
:10137C00A00ACB2901300310F70DF80DFF3E031D19
:10138C00C1290130FB007B08A007F81FCE29CF290B
:10139C00C02901300310A20DA30DFF3E031DD0295F
:1013AC0078087A02031DDC2977087902031CDF29EF
:1013BC00E029E7297708F9027808031CFA03FA02F6
:1013CC00221401300310F80CF70CFF3E031DE82922
:1013DC000130A002031DF329F429CF292108031998
:1013EC00F829F929FE29A209A309A20A0319A30ABB
:1013FC002308F8002208F7000800FF3083160313B7
:10140C0085000F3086008701880189010A168A1130
:10141C00F1260A128A150A168A11FA260A128A1558
:10142C000A168A1103270A128A150A128A155620DF
:10143C000A128A1580300A128A1546200A128A1559
:10144C001730F2008030F3000A168A1172270A1244
:10145C008A15C0300A128A1546200A128A150B30DA
:10146C00F2008030F3000A168A1172270A128A15CC
:10147C000A128A1116200A128A15831603135008B1
:10148C00F1004F08F0000A168A110E270A128A156D
:10149C00710883160313D0007008CF004E08F100BA
:1014AC004D08F0000A168A110E270A128A157108C7
:1014BC0083160313CE007008CD002F08F1002E0800
:1014CC00F0000A168A110E270A128A157108831663
:1014DC000313AF007008AE000A128A15CD260A124B
:1014EC008A150A168A119D270A128A150A128A1160
:1014FC00EA200A128A153E2A0A128A1100280310C1
:10150C00831203136A0D6B0D83160313C400440876
:10151C00FC007C08031D932A942A9E2A0030831217
:10152C00EB000030EA000030E9000030E8001F2B2F
:10153C0083120313680883160313C4008312031366
:10154C00690883160313C500831203136A088316F4
:10155C000313C600831203136B0883160313C7000F
:10156C001F300310C70CC60CC50CC40CFF3E031D6A
:10157C00B72A4408C8004808FB0083120313EA1773
:10158C00FF30E805FF30E905FF30EA050030EB05D8
:10159C009630FC02FC1FD32AD42AF12A7C08803A0C
:1015AC00973E0318DA2ADB2ADC2A942A013003102E
:1015BC008312EB0CEA0CE90CE80CFF3E031DDD2A50
:1015CC00013083160313C4004408FC07031DEF2AE3
:1015DC00F02ADC2A0E2B20307C02031CF62AF72A78
:1015EC00092B942A013083160313C40003108312B1
:1015FC000313E80DE90DEA0DEB0D83160313C40B71
:10160C00FC2A0130FC027C08031D0D2B0E2BF82A42
:10161C007B080319122B132B1F2B8312E809E909E2
:10162C00EA09EB09E80A0319E90A0319EA0A03199A
:10163C00EB0A080083120313A101F31F262B272B9F
:10164C00342BF009F109F209F309F00A0319F10A34
:10165C000319F20A0319F30AA101A10AF71F372B88
:10166C00382B472BF409F509F609F709F40A031985
:10167C00F50A0319F60A0319F70A0130F80078087D
:10168C00A1060030A5000030A4000030A3000030FB
:10169C00A20073087204710470040319562B572BA3
:1016AC00A42BA001A00A672B0130F8000310F00D49
:1016BC00F10DF20DF30DF80B5C2B0130F8007808EE
:1016CC00A007F31F6A2B6B2B5A2B0130F800031069
:1016DC00A20DA30DA40DA50DF80B6D2B73087702AD
:1016EC00031D822B72087602031D822B7108750272
:1016FC00031D822B70087402031C852B862B952BE3
:10170C007008F4027108031C710FF5027208031CB7
:10171C00720FF6027308031C730FF70222140130C8
:10172C000310F30CF20CF10CF00CFF3E031D962B86
:10173C000130A002031DA32BA42B6B2B2108031932
:10174C00A82BA92BB42BA209A309A409A509A20AA9
:10175C000319A30A0319A40A0319A50A2508F300FF
:10176C002408F2002308F1002208F000080083127C
:10177C0003136E08A6006F08A700A801A9010A129E
:10178C008A158C200A128A150430831203136D02F9
:10179C00003003196C020318D42BD52B722C6C0857
:1017AC00A6006D08A700A801A90100300A128A152D
:1017BC0029250A128A15831203132908BB0028084D
:1017CC00BA002708B9002608B8004430B7007F30AB
:1017DC00B600C030B5000030B4000A128A1186225F
:1017EC000A128A15831203133708D5003608D40061
:1017FC003508D3003408D2000030F7003D30F60035
:10180C000930F5000030F4006F0883160313CA008A
:10181C00831203136E0883160313C9000310C90D3A
:10182C00CA0D0310C90DCA0D4908F0004A08F10091
:10183C00F201F3010A128A1520230A128A15730881
:10184C0083120313A9007208A8007108A70070087E
:10185C00A60001300A128A1529250A128A1583124C
:10186C0003132908D1002808D0002708CF00260828
:10187C00CE000A128A1163240A128A1583120313EA
:10188C005108EB005008EA004F08E9004E08E80048
:10189C000A128A1585220A128A1583120313690803
:1018AC00ED006808EC009D126C185D2C612C831205
:1018BC0003131D16642C831203131D126C0883165C
:1018CC000313C90002300310C90CFF3E031D692C21
:1018DC004908831203139B000800831203136E083C
:1018EC00A6006F08A700A801A9010A128A158C206E
:1018FC000A128A150430831203136D020030031987
:10190C006C0203188A2C8B2C282D6C08A6006D08F1
:10191C00A700A801A90100300A128A1529250A126C
:10192C008A15831203132908BB002808BA0027085C
:10193C00B9002608B8004430B7007F30B600C0307C
:10194C00B5000030B4000A128A1186220A128A15D8
:10195C00831203133708D5003608D4003508D3009A
:10196C003408D2000030F7003D30F6000930F500A5
:10197C000030F4006F0883160313CA00831203139C
:10198C006E0883160313C9000310C90DCA0D03108A
:10199C00C90DCA0D4908F0004A08F100F201F30123
:1019AC000A128A1520230A128A157308831203134C
:1019BC00A9007208A8007108A7007008A6000130E1
:1019CC000A128A1529250A128A158312031329086B
:1019DC00D1002808D0002708CF002608CE000A1214
:1019EC008A1163240A128A15831203135108EB001F
:1019FC005008EA004F08E9004E08E8000A128A1560
:101A0C0085220A128A15831203136908ED006808EF
:101A1C00EC0097126C18132D172D83120313171645
:101A2C001A2D8312031317126C0883160313C900A3
:101A3C0002300310C90CFF3E031D1F2D49088312F1
:101A4C0003139500080083120313AE002E0803192C
:101A5C00302D312D452DA91F342D352D452D260921
:101A6C00B0002709B1002809B2002909B300B00A57
:101A7C000319B10A0319B20A0319B30A4D2D290827
:101A8C00B3002808B2002708B1002608B0002908C6
:101A9C00280427042604031D542D552D5E2D0030DB
:101AAC00A9000030A8000030A7000030A600E42DEB
:101ABC009630AA002A08AF00702D0130AA002A081F
:101ACC00AF0701300310B30CB20CB10CB00CFF3EDD
:101ADC00031D682DFE303305031D752D762D632DEA
:101AEC00922D0130AA002A08AF070130B007003050
:101AFC0003180130B107003003180130B207003071
:101B0C0003180130B30701300310B30CB20CB10C45
:101B1C00B00CFF3E031D8A2DFF303305031D972D9E
:101B2C00982D772DA42D0130AF020130AA0003109F
:101B3C00B00DB10DB20DB30DAA0B9D2DB21BA72D7F
:101B4C00A82DAE2D02302F020318AD2DAE2D992DE0
:101B5C002F18B12DB22DBA2DFF30B005FF30B105C5
:101B6C007F30B205FF30B3050310AF0C2F08AA006D
:101B7C00AB01AC01AD0118300310AA0DAB0DAC0DCF
:101B8C00AD0DFF3E031DC22D2A08B0042B08B10475
:101B9C002C08B2042D08B3042E080319D62DD72D0A
:101BAC00DC2DA91FDA2DDB2DDC2DB3173308A90092
:101BBC003208A8003108A7003008A60008008312DC
:101BCC000313AB002130A3002308A600B62E25304A
:101BDC002C060319F22DF32DFF2D2C08A3002B0836
:101BEC0084002308831780000130A3002308AB076F
:101BFC00B62EA7010130A007FF30200784000A127F
:101C0C008A150A200A128A15AC00A300A401240824
:101C1C00003A0319122EB62E2308003A0319C82EC7
:101C2C00643A03191D2E0D3A03191D2EB62E2608E3
:101C3C00840083130008A900840A0008AA0002305B
:101C4C00A3002308A607AA1F2C2E2D2E362E0330F8
:101C5C00A3002308A704A909AA09A90A0319AA0A17
:101C6C00AC01AC0A2C08A3002307013E84000A1225
:101C7C008A150A200A128A15A4000A128A150A204B
:101C8C000A128A15A50025082A02031D4F2E2408C6
:101C9C0029020318522E532E542E5E2E0130A3000F
:101CAC002308AC0705302C06031D5D2E5E2E382E46
:101CBC00270803390319632E642E6F2E2D30A300D1
:101CCC002B0884002308831780000130A30023080D
:101CDC00AB072C08A3002308A800AD2E0A30F8008F
:101CEC000030F9002808A3002307013E84000A12E3
:101CFC008A150A200A128A15F0000A128A150A207F
:101D0C000A128A15F1002A08F3002908F2000A12B7
:101D1C008A15FD200A128A157108FB007008FA005A
:101D2C000A128A15C3200A128A157808303E8312CB
:101D3C000313A4002408AC002C08A3002B08840077
:101D4C002308831780000130A3002308AB07FF3062
:101D5C00A3002308A807280A031DB52EB62E742E3F
:101D6C000130A007FF30200784000A128A150A20D0
:101D7C000A128A15A3002308AC002C08031DC72ED9
:101D8C00C82EED2D2B08840083178001080000302D
:101D9C000A168A11CC270A128A157108F6007008E7
:101DAC00F5000A30F7000030F8000A168A112627D1
:101DBC000A128A15750883160313CB007608CC001B
:101DCC000310CC0CCB0C0310CC0CCB0C0310CC0C98
:101DDC00CB0C4B086A3EBA004C080318013EFF3E80
:101DEC00BB000A30F7000030F8003508FA00340860
:101DFC00F9000A128A159A210A128A1583160313FE
:101E0C003A087702B0003B08031C3B0A7802B10089
:101E1C005008F6004F08F5003108F8003008F700BC
:101E2C000A168A1126270A128A15760883160313B6
:101E3C00A7007508A6004E08F8004D08F7003108F9
:101E4C00F6003008F5000A168A1126270A128A15A0
:101E5C00750883120313A6007608A7000030A71B91
:101E6C00FF30A800A90001300A128A1529250A1290
:101E7C008A15831203132908D5002808D4002708D3
:101E8C00D3002608D2003D30D100CC30D000CC306D
:101E9C00CF00CD30CE000A128A1163240A128A15A3
:101EAC00831203135108EB005008EA004F08E900B5
:101EBC004E08E8000A128A1585220A128A15831226
:101ECC000313680883160313A4070318A50A8312C7
:101EDC000313690883160313A5072F08F8002E08AF
:101EEC00F7003A083802F5003B08031C3B0A39029C
:101EFC00F6000A168A1126270A128A15750883120B
:101F0C000313A6007608A7000030A71BFF30A8001B
:101F1C00A90001300A128A1529250A128A15831282
:101F2C0003132908BB002808BA002708B9002608A3
:101F3C00B8003D30B700CC30B600CC30B500CD3059
:101F4C00B4000A128A1186220A128A15831203130C
:101F5C003708EB003608EA003508E9003408E800D9
:101F6C000A128A1585220A128A158312031368082D
:101F7C0083160313A2070318A30A83120313690819
:101F8C0083160313A3073B08B9003A08B8002408CA
:101F9C002607CB0025080318250A2707CC002208A2
:101FAC004B07A00023080318230A4C07A1002108A3
:101FBC00F1002008F0000A168A110E270A128A1561
:101FCC00710883160313A1007008A0002108831266
:101FDC000313ED0083160313200883120313EC0084
:101FEC00A030EE000F30EF000A128A1573240A128B
:041FFC008A1508003A
:102DBA00F0007008831203138800080002340034FC
:102DCA00323400347C34153464008001840A0406E9
:102DDA00031900340406EA2E8030831603139F0079
:102DEA00C130831203139F0008008312031397153F
:102DFA0017151215831603130711080083120313FC
:102E0A009D151D151214921012158316031387109F
:102E1A000800F11F112F122F142FF001F101710870
:102E2A00803AFF0084307F02031D1D2F003070029C
:102E3A00031C202F212F252FFF30F0000330F10033
:102E4A000800F901FA01751C2B2F2C2F322F770855
:102E5A00F9070318FA0A7808FA0701300310F70D80
:102E6A00F80DFF3E031D332F01300310F60CF50C4D
:102E7A00FF3E031D3A2F75087604031D452F462F82
:102E8A00282F7A08F6007908F5000800F800F401FE
:102E9A00F5017008F200F3017208F6007308F700F2
:102EAA00781C582F592F5F2F7608F4070318F50A54
:102EBA007708F50701300310F60DF70DFF3E031DE5
:102ECA00602F0310F80C7808031D6C2F6D2F552FF7
:102EDA007508F1007408F0000800F501892F7508DB
:102EEA007207840073080318730AFF000A128A150E
:102EFA0000200A168A110A128A1106200A168A1155
:102F0A000130F4007408F507750872078400730825
:102F1A000318730A83120313FF000A128A1500208A
:102F2A000A168A11003A031D9B2F9C2F742F080042
:102F3A0001300A168A11CC270A168A1171088316DB
:102F4A000313CC007008CB004C08F1004B08F000CA
:102F5A000A168A110E270A168A1171088316031394
:102F6A00CC007008CB004C0883120313ED008316C3
:102F7A0003134B0883120313EC00A030EE000F304A
:102F8A00EF000A128A15BD230A168A110800F400F6
:102F9A0008307402031CD22FD32FD62FF001F1016F
:102FAA00FF2FC530F2007208831203139F057408BD
:102FBA00F20002300310F20DFF3E031DDF2F031053
:102FCA00720DF30073089F040330F3009730F20088
:102FDA00F20BED2FF30BED2FF22F831203131F15B4
:102FEA001F19F82FF92FF52F1E08F1008316031366
:062FFA001E08F0000800B3
:02400E003A3F37
:00000001FF
