:060000000A128A11CE2F46
:10000800831203139D151D151214921012158316D1
:10001800031387100800031083120313280D290DFA
:10002800F9007908AB002B08031D1B281C2825287C
:100038000030A9000030A8000030A7000030A6005A
:100048008A282608F9002708FA002808FB0029084A
:10005800FC001F300310FC0CFB0CFA0CF90CFF3EE3
:10006800031D2E287908FD007D08AA00A817FF3077
:10007800A605FF30A705FF30A8050030A905963072
:10008800AB02AB1F4828492863282B08803A973EC3
:1000980003184F28502851281C2801300310A90C98
:1000A800A80CA70CA60CFF3E031D52280130F9002E
:1000B8007908AB07031D6128622851287A28203067
:1000C8002B02031C6828692875281C280130F900B0
:1000D8000310A60DA70DA80DA90DF90B6C2801306A
:1000E800AB022B08031D79287A286A282A080319E5
:1000F8007E287F288A28A609A709A809A909A60A87
:100108000319A70A0319A80A0319A90A08008312E0
:1001180003133F088039C4004408C9003F08C400DD
:100128004407C5004508CF00BE1F9B289C289D2872
:100138004F144F080319A128A228B1284F0A031DFC
:10014800A628A728AF280030BF000030BE00003026
:10015800BD000030BC00BE17B9280030BF00003019
:10016800BE000030BD000030BC0043088039C40028
:100178004408C9064308C4004407C5004508CE0022
:10018800C21FC728C828C9284E144E080319CD28ED
:10019800CE28DD284E0A031DD228D328DB280030BC
:1001A800C3000030C2000030C1000030C000C217D8
:1001B800E5280030C3000030C2000030C100003024
:1001C800C0004E080319E928EA28EF284F08031D44
:1001D800EE28EF28F8280030BF000030BE000030BD
:1001E800BD000030BC00EB2B3C08C4004408F00004
:1001F80042080A168A1190200A128A11710883127D
:100208000313D5007008D4005408C400C501C60102
:10021800C7014708CD004608CC004508CB00440874
:10022800CA005508C400C501C601C7014708D30064
:100238004608D2004508D1004408D0003D08C40053
:100248004408F00041080A168A1190200A128A11FF
:10025800710883120313D5007008D4005408C40031
:10026800C501C601C7014408CA0745080311031898
:10027800013E03194029CB07460803110318013E24
:1002880003194729CC07470803110318013E03192E
:100298004E29CD075508C400C501C601C701440849
:1002A800D007450803110318013E03195C29D1073B
:1002B800460803110318013E03196329D2074708AA
:1002C80003110318013E03196A29D3073E08C40025
:1002D8004408F00040080A168A1190200A128A1170
:1002E800710883120313D5007008D4005408C400A1
:1002F800C501C601C7014408CA0745080311031808
:10030800013E03198829CB07460803110318013E4B
:1003180003198F29CC07470803110318013E031955
:100328009629CD075508C400C501C601C701440870
:10033800D007450803110318013E0319A429D10762
:10034800460803110318013E0319AB29D2074708D1
:1003580003110318013E0319B229D3070830C4005A
:100368000310CA0DCB0DCC0DCD0DC40BB4293D081F
:10037800C4004408F00040080A168A1190200A12A6
:100388008A11710883120313D5007008D400540829
:10039800C4005508C500C601C7014408CA07450876
:1003A80003110318013E0319DA29CB074608031184
:1003B8000318013E0319E129CC0747080311031864
:1003C800013E0319E829CD073C08C4004408F000A1
:1003D80041080A168A1190200A128A11710883129C
:1003E8000313D5007008D4005408C4005508C5008C
:1003F800C601C7014408CA07450803110318013E8E
:100408000319072ACB07460803110318013E0319ED
:100418000E2ACC07470803110318013E0319152AB1
:10042800CD070830C4000310CA0DCB0DCC0DCD0D7F
:10043800C40B172A3C08C4004408F00040080A16F8
:100448008A1190200A128A11710883120313D500A9
:100458007008D4005408C4005508C500C601C70177
:100468004408CA07450803110318013E03193D2A29
:10047800CB07460803110318013E0319442ACC0789
:10048800470803110318013E03194B2ACD073D08FD
:10049800C4004408F00042080A168A1190200A1283
:1004A8008A11710883120313D5007008D400540808
:1004B800C4005508C500C601C7014408D00745084F
:1004C80003110318013E03196A2AD10746080311CC
:1004D8000318013E0319712AD207470803110318AC
:1004E800013E0319782AD3073E08C4004408F000E7
:1004F80041080A168A1190200A128A11710883127B
:100508000313D5007008D4005408C4005508C5006A
:10051800C601C7014408D007450803110318013E66
:100528000319972AD107460803110318013E031936
:100538009E2AD207470803110318013E0319A52A6A
:10054800D3073E08C4004408F00042080A168A117E
:1005580090200A128A11710883120313D5007008BB
:10056800D4005408C4005508C500C601C7010830A6
:100578000310C40DC50DC60DC70DFF3E031DBC2AD3
:100588004408D007450803110318013E0319CD2A72
:10059800D107460803110318013E0319D42AD207CC
:1005A800470803110318013E0319DB2AD3074A0839
:1005B800C4004B08C5004C08C6004D08C7001830D9
:1005C8000310C70CC60CC50CC40CFF3E031DE42A5F
:1005D8004408D007450803110318013E0319F52AFA
:1005E800D107460803110318013E0319FC2AD20754
:1005F800470803110318013E0319032BD3070830DA
:10060800C4000310CA0DCB0DCC0DCD0DC40B052BAA
:100618004F084E07C400C501C50D4408823ED400EA
:1006280045080318013EFF3ED500372B0130C400B2
:100638000310D00DD10DD20DD30DC40B1C2BCD1F23
:10064800262B272B282B50140130C4000310CA0D69
:10065800CB0DCC0DCD0DC40B2A2BFF30D4070318BE
:10066800D50AFF30D507D21F3A2B3B2B1A2BCE01C8
:10067800CD1F3F2B402B5C2BFF304A05C400FF30B9
:100688004B05C500FF304C05C6007F304D05C7003F
:1006980047084604450444040319532B542B572B8D
:1006A800CE01CE0A5C2B501C5A2B5B2B5C2B542B97
:1006B8004E080319602B612B922B0130D0070030B4
:1006C80003180130D107003003180130D207003079
:1006D80003180130D307531C722B732B922B50082D
:1006E800C4005108C5005208C6005308C7000130AD
:1006F800C800470DC70CC60CC50CC40CC80B7D2B15
:100708004708D3004608D2004508D1004408D00065
:100718000130D4070318D50A0030D5075508803AA8
:10072800FF0080307F02031D9B2BFF305402031C07
:100738009E2B9F2BAA2B7F3083120313D30080306C
:10074800D2000030D1000030D000DF2B8312031319
:100758005508803AFF0080307F02031DB52B013019
:1007680054020318B82BB92BC52B0030831203137E
:10077800D3000030D2000030D1000030D000C901D1
:10078800DF2B831203135408C4004408CF00FF3042
:10079800D005FF30D1057F30D2050030D3054F1C7E
:1007A800D62BD72BD82BD2174F08C4000310440CD4
:1007B800C5004508D3004908C4004408D3045308B9
:1007C800BF005208BE005108BD005008BC00080018
:1007D8000A30F7000030F80000300A168A11E220CB
:1007E8000A128A117108F6007008F5000A168A11B3
:1007F8006B200A128A11750883160313C300760842
:10080800C4000310C40CC30C0310C40CC30C0310A5
:10081800C40CC30C43086A3EC50044080318013ED3
:10082800FF3EC6004508C7004608C800C901CA01FE
:100838004A0883120313B10083160313490883126D
:100848000313B00083160313480883120313AF0081
:1008580083160313470883120313AE0000300A16E9
:100868008A1198230A128A118312031331088316F6
:100878000313DC0083120313300883160313DB0011
:10088800831203132F0883160313DA00831203134A
:100898002E0883160313D9005C08A3005B08A20086
:1008A8005A08A1005908A0006C08FA006B08F90062
:1008B8000A30F7000030F8000A168A112F230A12AE
:1008C8008A11770883120313AE007808AF0000304E
:1008D800AF1BFF30B000B10001300A168A1198230F
:1008E8000A128A1183120313310883160313A7000F
:1008F80083120313300883160313A600831203130D
:100908002F0883160313A500831203132E088316DA
:100918000313A4000A168A1136220A128A118316B2
:100928000313230883160317A3008316031322084F
:1009380083160317A20083160313210883160317CF
:10094800A10083160313200883160317A0002308A9
:1009580083120313BF00831603172208831203139D
:10096800BE0083160317210883120313BD008316E4
:100978000317200883120313BC00831603136A08A5
:1009880083120313C3008316031369088312031326
:10099800C20083160313680883120313C100831669
:1009A8000313670883120313C0000A128A118B20ED
:1009B8000A128A11831203133F08831603179F0034
:1009C800831203133E08831603179E008312031332
:1009D8003D08831603179D00831203133C088316F2
:1009E80003179C00230883120313C30083160317FD
:1009F800220883120313C2008316031721088312E7
:100A08000313C10083160317200883120313C000C1
:100A180083160317510883120313BF0083160317A5
:100A2800500883120313BE00831603174F0883125E
:100A38000313BD00831603174E0883120313BC006B
:100A48000A128A118B200A128A11831203133F0893
:100A580083160313CE00831203133E088316031371
:100A6800CD00831203133D0883160313CC008312B1
:100A780003133C0883160313CB004E088312031399
:100A8800C300831603134D0883120313C200831691
:100A980003134C0883120313C100831603134B0876
:100AA80083120313C0003D30BF00CC30BE00CC30F1
:100AB800BD00CD30BC000A128A118B200A128A119F
:100AC800831203133F08D9003E08D8003D08D70019
:100AD8003C08D600831603171B0883120313DD0096
:100AE800831603171A0883120313DC0083160317EF
:100AF800190883120313DB008316031718088312DF
:100B08000313DA000A128A1578250A128A11831249
:100B180003135908831603179B00831203135808FD
:100B2800831603179A0083120313570883160317B3
:100B38009900831203135608831603179800270891
:100B480083160313A70083160317260883160313B7
:100B5800A60083160317250883160313A50083161A
:100B68000317240883160313A4005C08A3005B087A
:100B7800A2005A08A1005908A0000A168A113622B4
:100B88000A128A1183160313230883120313C3005E
:100B980083160313220883120313C2008316031358
:100BA800210883120313C10083160313200883123C
:100BB8000313C000831603174D0883120313BF00E5
:100BC800831603174C0883120313BE0083160317FA
:100BD8004B0883120313BD00831603174A088312B8
:100BE8000313BC000A128A118B200A128A1183127D
:100BF80003133F0883160313AF00831203133E0841
:100C080083160313AE00831203133D0883160313E0
:100C1800AD00831203133C0883160313AC003D3068
:100C2800AB00CC30AA00CC30A900CD30A8000A1205
:100C38008A1515230A128A11831603132B08D2006A
:100C48002A08D1002908D0002808CF0052088312AA
:100C58000313D90083160313510883120313D80012
:100C680083160313500883120313D7008316031344
:100C78004F0883120313D60083160317170883122D
:100C88000313DD0083160317160883120313DC0011
:100C980083160317150883120313DB008316031743
:100CA800140883120313DA000A128A1578250A1227
:100CB8008A118312031359088316031797008312A6
:100CC8000313580883160317960083120313570853
:100CD8008316031795008312031356088316031708
:100CE8009400831603135C0883160317A700831662
:100CF80003135B0883160317A600831603135A0809
:100D080083160317A50083160313590883160317C0
:100D1800A4001B0883120313D900831603171A08AB
:100D280083120313D80083160317190883120313B9
:100D3800D70083160317180883120313D6008316E7
:100D480003171F0883120313DD00831603171E08F9
:100D580083120313DC00831603171D088312031381
:100D6800DB00831603171C0883120313DA000A1228
:100D78008A1578250A128A118312031359088316D3
:100D88000313D60083120313580883160313D500E0
:100D980083120313570883160313D4008312031313
:100DA800560883160313D3004030AB008030AA00E6
:100DB8000030A9000030A800831603171708831213
:100DC8000313D90083160317160883120313D800D8
:100DD80083160317150883120313D7008316031706
:100DE800140883120313D6008316031356088312BC
:100DF8000313DD0083160313550883120313DC0065
:100E080083160313540883120313DB00831603139A
:100E1800530883120313DA000A128A1578250A1276
:100E28008A1183120313590883160313AF00831220
:100E38000313580883160313AE00831203135708CD
:100E480083160313AD008312031356088316031386
:100E5800AC000A128A1515230A128A118316031385
:100E68002B08831603179300831603132A08831687
:100E7800031792008316031329088316031791009A
:100E88008316031328088316031790001308831288
:100E98000313A90083160317120883120313A8006B
:100EA80083160317110883120313A7008316031769
:100EB800100883120313A6000A128A110F200A12BF
:100EC8008A11831203132708AD002608AC000A16FE
:100ED8008A114F200A128A11831203132C08AE00BC
:100EE8002D08AF000030AF1BFF30B000B10001305B
:100EF8000A168A1198230A128A11831203133108D9
:100F080083160317930083120313300883160317FD
:100F18009200831203132F0883160317910083127C
:100F280003132E0883160317900013088312031364
:100F3800A90083160317120883120313A800831647
:100F48000317110883120313A70083160317100849
:100F580083120313A6000A128A110F200A128A119B
:100F680083120313270883160313D800831203136D
:100F7800260883160313D7005808BE005708BD007B
:100F8800A030BF000F30C0000A168A1138250A1297
:100F98008A1108008317D230FD001F30FE00BE30D2
:100FA800FF00CA3084000A168A1140200A128A11EA
:100FB8008313EF30FD001F30FE00C630FF00E7301E
:100FC80084000A168A1140200A128A118317903069
:100FD8008400CA300A168A15B6270A128A118313A2
:100FE800D9308400E7300A168A15B6270A128A1102
:080FF80083010A128A15D129B8
:1010060083120313A101F31F09280A281728F009E0
:10101600F109F209F309F00A0319F10A0319F20AB0
:101026000319F30AA101A10AF71F1A281B282A2867
:10103600F409F509F609F709F40A0319F50A03197B
:10104600F60A0319F70A0130F8007808A1060030FD
:10105600A5000030A4000030A3000030A2007308F1
:10106600720471047004031939283A288728A001EC
:10107600A00A4A280130F8000310F00DF10DF20D18
:10108600F30DF80B3F280130F8007808A007F31F8E
:101096004D284E283D280130F8000310A20DA30D5F
:1010A600A40DA50DF80B502873087702031D6528BB
:1010B60072087602031D652871087502031D6528EE
:1010C60070087402031C6828692878287008F402DE
:1010D6007108031C710FF5027208031C720FF602E9
:1010E6007308031C730FF702221401300310F30C6C
:1010F600F20CF10CF00CFF3E031D79280130A00222
:10110600031D862887284E28210803198B288C283A
:101116009728A209A309A409A509A20A0319A30AE3
:101126000319A40A0319A50A2508F3002408F200E6
:101136002308F1002208F0000800831603136D034C
:101146006E040319A728A8282C295E086C06031D1F
:10115600AE285D086B060319B128B2282529E830A8
:10116600F7000330F8006C08FA006B08F9000A165D
:101176008A112F230A128A15780883120313CA00CC
:101186007708C9006430F7000030F80083160313AF
:101196006C08F3006B08F200E830F0000330F10051
:1011A6000A168A11D6220A128A157108FA007008E0
:1011B600F9000A168A112F230A128A157808831253
:1011C6000313CC007708CB0083300A168A15E02774
:1011D6000A128A15233083120313C8004808A00098
:1011E6004A08A2004908A100AA300A168A111C263C
:1011F6000A128A15AA30F2000130F3000A168A1183
:10120600B7200A128A15233083120313C800480830
:10121600A0004C08A2004B08A100AA300A168A11A9
:101226001C260A128A15AA30F2000130F3000A16AB
:101236008A11B7200A128A15831603136C08DE007A
:101246006B08DD008F300A168A15E0270A128A1508
:10125600D02983160317280883120313AE008316BA
:101266000317290883120313AF000030AF1BFF30AA
:10127600B000B10001300A168A1198230A128A15A5
:10128600831203133108BF003008BE002F08BD00CB
:101296002E08BC00831603136A0883120313C300C7
:1012A60083160313690883120313C20083160313FC
:1012B600680883120313C100831603136708831299
:1012C6000313C0000A168A1186220A128A15031809
:1012D6006D296E29CA29C3300A168A15E0270A1213
:1012E6008A15233083120313C8004808A00083160A
:1012F60003136A0883120313A400831603136908F1
:1013060083120313A30083160313680883120313BF
:10131600A20083160313670883120313A100AA30E1
:101326000A168A111C260A128A15AA30F200013002
:10133600F3000A168A11B7200A128A1583160313B8
:101346006A0883120313A90083160313690883121C
:101356000313A80083160313680883120313A70058
:1013660083160313670883120313A6000A128A1151
:101376000F200A128A1583120313270883160317F0
:10138600A90083120313260883160317A800CF307B
:101396000A168A15E0270A128A150800FF308316F6
:1013A600031385000F3086008701880189010A161C
:1013B6008A15CE270A128A150A168A15D7270A12FF
:1013C6008A150A128A1104200A128A150A168A1127
:1013D6004B210A128A1580300A168A15E0270A124E
:1013E6008A151730F2008030F3000A168A11B720EA
:1013F6000A128A15C0300A168A15E0270A128A15BB
:101406000B30F2008030F3000A168A11B7200A1258
:101416008A15831603136A0883120313A900831619
:101426000313690883120313A800831603136808BD
:1014360083120313A700831603136708831203138B
:10144600A6000A128A110F200A128A1583120313A4
:101456002708AD002608AC000A168A114F200A128A
:101466008A15831203132C08AE002D08AF00003036
:10147600AF1BFF30B000B10001300A168A11982365
:101486000A128A1583120313310883160313EA001E
:1014960083120313300883160313E9008312031320
:1014A6002F0883160313E800831203132E088316EE
:1014B6000313E70083160317510883120313A900C9
:1014C60083160317500883120313A8008316031705
:1014D6004F0883120313A700831603174E088312BF
:1014E6000313A6000A128A110F200A128A15831204
:1014F60003132708AD002608AC000A168A114F20F0
:101506000A128A15831203132C08AE002D08AF00A9
:101516000030AF1BFF30B000B10001300A168A114F
:1015260098230A128A1583120313310883160317A8
:10153600D10083120313300883160317D0008312D9
:1015460003132F0883160317CF00831203132E08E5
:1015560083160317CE004D0883120313A9008316C2
:1015660003174C0883120313A800831603174B08AE
:1015760083120313A700831603174A088312031363
:10158600A6000A128A110F200A128A158312031363
:101596002708AD002608AC000A168A114F200A1249
:1015A6008A15831203132C08AE002D08AF000030F5
:1015B600AF1BFF30B000B10001300A168A11982324
:1015C6000A128A1583120313310883160317CD00F6
:1015D60083120313300883160317CC0083120313F8
:1015E6002F0883160317CB00831203132E088316C6
:1015F6000317CA000A168A1104270A128A150A1244
:101606008A11EC230A128A150A168A1116210A1261
:101616008A150A128A15A0200A128A150C2A0A129D
:101626008A110028831603132F08803983120313A7
:10163600EA006A0883160313B4002F088312031303
:10164600EA006A07EB006B0883160313BB00AE1FA4
:101656002D2B2E2B2F2B3B143B080319332B342B0E
:10166600442B3B0A031D382B392B412B0030AF008E
:101676000030AE000030AD000030AC00AE17AF0158
:101686004C2B0030AF000030AE000030AD00003013
:10169600AC002B08803983120313EA006A0883160C
:1016A6000313B4062B0883120313EA006A07EB0040
:1016B6006B0883160313BC00AA1F622B632B642BD3
:1016C6003C143C080319682B692B792B3C0A031D33
:1016D6006D2B6E2B762B0030AB000030AA0000304D
:1016E600A9000030A800AA17AB01812B0030AB007F
:1016F6000030AA000030A9000030A8002B082A04F8
:1017060029042804031D882B892BA62B0030AF0043
:101716000030AE000030AD000030AC008030AE04CA
:101726007F30AF04340883120313EA006A08831675
:101736000313AF042F08AB002E08AA002D08A9003A
:101746002C08A800772D3B08031DAA2BAB2BB42B26
:101756000030AB000030AA000030A9000030A8001D
:10176600772D3B0883120313EA00EB016B08ED00AB
:10177600831603133C08831203136A02EC00031C4E
:10178600ED036C087F3E83160313B5008312031323
:101796006D080318013E003E83160313B6002F089A
:1017A600B3002E08B2002D08B1002C08B00000309E
:1017B600AF000030AE000030AD000030AC000030AD
:1017C600BA000030B9000030B8000030B700BC01E4
:1017D6004E2C3C080319F02BF12B232C01308312DD
:1017E6000313EA00031083160313B00DB10DB20DF7
:1017F600B30D83120313EA0BF52B0130EA00031035
:1018060083160313AC0DAD0DAE0DAF0D831203138E
:10181600EA0B022C83160313BA1F122C132C142C5A
:101826002C14013083120313EA00031083160313EA
:10183600B70DB80DB90DBA0D83120313EA0B182CA8
:10184600831603132B083302031D332C2A08320296
:10185600031D332C29083102031D332C28083002BE
:10186600031C362C372C462C3A172808B0022908B8
:10187600031C290FB1022A08031C2A0FB2022B08E7
:10188600031C2B0FB302013083120313EA006A080C
:1018960083160313BC071A303C02031C532C542C2A
:1018A600EC2B330832043104300403195B2C5C2C16
:1018B6008B2C37148B2C013083120313EA00031090
:1018C60083160313AC0DAD0DAE0DAF0D83120313CE
:1018D600EA0B622C83160313BA1F722C732C742C1A
:1018E6002C14013083120313EA000310831603132A
:1018F600B70DB80DB90DBA0D83120313EA0B782C88
:10190600FF3083160313B5070318B60AFF30B60770
:10191600AE1F8E2C8F2C5E2CBC01BA1F932C942CE0
:10192600C22CFF30370583120313EA00FF308316FB
:101936000313380583120313EB00FF3083160313DA
:10194600390583120313EC007F30831603133A051F
:1019560083120313ED006D086C046B046A0403190B
:10196600B52CB62CBB2C83160313BC01BC0AC22CA7
:10197600831603132C1CC02CC12CC22CB62C3C087D
:101986000319C62CC72C142D0130AC0700300318E0
:101996000130AD07003003180130AE0700300318E0
:1019A6000130AF072F1CD82CD92C142D2C088312EC
:1019B6000313EA00831603132D0883120313EB00A7
:1019C600831603132E0883120313EC0083160313E6
:1019D6002F0883120313ED000130EE006D0DED0CA0
:1019E600EC0CEB0CEA0CEE0BF12C6D0883160313D2
:1019F600AF00831203136C0883160313AE00831221
:101A060003136B0883160313AD00831203136A08CE
:101A160083160313AC000130B5070318B60A00306D
:101A2600B6073608803AFF0080307F02031D1D2D61
:101A3600FF303502031C202D212D2F2DFF3083165C
:101A46000313B5000030B6000030AF000030AE0022
:101A56000030AD000030AC00831603133608803A20
:101A6600FF0080307F02031D3A2D01303502031836
:101A76003D2D3E2D4B2D83160313B501B6010030C7
:101A8600AF000030AE000030AD000030AC00B40155
:101A960083160313350883120313EA006A088316B4
:101AA6000313BB003B1C582D592D5B2DAE17632D20
:101AB6007F3083120313EA006A0883160313AE0508
:101AC6003B0883120313EA0003106A0CEB006B0851
:101AD60083160313AF00340883120313EA006A085F
:101AE60083160313AF049D2B0800831203135908B2
:101AF6008039DE005E08E6005908DE005E07DF007A
:101B06005F08E800D81F882D892D8A2D681468087B
:101B160003198E2D8F2D9F2D680A031D932D942D4D
:101B26009C2D0030D9000030D8000030D70000309E
:101B3600D600D817D901A72D0030D9000030D8001B
:101B46000030D7000030D6005D088039DE005E0820
:101B5600E700670866060319B12DB22DB32D661787
:101B66005D08DE005E07DF005F08E700DC1FBC2DB6
:101B7600BD2DBE2D671467080319C22DC32DD32DA5
:101B8600670A031DC72DC82DD02D0030DD0000309B
:101B9600DC000030DB000030DA00DC17DD01DB2D75
:101BA6000030DD000030DC000030DB000030DA0001
:101BB600680867020318E02DE12D252E661FE42D27
:101BC600E52DE92D8030DE005E08E6066808DE00B9
:101BD6005E08E9006708DE005E08E8006908DE00C6
:101BE6005E08E7005608DE005E08E9005A08DE00D7
:101BF6005E08D6006908DE005E08DA005708DE00D7
:101C06005E08E9005B08DE005E08D7006908DE00B2
:101C16005E08DB005808DE005E08E9005C08DE00AE
:101C26005E08D8006908DE005E08DC005908DE00A0
:101C36005E08E9005D08DE005E08D9006908DE007E
:101C46005E08DD00E9016708DE00DF015F08E100EC
:101C560068085E02E000031CE1036108803AFF00A9
:101C660080307F02031D392E1A306002031C3C2E81
:101C76003D2E7A2E8312031359085804570456042E
:101C8600031D462E482E0130492E0030DE005E0828
:101C9600E9000030D9000030D8000030D70000300D
:101CA600D6006708DE005E08E800822E691C5C2EFE
:101CB6005D2E662E6908DE0003105E0C0138DF001B
:101CC6005F08E900682E0310E90C561C6B2E6C2E7B
:101CD6006D2EE9170130DE00590DD90CD80CD70C42
:101CE600D60CDE0B6F2E0130DE005E08E80783128D
:101CF600031367086802031C812E822E592E661B69
:101D0600852E862ED12E6808031D8A2E8B2E942EA4
:101D16000030D9000030D8000030D7000030D6009F
:101D2600FF2F5A08D6075B0803110318013E031953
:101D36009D2ED7075C0803110318013E0319A42E34
:101D4600D8075D0803110318013E0319AB2ED90706
:101D5600591CAE2EAF2E852F691CB22EB32EBC2E6B
:101D66006908DE0003105E0C0138DF005F08E90039
:101D7600BE2E0310E90C561CC12EC22EC32EE91727
:101D86000130DE00590DD90CD80CD70CD60CDE0B61
:101D9600C52E0130DE005E08E807852F5908803A17
:101DA600FF005D08803A7F02031DE32E5C0858029F
:101DB600031DE32E5B085702031DE32E5A08560245
:101DC6000318E62EE72E3F2FFF30DE00FF30DF0040
:101DD600FF30E000FF30E1005A08E2005B08E30054
:101DE6005C08E4005D08E5005608E2025708031C9B
:101DF600570FFE2EFF2EE3025808031C580F042F20
:101E0600052FE4025908031C590F0A2F0B2FE50270
:101E16006208DE0763080318630F122F132FDF070C
:101E260064080318640F182F192FE00765080318B4
:101E3600650AE1076108D9006008D8005F08D70085
:101E46005E08D6008030DE005E08E606E909E90A8B
:101E56006908031D2F2F302F4D2F0130D607003074
:101E660003180130D707003003180130D8070030B7
:101E760003180130D9074D2F5A08D6025B08031CF8
:101E86005B0FD7025C08031C5C0FD8025D08031CBD
:101E96005D0FD9025908580457045604031D542FE0
:101EA600552F812F6908031D592F5A2F812F003076
:101EB600D9000030D8000030D7000030D600FF2F00
:101EC6000130DE000310D60DD70DD80DD90DDE0B6F
:101ED600652FE91F6F2F702F712F5614691C742FF1
:101EE600752F782F0314E90D7A2F0310E90D680872
:101EF60003197E2F7F2F812F0130E802D81F842FF0
:101F0600852F632FE701E91F892F8A2F982F6908EC
:101F16007F3903198F2F902F932FE701E70A982F08
:101F2600561C962F972F982F902F670803199C2FD2
:101F36009D2FD12F0130D607003003180130D70767
:101F4600003003180130D807003003180130D907D4
:101F5600591CAE2FAF2FD12F5608DE005708DF00D1
:101F66005808E0005908E1000130E200610DE10C7B
:101F7600E00CDF0CDE0CE20BB92F6108D90060081B
:101F8600D8005F08D7005E08D600680A0319CC2F70
:101F9600CD2FD12F0130DE005E08E807680A03194D
:101FA600D52FD62FDB2F6808031DDA2FDB2FE92F5D
:101FB6000030D9000030D8000030D7000030D600FD
:101FC6006808031DE72FE82FE92FE601681CEC2FB0
:101FD600ED2FEF2FD817F32F7F30DE005E08D805E0
:101FE6006808DE0003105E0CDF005F08D900E61FFC
:101FF600FD2FFE2FFF2FD9170800FF1B0A2883137A
:102006007F1883170008840A0319FF0A0800103096
:102016008A000408840A82070034013400340A3432
:10202600003464340034E8340334103427344B3439
:1020360050343A34203420342034203420344B3485
:1020460044343A340034543450343A34203420344E
:102056004334203420344B3449343A340034253464
:0420660064340034AA
:10206C00F000700883120313880008007E088A00B1
:10207C007F0882000A168A113C200A168A118000F9
:10208C00840A04087D0603190034FF0A0319FE0AAA
:10209C00402883120313AD1F542855285728AC0130
:1020AC00AD012D08803AFF0084307F02031D6028AB
:1020BC0000302C02031C632864286A28FF3083122A
:1020CC000313AC000330AD000800F901FA01751CD4
:1020DC007028712877287708F9070318FA0A780806
:1020EC00FA0701300310F70DF80DFF3E031D782899
:1020FC0001300310F60CF50CFF3E031D7F2875080C
:10210C007604031D8A288B286D287A08F600790836
:10211C00F5000800F800F401F5017008F200F30175
:10212C007208F6007308F700781C9D289E28A428D6
:10213C007608F4070318F50A7708F5070130031041
:10214C00F60DF70DFF3E031DA5280310F80C7808BB
:10215C00031DB128B2289A287508F1007408F00004
:10216C000800F501CE28750872078400730803185F
:10217C00730AFF000A168A1100200A168A110A1621
:10218C008A15F0270A168A110130F4007408F50735
:10219C0075087207840073080318730A83120313FB
:1021AC00FF000A168A1100200A168A11003A031D34
:1021BC00E028E128B9280800F40008307402031C58
:1021CC00E828E928EC28F001F1011529C530F200C6
:1021DC007208831203139F057408F2000230031077
:1021EC00F20DFF3E031DF5280310720DF30073086A
:1021FC009F040330F3009730F200F20B0329F30B2A
:10220C0003290829831203131F151F190E290F29DF
:10221C000B291E08F100831603131E08F00008009A
:10222C0001300A168A11E2200A168A1171088316E7
:10223C000313C4007008C300440883120313AD00D9
:10224C0083160313430883120313AC000A168A1176
:10225C004F200A168A11831203132D0883160313B9
:10226C00C400831203132C0883160313C300440801
:10227C00BE004308BD00A030BF000F30C0000A16DE
:10228C008A1154240A168A11080083120313891028
:10229C000910891438300A168A15E0270A168A1193
:1022AC0038300A168A15E0270A168A1138300A16B1
:1022BC008A15E0270A168A1108300A168A15E027B3
:1022CC000A168A110F300A168A15E0270A168A1187
:1022DC0001300A168A15E0270A168A1138300A16B8
:1022EC008A15E0270A168A1180300A168A15E0270B
:1022FC000A168A110800831203132608F90027080E
:10230C00FA002808FB002908FC0002300310F90D24
:10231C00FA0DFB0DFC0DFF3E031D8C290230031042
:10232C00F90DFA0DFB0DFC0DFF3E031D95297C08E4
:10233C00F3007B08F2007A08F1007908F000003015
:10234C00F7003D30F6000930F5000030F4000A12B9
:10235C008A1503200A168A117008FF3E8316031390
:10236C0092000800780879040319BD29BE29ED29CB
:10237C00FD01FD0ACC2901300310F80DF90DFF3ECB
:10238C00031DC2290130FC007C08FD07F91FCF2971
:10239C00D029C12979087B02031DD62978087A0235
:1023AC00031CD929DA29E0297808FA027908031CD8
:1023BC00FB03FB0201300310F90CF80CFF3E031D6C
:1023CC00E1290130FD02031DEC29ED29D0297B0800
:1023DC00F9007A08F8000800F501F601700871049C
:1023EC000319F929FA29312AF701F70A082A0130C9
:1023FC000310F00DF10DFF3E031DFE290130F4001A
:10240C007408F707F11F0B2A0C2AFD290130031061
:10241C00F50DF60DFF3E031D0D2A71087302031D09
:10242C00192A70087202031C1C2A1D2A242A7008FF
:10243C00F2027108031CF303F3027514013003104C
:10244C00F10CF00CFF3E031D252A0130F702031D91
:10245C00302A312A0C2A7608F1007508F0000800A1
:10246C00803083160313A306270883120313D900A5
:10247C0083160313260883120313D8008316031341
:10248C00250883120313D700831603132408831221
:10249C000313D60083160313230883120313DD00E2
:1024AC0083160313220883120313DC008316031311
:1024BC00210883120313DB008316031320088312F5
:1024CC000313DA000A128A1578250A168A11831268
:1024DC000313590883160313A3008312031358081C
:1024EC0083160313A20083120313570883160313D6
:1024FC00A10083120313560883160313A0000800CF
:10250C000030831203133C05C40000303D05C500A8
:10251C0080303E05C6007F303F05C70047084604A3
:10252C0045044404031D9B2A9C2AA42A0030BF00A6
:10253C000030BE000030BD000030BC000030400553
:10254C00C40000304105C50080304205C6007F3014
:10255C004305C7004708460445044404031DB72A35
:10256C00B82AC02A0030C3000030C2000030C100BD
:10257C000030C00043083F06031DCE2A42083E0629
:10258C00031DCE2A41083D06031DCE2A40083C06F9
:10259C000319D12AD22AD42A0310D52A03140800ED
:1025AC00F601F31FDA2ADB2AE22AF209F309F20A0E
:1025BC000319F30AF601F60AF11FE52AE62AEB2ABB
:1025CC00F009F109F00A0319F10A700871040319F2
:1025DC00F02AF12A202BF501F50AFF2A013003100D
:1025EC00F00DF10DFF3E031DF52A0130F4007408C7
:1025FC00F507F11F022B032BF42A71087302031D3C
:10260C00092B70087202031C0C2B0D2B132B70085A
:10261C00F2027108031CF303F30201300310F10CF6
:10262C00F00CFF3E031D142B0130F502031D1F2B74
:10263C00202B032B76080319242B252B2A2BF2098C
:10264C00F309F20A0319F30A7308F1007208F00097
:10265C00080083120313A101F81F352B362B3D2BD9
:10266C00F709F809F70A0319F80AA101A10AFA1FD8
:10267C00402B412B4A2BF909FA09F90A0319FA0ADA
:10268C000130FB007B08A106A201A30177087804A6
:10269C000319512B522B892BA001A00A602B01305E
:1026AC000310F70DF80DFF3E031D562B0130FB00F8
:1026BC007B08A007F81F632B642B552B01300310EC
:1026CC00A20DA30DFF3E031D652B78087A02031D96
:1026DC00712B77087902031C742B752B7C2B7708D4
:1026EC00F9027808031CFA03FA02221401300310D1
:1026FC00F80CF70CFF3E031D7D2B0130A002031DCF
:10270C00882B892B642B210803198D2B8E2B932B53
:10271C00A209A309A20A0319A30A2308F800220894
:10272C00F700080083120313B600360803199F2B19
:10273C00A02BB42BB11FA32BA42BB42B2E09B800A8
:10274C002F09B9003009BA003109BB00B80A0319C6
:10275C00B90A0319BA0A0319BB0ABC2B3108BB000E
:10276C003008BA002F08B9002E08B8003108300420
:10277C002F042E04031DC32BC42BCD2B0030B10012
:10278C000030B0000030AF000030AE00532C96305B
:10279C00B2003208B700DF2B0130B2003208B707A5
:1027AC0001300310BB0CBA0CB90CB80CFF3E031D66
:1027BC00D72BFE303B05031DE42BE52BD22B012C34
:1027CC000130B2003208B7070130B80700300318E7
:1027DC000130B907003003180130BA070030031874
:1027EC000130BB0701300310BB0CBA0CB90CB80C90
:1027FC00FF3E031DF92BFF303B05031D062C072C58
:10280C00E62B132C0130B7020130B2000310B80DC7
:10281C00B90DBA0DBB0DB20B0C2CBA1B162C172C08
:10282C001D2C0230370203181C2C1D2C082C3718B9
:10283C00202C212C292CFF30B805FF30B9057F3016
:10284C00BA05FF30BB050310B70C3708B200B30153
:10285C00B401B50118300310B20DB30DB40DB50DA4
:10286C00FF3E031D312C3208B8043308B904340878
:10287C00BA043508BB0436080319452C462C4B2CDE
:10288C00B11F492C4A2C4B2CBB173B08B1003A0802
:10289C00B0003908AF003808AE00080083160313E7
:1028AC003F0883120313A6008316031340088312F8
:1028BC000313A700A801A9010A168A1181210A167F
:1028CC008A110430831603133E02003003193D02B3
:1028DC000318712C722C372D3D0883120313AE0094
:1028EC00831603133E0883120313AF00B001B1012A
:1028FC0000300A168A1198230A168A1183120313C0
:10290C00310883160313AF008312031330088316A8
:10291C000313AE00831203132F0883160313AD00A9
:10292C00831203132E0883160313AC004430AB0040
:10293C007F30AA00C030A9000030A8000A128A1506
:10294C0015230A168A11831603132B0883120313FB
:10295C00C300831603132A0883120313C2008316C1
:10296C000313290883120313C100831603132808C9
:10297C0083120313C0000030F7003D30F60009301D
:10298C00F5000030F400831603134008C2003F0822
:10299C00C1000310C10DC20D0310C10DC20D4108C1
:1029AC00F0004208F100F201F3010A128A1503202B
:1029BC000A168A11730883120313B1007208B0004F
:1029CC007108AF007008AE0001300A168A11982306
:1029DC000A168A11831203133108BF003008BE0097
:1029EC002F08BD002E08BC000A128A118B200A1673
:1029FC008A11831203133F08A9003E08A8003D0862
:102A0C00A7003C08A6000A128A110F200A168A1188
:102A1C0083120313270883160313BE0083120313B8
:102A2C00260883160313BD00831203139D1283160D
:102A3C0003133D18222D262D831203131D16292D49
:102A4C00831203131D12831603133D08C1000230B9
:102A5C000310C10CFF3E031D2E2D410883120313DE
:102A6C009B000800831603133F0883120313A60070
:102A7C0083160313400883120313A700A801A901AE
:102A8C000A168A1181210A168A110430831603133F
:102A9C003E02003003193D020318552D562D1B2EF6
:102AAC003D0883120313AE00831603133E088312F2
:102ABC000313AF00B001B10100300A168A1198233C
:102ACC000A168A1183120313310883160313AF00FD
:102ADC0083120313300883160313AE0083120313FF
:102AEC002F0883160313AD00831203132E088316CD
:102AFC000313AC004430AB007F30AA00C030A900F7
:102B0C000030A8000A128A1515230A168A1183169A
:102B1C0003132B0883120313C300831603132A0811
:102B2C0083120313C20083160313290883120313A1
:102B3C00C10083160313280883120313C00000304E
:102B4C00F7003D30F6000930F5000030F400831634
:102B5C0003134008C2003F08C1000310C10DC20D91
:102B6C000310C10DC20D4108F0004208F100F20142
:102B7C00F3010A128A1503200A168A1173088312AC
:102B8C000313B1007208B0007108AF007008AE00FA
:102B9C0001300A168A1198230A168A11831203131C
:102BAC003108BF003008BE002F08BD002E08BC0045
:102BBC000A128A118B200A168A11831203133F08FA
:102BCC00A9003E08A8003D08A7003C08A6000A1270
:102BDC008A110F200A168A118312031327088316F1
:102BEC000313BE0083120313260883160313BD00C0
:102BFC00831203139712831603133D18062E0A2E05
:102C0C008312031317160D2E831203131712831638
:102C1C0003133D08C10002300310C10CFF3E031D1D
:102C2C00122E41088312031395000800831203131C
:102C3C00AD002130A5002508A800ED2E25302E066C
:102C4C000319292E2A2E362E2E08A5002D088400B5
:102C5C002508831780000130A5002508AD07ED2E4F
:102C6C00A9010130A007FF30200784000A168A1141
:102C7C000A200A168A11AE00A500A6012608003A01
:102C8C000319492EED2E2508003A0319FF2E643A3C
:102C9C000319542E0D3A0319542EED2E28088400D6
:102CAC0083130008AB00840A0008AC000230A500B6
:102CBC002508A807AC1F632E642E6D2E0330A500CB
:102CCC002508A904AB09AC09AB0A0319AC0AAE017F
:102CDC00AE0A2E08A5002507013E84000A168A11AB
:102CEC000A200A168A11A6000A168A110A200A1648
:102CFC008A11A70027082C02031D862E26082B02FA
:102D0C000318892E8A2E8B2E952E0130A5002508AE
:102D1C00AE0705302E06031D942E952E6F2E290816
:102D2C00033903199A2E9B2EA62E2D30A5002D08A3
:102D3C0084002508831780000130A5002508AD0705
:102D4C002E08A5002508AA00E42E0A30F800003051
:102D5C00F9002A08A5002507013E84000A168A11ED
:102D6C000A200A168A11F0000A168A110A200A167D
:102D7C008A11F1002C08F3002B08F2000A168A11B4
:102D8C00F2210A168A117108FB007008FA000A1663
:102D9C008A11B8210A168A117808303E831203135F
:102DAC00A6002608AE002E08A5002D0884002508D4
:102DBC00831780000130A5002508AD07FF30A50062
:102DCC002508AA072A0A031DEC2EED2EAB2E013086
:102DDC00A007FF30200784000A168A110A200A1661
:102DEC008A11A5002508AE002E08031DFE2EFF2E0D
:102DFC00242E2D08840083178001080000308312D4
:102E0C0003130618013083160313E5006508031934
:102E1C00102F112F622F6608031D152F162F622FEE
:102E2C006D036E0403191B2F1C2F232F6430EB072B
:102E3C000318EC0A0030EC07622F413083120313A5
:102E4C00D9002030D8000030D7000030D6008316CF
:102E5C0003136A0883120313DD0083160313690836
:102E6C0083120313DC008316031368088312031305
:102E7C00DB0083160313670883120313DA000A12AC
:102E8C008A1578250A168A1183120313590883169A
:102E9C000313EA0083120313580883160313E90083
:102EAC0083120313570883160313E80083120313CA
:102EBC00560883160313E700650883120313EA0010
:102ECC006A0883160313E600003083120313861876
:102EDC00013083160313E30063080319762F772F51
:102EEC00A82F6408031D7B2F7C2FA82F6D036E0465
:102EFC000319812F822F892F9C30EB070318EC0AC2
:102F0C00FF30EC07A82F4130A3002030A200003086
:102F1C00A1000030A0006A08A7006908A600680894
:102F2C00A5006708A4000A168A1136220A168A110F
:102F3C00831603132308EA002208E9002108E8009D
:102F4C002008E700630883120313EA006A0883165B
:102F5C000313E400003083120313061901308316A7
:102F6C000313E10061080319BC2FBD2FCE2F62089B
:102F7C00031DC12FC22FCE2F6D036E040319C72F53
:102F8C00C82FCE2F0A30EB070318EC0A0030EC07E1
:102F9C00610883120313EA006A0883160313E20024
:102FAC000030831203138619013083160313DF00DC
:102FBC005F080319E22FE32FF72F6008031DE72F9B
:102FCC00E82FF72F6D036E04031DED2FEE2FF32F5B
:102FDC000230ED000030EE00F72F0130ED00003034
:102FEC00EE005F0883120313EA006A0883160313CA
:042FFC00E0000800E9
:103F6C0064008001840A0406031900340406B72F88
:103F7C006F34123403343B340034003480343F3417
:103F8C000034003420344134883413340134003488
:103F9C008030831603139F00C130831203139F00DC
:103FAC0008008312031397151715121583160313A4
:103FBC0007110800F10083120313891471080A1603
:103FCC008A1136200A168A158312031309108910D8
:103FDC0089140800F10083120313891471080A165E
:103FEC008A1136200A168A158312031309148910B4
:043FFC00891408001C
:02400E003A3F37
:00000001FF
