:060000000A128A11DC2F38
:10000E007E088A007F0882000A128A1107200A12CF
:10001E008A118000840A04087D0603190034FF0A41
:10002E000319FE0A0B2883120313AB002130A30021
:10003E002308A600EB2825302C060319272828288C
:10004E0034282C08A3002B08840023088317800073
:10005E000130A3002308AB07EB28A7010130A0074E
:10006E00FF30200784000A128A150A200A128A110C
:10007E00AC00A300A4012408003A03194728EB287A
:10008E002308003A0319FD28643A031952280D3A41
:10009E0003195228EB282608840083130008A900B0
:1000AE00840A0008AA000230A3002308A607AA1F8C
:1000BE00612862286B280330A3002308A704A9092E
:1000CE00AA09A90A0319AA0AAC01AC0A2C08A300B2
:1000DE002307013E84000A128A150A200A128A1189
:1000EE00A4000A128A150A200A128A11A5002508F0
:1000FE002A02031D84282408290203188728882829
:10010E00892893280130A3002308AC0705302C065C
:10011E00031D922893286D28270803390319982860
:10012E009928A4282D30A3002B08840023088317B8
:10013E0080000130A3002308AB072C08A30023087E
:10014E00A800E2280A30F8000030F9002808A300C1
:10015E002307013E84000A128A150A200A128A1108
:10016E00F0000A128A150A200A128A11F1002A08D2
:10017E00F3002908F2000A128A151F210A128A11A9
:10018E007108FB007008FA000A128A15E5200A129F
:10019E008A117808303E83120313A4002408AC00A1
:1001AE002C08A3002B08840023088317800001303D
:1001BE00A3002308AB07FF30A3002308A807280AD3
:1001CE00031DEA28EB28A9280130A007FF302007DD
:1001DE0084000A128A150A200A128A11A300230823
:1001EE00AC002C08031DFC28FD2822282B088400B7
:1001FE00831780010800831603133A033B04031D83
:10020E0009290A29102987300A168A1122270A126B
:10021E008A110230831603133A063B04031D182974
:10022E0019291F29C7300A168A1122270A128A1184
:10023E000330831603133A063B04031D272928298E
:10024E002E298F300A168A1122270A128A1104309B
:10025E00831603133A063B04031D362937293D291D
:10026E00CF300A168A1122270A128A118316031317
:10027E0039085806031D4529380857060319482919
:10028E004929CB29E830F7000330F8005808FA0066
:10029E005708F9000A128A15BC210A128A11780829
:1002AE0083120313AF007708AE006430F7000030FE
:1002BE00F800831603135808F3005708F200E830CD
:1002CE00F0000330F1000A128A1563210A128A1116
:1002DE007108FA007008F9000A128A15BC210A1278
:1002EE008A11780883120313B1007708B0008330A7
:1002FE000A168A1122270A128A112930F20080303A
:10030E00F3000A168A11A6270A128A1183300A16DA
:10031E008A1122270A128A112F3083120313AD007D
:10032E002D08A0002F08A2002E08A10090300A125E
:10033E008A111A200A128A119030F2000130F3004D
:10034E000A168A11A6270A128A112F308312031356
:10035E00AD002D08A0003108A2003008A100903099
:10036E000A128A111A200A128A119030F2000130F4
:10037E00F3000A168A11A6270A128A11831603138E
:10038E005808B9005708B8002F085606031DD12982
:10039E002E0855060319D429D529112AC3300A1659
:1003AE008A1122270A128A112330F2008030F300BC
:1003BE000A168A11A6270A128A11C3300A168A1142
:1003CE0022270A128A112F3083120313AD002D0833
:1003DE00A00083160313560883120313A20083167C
:1003EE000313550883120313A10090300A128A11C9
:1003FE001A200A128A119030F2000130F3000A1608
:10040E008A11A6270A128A11831603135608AF0003
:10041E005508AE002D085406031D172A2C08530646
:10042E0003191A2A1B2A572A8B300A168A112227D9
:10043E000A128A112330F2008030F3000A168A1154
:10044E00A6270A128A118B300A168A1122270A123F
:10045E008A112F3083120313AD002D08A0008316CE
:10046E000313540883120313A200831603135308B5
:10047E0083120313A10090300A128A111A200A1255
:10048E008A119030F2000130F3000A168A11A62765
:10049E000A128A11831603135408AD005308AC00D8
:1004AE0029082106031D5D2A280820060319602A43
:1004BE00612A9D2ACB300A168A1122270A128A1126
:1004CE002330F2008030F3000A168A11A6270A1292
:1004DE008A11CB300A168A1122270A128A112F305E
:1004EE0083120313AD002D08A000831603132108F9
:1004FE0083120313A200831603132008831203131F
:10050E00A10090300A128A111A200A128A11903014
:10051E00F2000130F3000A168A11A6270A128A1178
:10052E00831603132108A9002008A80008008312CF
:10053E0003133B088039BC003C08C5003B08BC00D7
:10054E003C07BD003D08CC00BA1FAE2AAF2AB02A28
:10055E004C144C080319B42AB52AC52A4C0A031D9B
:10056E00B92ABA2AC22A0030BB000030BA000030C5
:10057E00B9000030B800BA17BB01CD2A0030BB005D
:10058E000030BA000030B9000030B80037088039AA
:10059E00BC003C08C5063708BC003C07BD003D0842
:1005AE00CD00B61FDB2ADC2ADD2A4D144D080319B7
:1005BE00E12AE22AF22A4D0A031DE62AE72AEF2A49
:1005CE000030B7000030B6000030B5000030B40087
:1005DE00B617B701FA2A0030B7000030B600003067
:1005EE00B5000030B4003708360435043404031D5A
:1005FE00012B022B1B2B0030BB000030BA00003049
:10060E00B9000030B8008030BA047F30BB04450812
:10061E00BC003C08BB043B08B7003A08B6003908DA
:10062E00B5003808B4007A2C4C08031D1F2B202B64
:10063E00292B0030B7000030B6000030B500003076
:10064E00B4007A2C4C08BC00BD013D08BF004D081B
:10065E003C02BE00031CBF033E087F3EC6003F089F
:10066E000318013E003EC7003B08C4003A08C30011
:10067E003908C2003808C1000030BB000030BA0093
:10068E000030B9000030B8000030CB000030CA0096
:10069E000030C9000030C800CD019F2B4D08031952
:1006AE00592B5A2B7A2B0130BC000310C10DC20DF1
:1006BE00C30DC40DBC0B5C2B0130BC000310B80D78
:1006CE00B90DBA0DBB0DBC0B652BCB1F6F2B702B51
:1006DE00712B38140130BC000310C80DC90DCA0DA2
:1006EE00CB0DBC0B732B37084402031D882B360829
:1006FE004302031D882B35084202031D882B340844
:10070E004102031C8B2B8C2B9B2B4B173408C102E5
:10071E003508031C350FC2023608031C360FC30200
:10072E003708031C370FC4020130BC003C08CD074C
:10073E001A304D02031CA42BA52B552B4408430441
:10074E00420441040319AC2BAD2BCC2B4814CC2BFB
:10075E000130BC000310B80DB90DBA0DBB0DBC0BAA
:10076E00B12BCB1FBB2BBC2BBD2B38140130BC00C7
:10077E000310C80DC90DCA0DCB0DBC0BBF2BFF301E
:10078E00C6070318C70AFF30C707BA1FCF2BD02BD7
:10079E00AF2BCD01CB1FD42BD52BF12BFF30480522
:1007AE00BC00FF304905BD00FF304A05BE007F305A
:1007BE004B05BF003F083E043D043C040319E82BE3
:1007CE00E92BEC2BCD01CD0AF12B381CEF2BF02BA6
:1007DE00F12BE92B4D080319F52BF62B272C0130A5
:1007EE00B807003003180130B90700300318013084
:1007FE00BA07003003180130BB073B1C072C082C2E
:10080E00272C3808BC003908BD003A08BE003B084A
:10081E00BF000130C0003F0DBF0CBE0CBD0CBC0CA8
:10082E00C00B122C3F08BB003E08BA003D08B900B1
:10083E003C08B8000130C6070318C70A0030C707C6
:10084E004708803AFF0080307F02031D302CFF30B6
:10085E004602031C332C342C422CFF30831203131C
:10086E00C6000030C7000030BB000030BA000030B8
:10087E00B9000030B800831203134708803AFF0016
:10088E0080307F02031D4D2C013046020318502C80
:10089E00512C5E2C83120313C601C7010030BB001E
:1008AE000030BA000030B9000030B800C501831224
:1008BE0003134608BC003C08CC004C1C672C682C6B
:1008CE006A2CBA176E2C7F30BC003C08BA054C0857
:1008DE00BC0003103C0CBD003D08BB004508BC002D
:1008EE003C08BB04122B08008312031351088039F5
:1008FE00D6005608DB005108D6005607D700570819
:10090E00E100D01F8B2C8C2C8D2C611461080319E7
:10091E00912C922CA12C610A031D962C972C9F2CA6
:10092E000030D1000030D0000030CF000030CE00BB
:10093E00D017A92C0030D1000030D0000030CF00ED
:10094E000030CE0055088039D6005608DB06550813
:10095E00D6005607D7005708E000D41FB72CB82C86
:10096E00B92C601460080319BD2CBE2CCD2C600A66
:10097E00031DC22CC32CCB2C0030D5000030D4006C
:10098E000030D3000030D200D417D52C0030D50063
:10099E000030D4000030D3000030D20060080319BC
:1009AE00D92CDA2CDF2C6108031DDE2CDF2CE82C71
:1009BE000030D1000030D0000030CF000030CE002B
:1009CE00DB2F4E08D6005608F00054080A168A117E
:1009DE007F270A128A11710883120313E700700829
:1009EE00E6006608D600D701D801D9015908DF0004
:1009FE005808DE005708DD005608DC006708D600F0
:100A0E00D701D801D9015908E5005808E400570864
:100A1E00E3005608E2004F08D6005608F0005308CF
:100A2E000A168A117F270A128A117108831203137C
:100A3E00E7007008E6006608D600D701D801D90194
:100A4E005608DC07570803110318013E0319302D11
:100A5E00DD07580803110318013E0319372DDE0771
:100A6E00590803110318013E03193E2DDF076708CD
:100A7E00D600D701D801D9015608E207570803114D
:100A8E000318013E03194C2DE307580803110318F0
:100A9E00013E0319532DE407590803110318013EB3
:100AAE0003195A2DE5075008D6005608F0005208D3
:100ABE000A168A117F270A128A11710883120313EC
:100ACE00E7007008E6006608D600D701D801D90104
:100ADE005608DC07570803110318013E0319782D39
:100AEE00DD07580803110318013E03197F2DDE0799
:100AFE00590803110318013E0319862DDF076708F5
:100B0E00D600D701D801D9015608E20757080311BC
:100B1E000318013E0319942DE30758080311031817
:100B2E00013E03199B2DE407590803110318013EDA
:100B3E000319A22DE5070830D6000310DC0DDD0DDC
:100B4E00DE0DDF0DD60BA42D4F08D6005608F00093
:100B5E0052080A168A117F270A128A117108831207
:100B6E000313E7007008E6006608D6006708D70092
:100B7E00D801D9015608DC07570803110318013EA6
:100B8E000319CA2DDD07580803110318013E031976
:100B9E00D12DDE07590803110318013E0319D82D74
:100BAE00DF074E08D6005608F00053080A168A11C1
:100BBE007F270A128A11710883120313E700700847
:100BCE00E6006608D6006708D700D801D901560896
:100BDE00DC07570803110318013E0319F72DDD0733
:100BEE00580803110318013E0319FE2DDE0759089C
:100BFE0003110318013E0319052EDF070830D60036
:100C0E000310DC0DDD0DDE0DDF0DD60B072E4E08AD
:100C1E00D6005608F00052080A168A117F270A12CB
:100C2E008A11710883120313E7007008E600660844
:100C3E00D6006708D700D801D9015608DC07570837
:100C4E0003110318013E03192D2EDD075808031159
:100C5E000318013E0319342EDE0759080311031839
:100C6E00013E03193B2EDF074F08D6005608F00051
:100C7E0054080A168A117F270A128A1171088312E4
:100C8E000313E7007008E6006608D6006708D70071
:100C9E00D801D9015608E207570803110318013E7F
:100CAE0003195A2EE307580803110318013E0319BE
:100CBE00612EE407590803110318013E0319682E2B
:100CCE00E5075008D6005608F00053080A168A1198
:100CDE007F270A128A11710883120313E700700826
:100CEE00E6006608D6006708D700D801D901560875
:100CFE00E207570803110318013E0319872EE30775
:100D0E00580803110318013E03198E2EE4075908E3
:100D1E0003110318013E0319952EE5075008D6005E
:100D2E005608F00054080A168A117F270A128A11F3
:100D3E00710883120313E7007008E6006608D600F8
:100D4E006708D700D801D90108300310D60DD70D8A
:100D5E00D80DD90DFF3E031DAC2E5608E2075708DD
:100D6E0003110318013E0319BD2EE30758080311A2
:100D7E000318013E0319C42EE40759080311031882
:100D8E00013E0319CB2EE5075C08D6005D08D7009F
:100D9E005E08D8005F08D90018300310D90CD80CA3
:100DAE00D70CD60CFF3E031DD42E5608E20757086B
:100DBE0003110318013E0319E52EE307580803112A
:100DCE000318013E0319EC2EE4075908031103180A
:100DDE00013E0319F32EE5070830D6000310DC0D93
:100DEE00DD0DDE0DDF0DD60BF52E61086007D6008A
:100DFE00D701D70D5608823EE60057080318013E6C
:100E0E00FF3EE700272F0130D6000310E20DE30D61
:100E1E00E40DE50DD60B0C2FDF1F162F172F182FF5
:100E2E0062140130D6000310DC0DDD0DDE0DDF0D7A
:100E3E00D60B1A2FFF30E6070318E70AFF30E70735
:100E4E00E41F2A2F2B2F0A2FE001DF1F2F2F302F09
:100E5E004C2FFF305C05D600FF305D05D700FF300C
:100E6E005E05D8007F305F05D90059085804570435
:100E7E0056040319432F442F472FE001E00A4C2F4D
:100E8E00621C4A2F4B2F4C2F442F60080319502FF2
:100E9E00512F822F0130E207003003180130E30793
:100EAE00003003180130E407003003180130E50765
:100EBE00651C622F632F822F6208D6006308D7004D
:100ECE006408D8006508D9000130DA00590DD90C34
:100EDE00D80CD70CD60CDA0B6D2F5908E500580834
:100EEE00E4005708E3005608E2000130E607031855
:100EFE00E70A0030E7076708803AFF0080307F027C
:100F0E00031D8B2FFF306602031C8E2F8F2F9A2FFF
:100F1E007F3083120313E5008030E4000030E300DD
:100F2E000030E200CF2F831203136708803AFF00D0
:100F3E0080307F02031DA52F013066020318A82FF3
:100F4E00A92FB52F003083120313E5000030E40003
:100F5E000030E3000030E200DB01CF2F83120313D9
:100F6E006608D6005608E100FF30E205FF30E305C3
:100F7E007F30E4050030E505611CC62FC72FC82F52
:100F8E00E4176108D6000310560CD7005708E50089
:100F9E005B08D6005608E5046508D1006408D00049
:100FAE006308CF006208CE0008008313D930FD001D
:100FBE001630FE00FD30FF00D13084000A128A1177
:100FCE000B200A128A11831790308400B0300A1653
:100FDE008A11F5260A128A118313A0308400C830B4
:100FEE000A168A11F5260A128A1183010A128A1527
:100FFE00252AFF1B0A2883137F1883170008840AEB
:10100E000319FF0A080008308A000408840A8207C0
:10101E000034013400340A34003464340034E834CB
:10102E000334103427344B3450343A3420342034C3
:10103E002034203420344B3444343A340034543485
:10104E0050343A34203420344334203420344B345A
:10105E0049343A34003420342034203420342034BF
:10106E0000342034203443342034203400342534EA
:04107E0064340034A2
:10108800F40008307402031C4A284B284E28F0014B
:10109800F1017728C530F2007208831203139F0507
:1010A8007408F20002300310F20DFF3E031D5728AA
:1010B8000310720DF30073089F040330F300973098
:1010C800F200F20B6528F30B65286A2883120313D4
:1010D8001F151F19702871286D281E08F100831626
:1010E80003131E08F0000800831203138910091067
:1010F800891438300A168A1122270A128A153830BC
:101108000A168A1122270A128A1538300A168A11F5
:1011180022270A128A1508300A168A1122270A126B
:101128008A150F300A168A1122270A128A150130E9
:101138000A168A1122270A128A1538300A168A11C5
:1011480022270A128A1580300A168A1122270A12C3
:101158008A150800831203132608F9002708FA00E5
:101168002808FB002908FC0002300310F90DFA0DCD
:10117800FB0DFC0DFF3E031DB92802300310F90DCD
:10118800FA0DFB0DFC0DFF3E031DC2287C08F30081
:101198007B08F2007A08F1007908F0000030F700C7
:1011A8003D30F6000930F5000030F4000A128A15C7
:1011B80042230A128A157008FF3E83160313920011
:1011C8000800780879040319EA28EB281A29FD0190
:1011D800FD0AF92801300310F80DF90DFF3E031D33
:1011E800EF280130FC007C08FD07F91FFC28FD28CA
:1011F800EE2879087B02031D032978087A02031C6C
:10120800062907290D297808FA027908031CFB0327
:10121800FB0201300310F90CF80CFF3E031D0E29E8
:101228000130FD02031D19291A29FD287B08F90040
:101238007A08F8000800F501F6017008710403192E
:10124800262927295E29F701F70A352901300310D5
:10125800F00DF10DFF3E031D2B290130F400740839
:10126800F707F11F382939292A2901300310F50D0C
:10127800F60DFF3E031D3A2971087302031D462926
:1012880070087202031C49294A2951297008F20280
:101298007108031CF303F302751401300310F10CF9
:1012A800F00CFF3E031D52290130F702031D5D2992
:1012B8005E2939297608F1007508F0000800F60162
:1012C800F31F672968296F29F209F309F20A03193C
:1012D800F30AF601F60AF11F722973297829F00931
:1012E800F109F00A0319F10A7008710403197D293C
:1012F8007E29AD29F501F50A8C2901300310F00D7E
:10130800F10DFF3E031D82290130F4007408F50732
:10131800F11F8F299029812971087302031D9629CD
:1013280070087202031C99299A29A0297008F202F0
:101338007108031CF303F30201300310F10CF00CE5
:10134800FF3E031DA1290130F502031DAC29AD297B
:10135800902976080319B129B229B729F209F309A6
:10136800F20A0319F30A7308F1007208F000080082
:1013780083120313A101F81FC229C329CA29F70937
:10138800F809F70A0319F80AA101A10AFA1FCD29D9
:10139800CE29D729F909FA09F90A0319FA0A0130F5
:1013A800FB007B08A106A201A301770878040319B2
:1013B800DE29DF29162AA001A00AED290130031031
:1013C800F70DF80DFF3E031DE3290130FB007B08F4
:1013D800A007F81FF029F129E22901300310A20D16
:1013E800A30DFF3E031DF22978087A02031DFE298A
:1013F80077087902031C012A022A092A7708F902C8
:101408007808031CFA03FA02221401300310F80CBE
:10141800F70CFF3E031D0A2A0130A002031D152AFE
:10142800162AF129210803191A2A1B2A202AA20997
:10143800A309A20A0319A30A2308F8002208F7003F
:101448000800FF308316031385000F3086008701DC
:10145800880189010A168A1105270A128A150A16AF
:101468008A110E270A128A150A168A1117270A12D4
:101478008A150A128A1578200A128A1580300A16E7
:101488008A1122270A128A151730F2008030F300D9
:101498000A168A11A6270A128A15C0300A168A1156
:1014A80022270A128A150B30F2008030F3000A1640
:1014B8008A11A6270A128A150A128A1507260A12FD
:1014C8008A15831603135608F1005508F0000A160A
:1014D8008A1142270A128A15710883160313D60047
:1014E8007008D5005408F1005308F0000A168A1154
:1014F80042270A128A15710883160313D40070084C
:10150800D3003308F1003208F0000A168A11422786
:101518000A128A15710883160313B3007008B20003
:101528000A128A15CD260A128A150A168A11D12797
:101538000A128A150A128A1102210A128A15602AC9
:101548000A128A1100280310831203136A0D6B0D07
:1015580083160313C8004808FC007C08031DB52A3D
:10156800B62AC02A00308312EB000030EA000030AF
:10157800E9000030E800412B831203136808831642
:101588000313C80083120313690883160313C900E1
:10159800831203136A0883160313CA008312031302
:1015A8006B0883160313CB001F300310CB0CCA0C37
:1015B800C90CC80CFF3E031DD92A4808CC004C08AA
:1015C800FB0083120313EA17FF30E805FF30E90533
:1015D800FF30EA050030EB059630FC02FC1FF52AC7
:1015E800F62A132B7C08803A973E0318FC2AFD2A1A
:1015F800FE2AB62A013003108312EB0CEA0CE90C20
:10160800E80CFF3E031DFF2A013083160313C800B0
:101618004808FC07031D112B122BFE2A302B203003
:101628007C02031C182B192B2B2BB62A013083168E
:101638000313C800031083120313E80DE90DEA0D24
:10164800EB0D83160313C80B1E2B0130FC027C081C
:10165800031D2F2B302B1A2B7B080319342B352B0A
:10166800412B8312E809E909EA09EB09E80A031999
:10167800E90A0319EA0A0319EB0A0800831203139B
:10168800A101F31F482B492B562BF009F109F20948
:10169800F309F00A0319F10A0319F20A0319F30A04
:1016A800A101A10AF71F592B5A2B692BF409F50937
:1016B800F609F709F40A0319F50A0319F60A0319D2
:1016C800F70A0130F8007808A1060030A5000030BC
:1016D800A4000030A3000030A20073087204710453
:1016E80070040319782B792BC62BA001A00A892B2B
:1016F8000130F8000310F00DF10DF20DF30DF80BA9
:101708007E2B0130F8007808A007F31F8C2B8D2B57
:101718007C2B0130F8000310A20DA30DA40DA50D1C
:10172800F80B8F2B73087702031DA42B720876021F
:10173800031DA42B71087502031DA42B70087402E5
:10174800031CA72BA82BB72B7008F4027108031CE5
:10175800710FF5027208031C720FF6027308031C5E
:10176800730FF702221401300310F30CF20CF10C82
:10177800F00CFF3E031DB82B0130A002031DC52B42
:10178800C62B8D2B21080319CA2BCB2BD62BA209CC
:10179800A309A409A509A20A0319A30A0319A40AFB
:1017A8000319A50A2508F3002408F2002308F1000C
:1017B8002208F0000800831203136E08A6006F08C1
:1017C800A700A801A9010A128A15AE200A128A15D3
:1017D8000430831203136D02003003196C020318DE
:1017E800F62BF72B942C6C08A6006D08A700A8010F
:1017F800A90100300A128A154B250A128A1583128C
:1018080003132908BB002808BA002708B9002608CE
:10181800B8004430B7007F30B600C030B5000030A3
:10182800B4000A128A119E220A128A15831203131F
:101838003708D5003608D4003508D3003408D2005C
:101848000030F7003D30F6000930F5000030F400B4
:101858006F0883160313CE00831203136E088316D2
:101868000313CD000310CD0DCE0D0310CD0DCE0DFD
:101878004D08F0004E08F100F201F3010A128A1532
:1018880042230A128A15730883120313A9007208E7
:10189800A8007108A7007008A60001300A128A156E
:1018A8004B250A128A15831203132908D100280828
:1018B800D0002708CF002608CE000A128A117B2400
:1018C8000A128A15831203135108EB005008EA0024
:1018D8004F08E9004E08E8000A128A15A7220A12E2
:1018E8008A15831203136908ED006808EC009D123D
:1018F8006C187F2C832C831203131D16862C8312DD
:1019080003131D126C0883160313CD000230031055
:10191800CD0CFF3E031D8B2C4D08831203139B0037
:101928000800831203136E08A6006F08A700A80119
:10193800A9010A128A15AE200A128A1504308312E8
:1019480003136D02003003196C020318AC2CAD2C84
:101958004A2D6C08A6006D08A700A801A90100304F
:101968000A128A154B250A128A15831203132908AD
:10197800BB002808BA002708B9002608B800443078
:10198800B7007F30B600C030B5000030B4000A128E
:101998008A119E220A128A15831203133708D5006A
:1019A8003608D4003508D3003408D2000030F700D8
:1019B8003D30F6000930F5000030F4006F0883165A
:1019C8000313CE00831203136E0883160313CD008E
:1019D8000310CD0DCE0D0310CD0DCE0D4D08F0002A
:1019E8004E08F100F201F3010A128A1542230A1285
:1019F8008A15730883120313A9007208A8007108D6
:101A0800A7007008A60001300A128A154B250A1291
:101A18008A15831203132908D1002808D000270843
:101A2800CF002608CE000A128A117B240A128A15D2
:101A3800831203135108EB005008EA004F08E9002D
:101A48004E08E8000A128A15A7220A128A1583127C
:101A580003136908ED006808EC0097126C18352D1F
:101A6800392D8312031317163C2D831203131712F3
:101A78006C0883160313CD0002300310CD0CFF3E13
:101A8800031D412D4D08831203139500080083128E
:101A98000313AE002E080319522D532D672DA91FCD
:101AA800562D572D672D2609B0002709B1002809A2
:101AB800B2002909B300B00A0319B10A0319B20A1E
:101AC8000319B30A6F2D2908B3002808B2002708A4
:101AD800B1002608B0002908280427042604031D9D
:101AE800762D772D802D0030A9000030A800003019
:101AF800A7000030A600062E9630AA002A08AF00DC
:101B0800922D0130AA002A08AF0701300310B30C48
:101B1800B20CB10CB00CFF3E031D8A2DFE3033050C
:101B2800031D972D982D852DB42D0130AA002A0864
:101B3800AF070130B007003003180130B10700309B
:101B480003180130B207003003180130B307013021
:101B58000310B30CB20CB10CB00CFF3E031DAC2D3E
:101B6800FF303305031DB92DBA2D992DC62D01302F
:101B7800AF020130AA000310B00DB10DB20DB30DC4
:101B8800AA0BBF2DB21BC92DCA2DD02D02302F0292
:101B98000318CF2DD02DBB2D2F18D32DD42DDC2DF0
:101BA800FF30B005FF30B1057F30B205FF30B30517
:101BB8000310AF0C2F08AA00AB01AC01AD0118301F
:101BC8000310AA0DAB0DAC0DAD0DFF3E031DE42DAA
:101BD8002A08B0042B08B1042C08B2042D08B30459
:101BE8002E080319F82DF92DFE2DA91FFC2DFD2D0A
:101BF800FE2DB3173308A9003208A8003108A70042
:101C08003008A600080000308312031306180130BC
:101C180083160313C60046080319132E142E4C2EE0
:101C28004708031D182E192E4C2E3A033B04031D9A
:101C38001E2E1F2E252E6430D7070318D80A003011
:101C4800D80702303A063B04031D2B2E2C2E322EC9
:101C58000A30D5070318D60A0030D60703303A06EB
:101C68003B04031D382E392E3F2E0130D3070318AD
:101C7800D40A0030D40704303A063B04031D452E2D
:101C8800462E4C2E0130B2070318B30A0030B307B2
:101C98004608F0007008C700003083120313861846
:101CA800013083160313C400440803195C2E5D2E0B
:101CB800952E4508031D612E622E952E3A033B048E
:101CC800031D672E682E6E2E9C30D7070318D80A7E
:101CD800FF30D80702303A063B04031D742E752ED8
:101CE8007B2EF630D5070318D60AFF30D607033007
:101CF8003A063B04031D812E822E882EFF30D3071F
:101D08000318D40AFF30D40704303A063B04031DF5
:101D18008E2E8F2E952EFF30B2070318B30AFF3090
:101D2800B3074408F0007008C5000030831203139D
:101D38000619013083160313C2004208F000700828
:101D4800C30000308312031386190130831603136E
:101D5800C00040080319B12EB22EC82E4108031D39
:101D6800B62EB72EC82E0130BA070318BB0A0030AA
:101D7800BB0705303A063B04031DC32EC42EC82EEC
:101D88000130BA000030BB004008F0007008C10004
:101D9800080000300A128A1544200A128A157108B0
:101DA800F6007008F5000A30F7000030F8000A164F
:101DB8008A115A270A128A15750883160313CF0049
:101DC8007608D0000310D00CCF0C0310D00CCF0C29
:101DD8000310D00CCF0C4F086A3EBE005008031801
:101DE800013EFF3EBF000A30F7000030F8005808F7
:101DF800FA005708F9000A128A15BC210A128A1536
:101E0800831603133E087702B6003F08031C3F0AF7
:101E18007802B7005608F6005508F5003708F800AC
:101E28003608F7000A168A115A270A128A15760800
:101E380083160313A7007508A6005408F800530872
:101E4800F7003708F6003608F5000A168A115A27EF
:101E58000A128A15750883120313A6007608A700CC
:101E68000030A71BFF30A800A90001300A128A150C
:101E78004B250A128A15831203132908D50028084E
:101E8800D4002708D3002608D2003D30D100CC303A
:101E9800D000CC30CF00CD30CE000A128A117B247E
:101EA8000A128A15831203135108EB005008EA003E
:101EB8004F08E9004E08E8000A128A15A7220A12FC
:101EC8008A1583120313680883160313A4070318DB
:101ED800A50A83120313690883160313A507330899
:101EE800F8003208F7003E083C02F5003F08031CE2
:101EF8003F0A3D02F6000A168A115A270A128A1565
:101F0800750883120313A6007608A7000030A71BE4
:101F1800FF30A800A90001300A128A154B250A12C1
:101F28008A15831203132908BB002808BA0027085A
:101F3800B9002608B8003D30B700CC30B600CC3028
:101F4800B500CD30B4000A128A119E220A128A15F1
:101F5800831203133708EB003608EA003508E90056
:101F68003408E8000A128A15A7220A128A15831271
:101F78000313680883160313A2070318A30A83121E
:101F88000313690883160313A3073F08BD003E081F
:101F9800BC0024082607CF0025080318250A2707B0
:101FA800D00022084F07A00023080318230A50076F
:101FB800A1002108F1002008F0000A168A11422722
:101FC8000A128A15710883160313A1007008A0006D
:101FD800210883120313ED008316031320088312CC
:101FE8000313EC00A030EE000F30EF000A128A1540
:081FF80095240A128A15080065
:102DDE00F00070088312031388000800640080015D
:102DEE00840A0406031900340406F62E0A3400344D
:102DFE000234003432340034A0340F348030831661
:102E0E0003139F00C130831203139F000800831227
:102E1E0003139715171512158316031307110800C0
:102E2E00831203139D151D1512149210121583167D
:102E3E00031387100800F10083120313891471081D
:102E4E000A168A11EF260A168A1183120313091025
:102E5E00891089140800F100831203138914710874
:102E6E000A168A11EF260A168A1183120313091401
:102E7E00891089140800F11F452F462F482FF001A5
:102E8E00F1017108803AFF0084307F02031D512F3B
:102E9E0000307002031C542F552F592FFF30F000B5
:102EAE000330F1000800F901FA01751C5F2F602F45
:102EBE00662F7708F9070318FA0A7808FA0701301F
:102ECE000310F70DF80DFF3E031D672F01300310A1
:102EDE00F60CF50CFF3E031D6E2F75087604031DD0
:102EEE00792F7A2F5C2F7A08F6007908F500080002
:102EFE00F800F401F5017008F200F3017208F60013
:102F0E007308F700781C8C2F8D2F932F7608F407FB
:102F1E000318F50A7708F50701300310F60DF70DC3
:102F2E00FF3E031D942F0310F80C7808031DA02FED
:102F3E00A12F892F7508F1007408F0000800F50123
:102F4E00BD2F75087207840073080318730AFF00FB
:102F5E000A128A1500200A168A110A168A113227B9
:102F6E000A168A110130F4007408F5077508720705
:102F7E00840073080318730A83120313FF000A12E6
:102F8E008A1500200A168A11003A031DCF2FD02F62
:102F9E00A82F080001300A128A1544200A168A1139
:102FAE00710883160313D0007008CF005008F1008B
:102FBE004F08F0000A168A1142270A168A11710864
:102FCE0083160313D0007008CF005008831203132A
:102FDE00ED00831603134F0883120313EC00A03089
:102FEE00EE000F30EF000A128A15DF230A168A113F
:022FFE000800C9
:02400E003A3F37
:00000001FF
