:060000000A128A11DB2F39
:10000E00831203139D151D151214921012158316CB
:10001E0003138710080083120313A101F81F182879
:10002E0019282028F709F809F70A0319F80AA10177
:10003E00A10AFA1F232824282D28F909FA09F90AFA
:10004E000319FA0A0130FB007B08A106A201A301E5
:10005E00770878040319342835286C28A001A00AE3
:10006E00432801300310F70DF80DFF3E031D39280C
:10007E000130FB007B08A007F81F462847283828C8
:10008E0001300310A20DA30DFF3E031D4828780872
:10009E007A02031D542877087902031C5728582822
:1000AE005F287708F9027808031CFA03FA02221473
:1000BE0001300310F80CF70CFF3E031D60280130D1
:1000CE00A002031D6B286C284728210803197028ED
:1000DE0071287628A209A309A20A0319A30A2308E4
:1000EE00F8002208F7000800831203133F08803936
:1000FE00C4004408C9003F08C4004407C5004508B1
:10010E00CF00BE1F8B288C288D284F144F08031943
:10011E0091289228A1284F0A031D962897289F28D8
:10012E000030BF000030BE000030BD000030BC000B
:10013E00BE17A9280030BF000030BE000030BD0041
:10014E000030BC0043088039C4004408C906430887
:10015E00C4004407C5004508CE00C21FB728B82802
:10016E00B9284E144E080319BD28BE28CD284E0AB4
:10017E00031DC228C328CB280030C3000030C200A4
:10018E000030C1000030C000C217D5280030C300B7
:10019E000030C2000030C1000030C0004E0803190C
:1001AE00D928DA28DF284F08031DDE28DF28E828A3
:1001BE000030BF000030BE000030BD000030BC007B
:1001CE00DB2B3C08C4004408F00042080A168A11D2
:1001DE0004220A128A11710883120313D5007008C3
:1001EE00D4005408C400C501C601C7014708CD009C
:1001FE004608CC004508CB004408CA005508C40088
:10020E00C501C601C7014708D3004608D2004508FC
:10021E00D1004408D0003D08C4004408F000410855
:10022E000A168A1104220A128A1171088312031304
:10023E00D5007008D4005408C400C501C601C7011A
:10024E004408CA07450803110318013E0319302953
:10025E00CB07460803110318013E03193729CC07B3
:10026E00470803110318013E03193E29CD0755080F
:10027E00C400C501C601C7014408D00745080311D3
:10028E000318013E03194C29D10746080311031820
:10029E00013E03195329D207470803110318013EE3
:1002AE0003195A29D3073E08C4004408F000400839
:1002BE000A168A1104220A128A1171088312031374
:1002CE00D5007008D4005408C400C501C601C7018A
:1002DE004408CA07450803110318013E031978297B
:1002EE00CB07460803110318013E03197F29CC07DB
:1002FE00470803110318013E03198629CD07550837
:10030E00C400C501C601C7014408D0074508031142
:10031E000318013E03199429D10746080311031847
:10032E00013E03199B29D207470803110318013E0A
:10033E000319A229D3070830C4000310CA0DCB0D30
:10034E00CC0DCD0DC40BA4293D08C4004408F0000B
:10035E0040080A168A1104220A128A1171088312A1
:10036E000313D5007008D4005408C4005508C50006
:10037E00C601C7014408CA07450803110318013E08
:10038E000319CA29CB07460803110318013E0319A6
:10039E00D129CC07470803110318013E0319D829A8
:1003AE00CD073C08C4004408F00041080A168A1123
:1003BE0004220A128A11710883120313D5007008E1
:1003CE00D4005408C4005508C500C601C70144082E
:1003DE00CA07450803110318013E0319F729CB0775
:1003EE00460803110318013E0319FE29CC074708DE
:1003FE0003110318013E0319052ACD070830C40066
:10040E000310CA0DCB0DCC0DCD0DC40B072A3C0825
:10041E00C4004408F00040080A168A1104220A1289
:10042E008A11710883120313D5007008D400540882
:10043E00C4005508C500C601C7014408CA074508CF
:10044E0003110318013E03192D2ACB074608031189
:10045E000318013E0319342ACC0747080311031869
:10046E00013E03193B2ACD073D08C4004408F000A5
:10047E0042080A168A1104220A128A11710883127E
:10048E000313D5007008D4005408C4005508C500E5
:10049E00C601C7014408D007450803110318013EE1
:1004AE0003195A2AD107460803110318013E0319EE
:1004BE00612AD207470803110318013E0319682A5F
:1004CE00D3073E08C4004408F00041080A168A11FA
:1004DE0004220A128A11710883120313D5007008C0
:1004EE00D4005408C4005508C500C601C70144080D
:1004FE00D007450803110318013E0319872AD107B7
:10050E00460803110318013E03198E2AD207470825
:10051E0003110318013E0319952AD3073E08C400A0
:10052E004408F00042080A168A1104220A128A119F
:10053E00710883120313D5007008D4005408C40048
:10054E005508C500C601C70108300310C40DC50DFE
:10055E00C60DC70DFF3E031DAC2A4408D007450843
:10056E0003110318013E0319BD2AD10746080311D2
:10057E000318013E0319C42AD207470803110318B2
:10058E00013E0319CB2AD3074A08C4004B08C50005
:10059E004C08C6004D08C70018300310C70CC60C17
:1005AE00C50CC40CFF3E031DD42A4408D0074508D1
:1005BE0003110318013E0319E52AD107460803115A
:1005CE000318013E0319EC2AD2074708031103183A
:1005DE00013E0319F32AD3070830C4000310CA0DD5
:1005EE00CB0DCC0DCD0DC40BF52A4F084E07C40014
:1005FE00C501C50D4408823ED40045080318013ECE
:10060E00FF3ED500272B0130C4000310D00DD10DB5
:10061E00D20DD30DC40B0C2BCD1F162B172B182B55
:10062E0050140130C4000310CA0DCB0DCC0DCD0DEE
:10063E00C40B1A2BFF30D4070318D50AFF30D50789
:10064E00D21F2A2B2B2B0A2BCE01CD1F2F2B302B5B
:10065E004C2BFF304A05C400FF304B05C500FF3060
:10066E004C05C6007F304D05C700470846044504BB
:10067E0044040319432B442B472BCE01CE0A4C2B9B
:10068E00501C4A2B4B2B4C2B442B4E080319502B32
:10069E00512B822B0130D007003003180130D107C7
:1006AE00003003180130D207003003180130D30791
:1006BE00531C622B632B822B5008C4005108C500BB
:1006CE005208C6005308C7000130C800470DC70CBA
:1006DE00C60CC50CC40CC80B6D2B4708D3004608BE
:1006EE00D2004508D1004408D0000130D4070318C9
:1006FE00D50A0030D5075508803AFF0080307F02BA
:10070E00031D8B2BFF305402031C8E2B8F2B9A2B29
:10071E007F3083120313D3008030D2000030D1001B
:10072E000030D000CF2B831203135508803AFF0000
:10073E0080307F02031DA52B013054020318A82B15
:10074E00A92BB52B003083120313D3000030D20037
:10075E000030D1000030D000C901CF2B831203131B
:10076E005408C4004408CF00FF30D005FF30D10537
:10077E007F30D2050030D3054F1CC62BC72BC82B9C
:10078E00D2174F08C4000310440CC5004508D3000F
:10079E004908C4004408D3045308BF005208BE00E1
:1007AE005108BD005008BC0008000A30F7000030A8
:1007BE00F80000300A168A1156220A128A117108A0
:1007CE00F6007008F5000A168A11DF210A128A1146
:1007DE00750883160313C3007608C4000310C40CF7
:1007EE00C30C0310C40CC30C0310C40CC30C43087D
:1007FE006A3EC50044080318013EFF3EC600450888
:10080E00C7004608C800C901CA014A08831203136B
:10081E00B10083160313490883120313B000831625
:10082E000313480883120313AF00831603134708FC
:10083E0083120313AE0000300A168A11B0250A1275
:10084E008A1183120313310883160313DC008312FB
:10085E000313300883160313DB00831203132F08D0
:10086E0083160313DA00831203132E088316031361
:10087E00D9005C08A3005B08A2005A08A100590821
:10088E00A0006D08FA006C08F9000A30F70000307D
:10089E00F8000A128A1112200A128A11770883129E
:1008AE000313AE007808AF000030AF1BFF30B0006E
:1008BE00B10001300A168A11B0250A128A1183126C
:1008CE000313310883160313A70083120313300892
:1008DE0083160313A600831203132F088316031324
:1008EE00A500831203132E0883160313A4000A1601
:1008FE008A11AA230A128A11831603132308831658
:10090E000317A30083160313220883160317A200EE
:10091E0083160313210883160317A10083160313EE
:10092E00200883160317A000230883120313BF00A9
:10093E0083160317220883120313BE0083160317B0
:10094E00210883120313BD00831603172008831298
:10095E000313BC00831603136A0883120313AE003D
:10096E00831603136B0883120313AF000030AF1B03
:10097E00FF30B000B10001300A168A11B0250A12FC
:10098E008A11831203133108C3003008C2002F08E6
:10099E00C1002E08C0000A128A117B200A128A1189
:1009AE00831203133F08831603179F00831203134A
:1009BE003E08831603179E00831203133D08831609
:1009CE0003179D00831203133C08831603179C0024
:1009DE0083160313680883120313AE0083160313E2
:1009EE00690883120313AF000030AF1BFF30B00055
:1009FE00B10001300A168A11B0250A128A1183122B
:100A0E0003133108C3003008C2002F08C1002E089E
:100A1E00C00083160317230883120313BF00831627
:100A2E000317220883120313BE008316031721082F
:100A3E0083120313BD0083160317200883120313BA
:100A4E00BC000A128A117B200A128A118312031328
:100A5E003F0883160313CE00831203133E0883163A
:100A6E000313CD00831203133D0883160313CC002A
:100A7E00831203133C0883160313CB004E08831214
:100A8E000313C300831603134D0883120313C2000E
:100A9E00831603134C0883120313C100831603132A
:100AAE004B0883120313C0003D30BF00CC30BE0094
:100ABE00CC30BD00CD30BC000A128A117B200A1248
:100ACE008A11831203133F08D9003E08D8003D084F
:100ADE00D7003C08D600831603171B088312031396
:100AEE00DD00831603171A0883120313DC00831626
:100AFE000317190883120313DB0083160317180854
:100B0E0083120313DA000A128A1578250A128A1143
:100B1E00831203135908831603179B0083120313C2
:100B2E005808831603179A00831203135708831667
:100B3E0003179900831203135608831603179800A0
:100B4E00270883160313A700831603172608831698
:100B5E000313A60083160317250883160313A50097
:100B6E0083160317240883160313A4005C08A3003E
:100B7E005B08A2005A08A1005908A0000A168A11A3
:100B8E00AA230A128A11831603132308831203134E
:100B9E00C30083160313220883120313C2008316A5
:100BAE000313210883120313C100831603132008B5
:100BBE0083120313C000831603135D0883120313FD
:100BCE00AE00831603135E0883120313AF000030CA
:100BDE00AF1BFF30B000B10001300A168A11B025EC
:100BEE000A128A11831203133108BF003008BE00A7
:100BFE002F08BD002E08BC000A128A117B200A1293
:100C0E008A11831203133F0883160313AF00831256
:100C1E0003133E0883160313AE00831203133D081D
:100C2E0083160313AD00831203133C0883160313BC
:100C3E00AC003D30AB00CC30AA00CC30A900CD309A
:100C4E00A8000A128A1515230A128A118316031395
:100C5E002B08D2002A08D1002908D0002808CF007E
:100C6E00520883120313D9008316031351088312FB
:100C7E000313D80083160313500883120313D700EF
:100C8E00831603134F0883120313D600831603171C
:100C9E00170883120313DD00831603171608831239
:100CAE000313DC0083160317150883120313DB00EE
:100CBE0083160317140883120313DA000A128A1517
:100CCE0078250A128A118312031359088316031703
:100CDE009700831203135808831603179600831286
:100CEE000313570883160317950083120313560830
:100CFE00831603179400831603135C0883160317D9
:100D0E00A700831603135B0883160317A60083162A
:100D1E0003135A0883160317A500831603135908E5
:100D2E0083160317A4001B0883120313D90083161E
:100D3E0003171A0883120313D80083160317190812
:100D4E0083120313D7008316031718088312031395
:100D5E00D600831603171F0883120313DD008316B4
:100D6E0003171E0883120313DC00831603171D08D6
:100D7E0083120313DB00831603171C08831203135D
:100D8E00DA000A128A1578250A128A1183120313C1
:100D9E00590883160313D6008312031358088316BB
:100DAE000313D50083120313570883160313D400BD
:100DBE0083120313560883160313D3004030AB007F
:100DCE008030AA000030A9000030A8008316031757
:100DDE00170883120313D9008316031716088312FC
:100DEE000313D80083160317150883120313D700B5
:100DFE0083160317140883120313D60083160313E6
:100E0E00560883120313DD0083160313550883124D
:100E1E000313DC0083160313540883120313DB0041
:100E2E0083160313530883120313DA000A128A156A
:100E3E0078250A128A118312031359088316031395
:100E4E00AF0083120313580883160313AE008312E8
:100E5E000313570883160313AD00831203135608AA
:100E6E0083160313AC000A128A1515230A128A116F
:100E7E00831603132B08831603179300831603138D
:100E8E002A08831603179200831603132908831664
:100E9E000317910083160313280883160317900077
:100EAE00130883120313A900831603171208831263
:100EBE000313A80083160317110883120313A70048
:100ECE0083160317100883120313A6000A168A113D
:100EDE00FA230A128A11831203132708AD0026087B
:100EEE00AC000A168A11C3210A128A118312031347
:100EFE002C08AE002D08AF000030AF1BFF30B00045
:100F0E00B10001300A168A11B0250A128A11831215
:100F1E00031331088316031793008312031330084B
:100F2E00831603179200831203132F0883160317D9
:100F3E009100831203132E088316031790001308D3
:100F4E0083120313A90083160317120883120313C7
:100F5E00A80083160317110883120313A700831624
:100F6E000317100883120313A6000A168A11FA2318
:100F7E000A128A1183120313270883160313D8004B
:100F8E0083120313260883160313D7005808BE00D6
:100F9E005708BD00A030BF000F30C0000A128A15DE
:100FAE0049210A128A1108008313F030FD00113016
:100FBE00FE007F30FF00E83084000A168A11B4214B
:100FCE000A128A11831790308400CA300A168A11C9
:100FDE0077210A128A118313D9308400E8300A1659
:100FEE008A1177210A128A11EF0183010A168A11DA
:020FFE006C2E57
:101006008312031397151715121583160313071169
:101016000800F601F31F102811281828F209F30911
:10102600F20A0319F30AF601F60AF11F1B281C2817
:101036002128F009F109F00A0319F10A7008710470
:101046000319262827285628F501F50A35280130E0
:101056000310F00DF10DFF3E031D2B280130F400A7
:101066007408F507F11F382839282A2871087302F1
:10107600031D3F2870087202031C42284328492892
:101086007008F2027108031CF303F3020130031027
:10109600F10CF00CFF3E031D4A280130F502031D3A
:1010A600552856283928760803195A285B286028B7
:1010B600F209F309F20A0319F30A7308F100720838
:1010C600F0000800831603133F0883120313A600DB
:1010D60083160313400883120313A700A801A9016E
:1010E6000A168A11F5220A128A150430831603138A
:1010F6003E02003003193D0203188228832848293E
:101106003D0883120313AE00831603133E088312B1
:101116000313AF00B001B10100300A168A11B025E1
:101126000A128A1583120313310883160313AF00BC
:1011360083120313300883160313AE0083120313BE
:101146002F0883160313AD00831203132E0883168C
:101156000313AC004430AB007F30AA00C030A900B6
:101166000030A8000A128A1515230A128A1583165A
:1011760003132B0883120313C300831603132A08D1
:1011860083120313C2008316031329088312031361
:10119600C10083160313280883120313C00000300E
:1011A600F7003D30F6000930F5000030F4008316F4
:1011B60003134008C2003F08C1000310C10DC20D51
:1011C6000310C10DC20D4108F0004208F100F20102
:1011D600F3010A168A1176240A128A1573088312F5
:1011E6000313B1007208B0007108AF007008AE00BA
:1011F60001300A168A11B0250A128A1583120313C2
:101206003108BF003008BE002F08BD002E08BC0004
:101216000A128A117B200A128A15831203133F08C9
:10122600A9003E08A8003D08A7003C08A6000A162B
:101236008A11FA230A128A158312031327088316C2
:101246000313BE0083120313260883160313BD007F
:10125600831203139D12831603133D18332937296E
:10126600831203131D163A29831203131D128316C4
:1012760003133D08C10002300310C10CFF3E031DDD
:101286003F294108831203139B00080083160313AA
:101296003F0883120313A600831603134008831224
:1012A6000313A700A801A9010A168A11F5220A123A
:1012B6008A150430831603133E02003003193D02DB
:1012C6000318662967292C2A3D0883120313AE00EA
:1012D600831603133E0883120313AF00B001B10156
:1012E60000300A168A11B0250A128A1583120313D2
:1012F600310883160313AF008312031330088316D5
:101306000313AE00831203132F0883160313AD00D5
:10131600831203132E0883160313AC004430AB006C
:101326007F30AA00C030A9000030A8000A128A1532
:1013360015230A128A15831603132B088312031327
:10134600C300831603132A0883120313C2008316ED
:101356000313290883120313C100831603132808F5
:1013660083120313C0000030F7003D30F600093049
:10137600F5000030F400831603134008C2003F084E
:10138600C1000310C10DC20D0310C10DC20D4108ED
:10139600F0004208F100F201F3010A168A117624E0
:1013A6000A128A15730883120313B1007208B0007B
:1013B6007108AF007008AE0001300A168A11B02518
:1013C6000A128A15831203133108BF003008BE00C3
:1013D6002F08BD002E08BC000A128A117B200A12B3
:1013E6008A15831203133F08A9003E08A8003D088A
:1013F600A7003C08A6000A168A11FA230A128A15C3
:1014060083120313270883160313BE0083120313E4
:10141600260883160313BD0083120313971283163F
:1014260003133D18172A1B2A8312031317161E2AA5
:10143600831203131712831603133D08C1000230EB
:101446000310C10CFF3E031D232A41088312031318
:101456009500080083120313AB002130A300230874
:10146600A600FE2A25302C0603193A2A3B2A472ACB
:101476002C08A3002B088400230883178000013062
:10148600A3002308AB07FE2AA7010130A007FF30FF
:10149600200784000A168A110A200A128A15AC004F
:1014A600A300A4012408003A03195A2AFE2A230895
:1014B600003A0319102B643A0319652A0D3A0319E9
:1014C600652AFE2A2608840083130008A900840AD8
:1014D6000008AA000230A3002308A607AA1F742A40
:1014E600752A7E2A0330A3002308A704A909AA099E
:1014F600A90A0319AA0AAC01AC0A2C08A3002307FF
:10150600013E84000A168A110A200A128A15A400CE
:101516000A168A110A200A128A15A50025082A0227
:10152600031D972A2408290203189A2A9B2A9C2A13
:10153600A62A0130A3002308AC0705302C06031D9C
:10154600A52AA62A802A270803390319AB2AAC2A1A
:10155600B72A2D30A3002B088400230883178000A8
:101566000130A3002308AB072C08A3002308A8001A
:10157600F52A0A30F8000030F9002808A3002307EE
:10158600013E84000A168A110A200A128A15F00002
:101596000A168A110A200A128A15F1002A08F3008F
:1015A6002908F2000A168A1166230A128A1571089A
:1015B600FB007008FA000A168A112C230A128A15F3
:1015C6007808303E83120313A4002408AC002C08CC
:1015D600A3002B0884002308831780000130A30092
:1015E6002308AB07FF30A3002308A807280A031D1A
:1015F600FD2AFE2ABC2A0130A007FF3020078400FE
:101606000A168A110A200A128A15A3002308AC00BA
:101616002C08031D0F2B102B352A2B08840083174B
:1016260080010800831603132F08803983120313E1
:10163600EA006A0883160313B4002F088312031303
:10164600EA006A07EB006B0883160313BB00AE1FA4
:101656002D2B2E2B2F2B3B143B080319332B342B0E
:10166600442B3B0A031D382B392B412B0030AF008E
:101676000030AE000030AD000030AC00AE17AF0158
:101686004C2B0030AF000030AE000030AD00003013
:10169600AC002B08803983120313EA006A0883160C
:1016A6000313B4062B0883120313EA006A07EB0040
:1016B6006B0883160313BC00AA1F622B632B642BD3
:1016C6003C143C080319682B692B792B3C0A031D33
:1016D6006D2B6E2B762B0030AB000030AA0000304D
:1016E600A9000030A800AA17AB01812B0030AB007F
:1016F6000030AA000030A9000030A8002B082A04F8
:1017060029042804031D882B892BA62B0030AF0043
:101716000030AE000030AD000030AC008030AE04CA
:101726007F30AF04340883120313EA006A08831675
:101736000313AF042F08AB002E08AA002D08A9003A
:101746002C08A800772D3B08031DAA2BAB2BB42B26
:101756000030AB000030AA000030A9000030A8001D
:10176600772D3B0883120313EA00EB016B08ED00AB
:10177600831603133C08831203136A02EC00031C4E
:10178600ED036C087F3E83160313B5008312031323
:101796006D080318013E003E83160313B6002F089A
:1017A600B3002E08B2002D08B1002C08B00000309E
:1017B600AF000030AE000030AD000030AC000030AD
:1017C600BA000030B9000030B8000030B700BC01E4
:1017D6004E2C3C080319F02BF12B232C01308312DD
:1017E6000313EA00031083160313B00DB10DB20DF7
:1017F600B30D83120313EA0BF52B0130EA00031035
:1018060083160313AC0DAD0DAE0DAF0D831203138E
:10181600EA0B022C83160313BA1F122C132C142C5A
:101826002C14013083120313EA00031083160313EA
:10183600B70DB80DB90DBA0D83120313EA0B182CA8
:10184600831603132B083302031D332C2A08320296
:10185600031D332C29083102031D332C28083002BE
:10186600031C362C372C462C3A172808B0022908B8
:10187600031C290FB1022A08031C2A0FB2022B08E7
:10188600031C2B0FB302013083120313EA006A080C
:1018960083160313BC071A303C02031C532C542C2A
:1018A600EC2B330832043104300403195B2C5C2C16
:1018B6008B2C37148B2C013083120313EA00031090
:1018C60083160313AC0DAD0DAE0DAF0D83120313CE
:1018D600EA0B622C83160313BA1F722C732C742C1A
:1018E6002C14013083120313EA000310831603132A
:1018F600B70DB80DB90DBA0D83120313EA0B782C88
:10190600FF3083160313B5070318B60AFF30B60770
:10191600AE1F8E2C8F2C5E2CBC01BA1F932C942CE0
:10192600C22CFF30370583120313EA00FF308316FB
:101936000313380583120313EB00FF3083160313DA
:10194600390583120313EC007F30831603133A051F
:1019560083120313ED006D086C046B046A0403190B
:10196600B52CB62CBB2C83160313BC01BC0AC22CA7
:10197600831603132C1CC02CC12CC22CB62C3C087D
:101986000319C62CC72C142D0130AC0700300318E0
:101996000130AD07003003180130AE0700300318E0
:1019A6000130AF072F1CD82CD92C142D2C088312EC
:1019B6000313EA00831603132D0883120313EB00A7
:1019C600831603132E0883120313EC0083160313E6
:1019D6002F0883120313ED000130EE006D0DED0CA0
:1019E600EC0CEB0CEA0CEE0BF12C6D0883160313D2
:1019F600AF00831203136C0883160313AE00831221
:101A060003136B0883160313AD00831203136A08CE
:101A160083160313AC000130B5070318B60A00306D
:101A2600B6073608803AFF0080307F02031D1D2D61
:101A3600FF303502031C202D212D2F2DFF3083165C
:101A46000313B5000030B6000030AF000030AE0022
:101A56000030AD000030AC00831603133608803A20
:101A6600FF0080307F02031D3A2D01303502031836
:101A76003D2D3E2D4B2D83160313B501B6010030C7
:101A8600AF000030AE000030AD000030AC00B40155
:101A960083160313350883120313EA006A088316B4
:101AA6000313BB003B1C582D592D5B2DAE17632D20
:101AB6007F3083120313EA006A0883160313AE0508
:101AC6003B0883120313EA0003106A0CEB006B0851
:101AD60083160313AF00340883120313EA006A085F
:101AE60083160313AF049D2B0800831203135908B2
:101AF6008039DE005E08E6005908DE005E07DF007A
:101B06005F08E800D81F882D892D8A2D681468087B
:101B160003198E2D8F2D9F2D680A031D932D942D4D
:101B26009C2D0030D9000030D8000030D70000309E
:101B3600D600D817D901A72D0030D9000030D8001B
:101B46000030D7000030D6005D088039DE005E0820
:101B5600E700670866060319B12DB22DB32D661787
:101B66005D08DE005E07DF005F08E700DC1FBC2DB6
:101B7600BD2DBE2D671467080319C22DC32DD32DA5
:101B8600670A031DC72DC82DD02D0030DD0000309B
:101B9600DC000030DB000030DA00DC17DD01DB2D75
:101BA6000030DD000030DC000030DB000030DA0001
:101BB600680867020318E02DE12D252E661FE42D27
:101BC600E52DE92D8030DE005E08E6066808DE00B9
:101BD6005E08E9006708DE005E08E8006908DE00C6
:101BE6005E08E7005608DE005E08E9005A08DE00D7
:101BF6005E08D6006908DE005E08DA005708DE00D7
:101C06005E08E9005B08DE005E08D7006908DE00B2
:101C16005E08DB005808DE005E08E9005C08DE00AE
:101C26005E08D8006908DE005E08DC005908DE00A0
:101C36005E08E9005D08DE005E08D9006908DE007E
:101C46005E08DD00E9016708DE00DF015F08E100EC
:101C560068085E02E000031CE1036108803AFF00A9
:101C660080307F02031D392E1A306002031C3C2E81
:101C76003D2E7A2E8312031359085804570456042E
:101C8600031D462E482E0130492E0030DE005E0828
:101C9600E9000030D9000030D8000030D70000300D
:101CA600D6006708DE005E08E800822E691C5C2EFE
:101CB6005D2E662E6908DE0003105E0C0138DF001B
:101CC6005F08E900682E0310E90C561C6B2E6C2E7B
:101CD6006D2EE9170130DE00590DD90CD80CD70C42
:101CE600D60CDE0B6F2E0130DE005E08E80783128D
:101CF600031367086802031C812E822E592E661B69
:101D0600852E862ED12E6808031D8A2E8B2E942EA4
:101D16000030D9000030D8000030D7000030D6009F
:101D2600FF2F5A08D6075B0803110318013E031953
:101D36009D2ED7075C0803110318013E0319A42E34
:101D4600D8075D0803110318013E0319AB2ED90706
:101D5600591CAE2EAF2E852F691CB22EB32EBC2E6B
:101D66006908DE0003105E0C0138DF005F08E90039
:101D7600BE2E0310E90C561CC12EC22EC32EE91727
:101D86000130DE00590DD90CD80CD70CD60CDE0B61
:101D9600C52E0130DE005E08E807852F5908803A17
:101DA600FF005D08803A7F02031DE32E5C0858029F
:101DB600031DE32E5B085702031DE32E5A08560245
:101DC6000318E62EE72E3F2FFF30DE00FF30DF0040
:101DD600FF30E000FF30E1005A08E2005B08E30054
:101DE6005C08E4005D08E5005608E2025708031C9B
:101DF600570FFE2EFF2EE3025808031C580F042F20
:101E0600052FE4025908031C590F0A2F0B2FE50270
:101E16006208DE0763080318630F122F132FDF070C
:101E260064080318640F182F192FE00765080318B4
:101E3600650AE1076108D9006008D8005F08D70085
:101E46005E08D6008030DE005E08E606E909E90A8B
:101E56006908031D2F2F302F4D2F0130D607003074
:101E660003180130D707003003180130D8070030B7
:101E760003180130D9074D2F5A08D6025B08031CF8
:101E86005B0FD7025C08031C5C0FD8025D08031CBD
:101E96005D0FD9025908580457045604031D542FE0
:101EA600552F812F6908031D592F5A2F812F003076
:101EB600D9000030D8000030D7000030D600FF2F00
:101EC6000130DE000310D60DD70DD80DD90DDE0B6F
:101ED600652FE91F6F2F702F712F5614691C742FF1
:101EE600752F782F0314E90D7A2F0310E90D680872
:101EF60003197E2F7F2F812F0130E802D81F842FF0
:101F0600852F632FE701E91F892F8A2F982F6908EC
:101F16007F3903198F2F902F932FE701E70A982F08
:101F2600561C962F972F982F902F670803199C2FD2
:101F36009D2FD12F0130D607003003180130D70767
:101F4600003003180130D807003003180130D907D4
:101F5600591CAE2FAF2FD12F5608DE005708DF00D1
:101F66005808E0005908E1000130E200610DE10C7B
:101F7600E00CDF0CDE0CE20BB92F6108D90060081B
:101F8600D8005F08D7005E08D600680A0319CC2F70
:101F9600CD2FD12F0130DE005E08E807680A03194D
:101FA600D52FD62FDB2F6808031DDA2FDB2FE92F5D
:101FB6000030D9000030D8000030D7000030D600FD
:101FC6006808031DE72FE82FE92FE601681CEC2FB0
:101FD600ED2FEF2FD817F32F7F30DE005E08D805E0
:101FE6006808DE0003105E0CDF005F08D900E61FFC
:101FF600FD2FFE2FFF2FD9170800FF1B0A2883137A
:102006007F1883170008840A0319FF0A0800103096
:102016008A000408840A82070034013400340A3432
:10202600003464340034E8340334103427344B3439
:1020360050343A34203420342034203420344B3485
:1020460044343A340034543450343A34203420344E
:102056004334203420344B3449343A340034253464
:0420660064340034AA
:1022E200F000700883120313880008006400800164
:1022F200840A0406031900340406782901340034E0
:102302000A340034883413340134003480308316A4
:1023120003139F00C130831203139F000800F100D2
:1023220083120313891471080A168A1171210A167D
:102332008A11831203130910891089140800F1000D
:1023420083120313891471080A168A1171210A165D
:102352008A118312031309148910891408007E0854
:102362008A007F0882000A168A11B0210A168A1191
:102372008000840A04087D0603190034FF0A031949
:10238200FE0AB42983120313AD1FC829C929CB2918
:10239200AC01AD012D08803AFF0084307F02031D9D
:1023A200D42900302C02031CD729D829DE29FF307A
:1023B20083120313AC000330AD000800F901FA01E7
:1023C200751CE429E529EB297708F9070318FA0AAD
:1023D2007808FA0701300310F70DF80DFF3E031DD0
:1023E200EC2901300310F60CF50CFF3E031DF32916
:1023F20075087604031DFE29FF29E1297A08F600F3
:102402007908F5000800F800F401F5017008F200FF
:10241200F3017208F6007308F700781C112A122AD9
:10242200182A7608F4070318F50A7708F507013029
:102432000310F60DF70DFF3E031D192A0310F80CC9
:102442007808031D252A262A0E2A7508F100740829
:10245200F0000800F501422A75087207840073082B
:102462000318730AFF000A168A1100200A168A113D
:102472000A168A11A0210A168A110130F400740882
:10248200F50775087207840073080318730A83122C
:102492000313FF000A168A1100200A168A11003A55
:1024A200031D542A552A2D2A0800F400083074020C
:1024B200031C5C2A5D2A602AF001F101892AC530D9
:1024C200F2007208831203139F057408F2000230AF
:1024D2000310F20DFF3E031D692A0310720DF30073
:1024E20073089F040330F3009730F200F20B772A4F
:1024F200F30B772A7C2A831203131F151F19822AD2
:10250200832A7F2A1E08F100831603131E08F00097
:10251200080001300A168A1156220A168A11710819
:1025220083160313C4007008C30044088312031304
:10253200AD0083160313430883120313AC000A167B
:102542008A11C3210A168A11831203132D088316D6
:102552000313C400831203132C0883160313C3004E
:102562004408BE004308BD00A030BF000F30C000C9
:102572000A128A1565200A168A11080083120313AB
:1025820089100910891438300A168A1190210A1606
:102592008A1138300A168A1190210A168A113830A7
:1025A2000A168A1190210A168A1108300A168A110F
:1025B20090210A168A110F300A168A1190210A16E2
:1025C2008A1101300A168A1190210A168A113830AE
:1025D2000A168A1190210A168A1180300A168A1167
:1025E20090210A168A110800831203132608F900A3
:1025F2002708FA002808FB002908FC000230031013
:10260200F90DFA0DFB0DFC0DFF3E031D002B0230F0
:102612000310F90DFA0DFB0DFC0DFF3E031D092BF6
:102622007C08F3007B08F2007A08F1007908F000D8
:102632000030F7003D30F6000930F5000030F400BC
:102642000A168A1176240A168A117008FF3E83162A
:10265200031392000800780879040319312B322BF6
:10266200612BFD01FD0A402B01300310F80DF90D1D
:10267200FF3E031D362B0130FC007C08FD07F91FCD
:10268200432B442B352B79087B02031D4A2B7808F8
:102692007A02031C4D2B4E2B542B7808FA02790830
:1026A200031CFB03FB0201300310F90CF80CFF3E84
:1026B200031D552B0130FD02031D602B612B442BA2
:1026C2007B08F9007A08F8000800F501F6017008A5
:1026D200710403196D2B6E2BA52BF701F70A7C2BC6
:1026E20001300310F00DF10DFF3E031D722B01307E
:1026F200F4007408F707F11F7F2B802B712B013038
:102702000310F50DF60DFF3E031D812B71087302B8
:10271200031D8D2B70087202031C902B912B982B9A
:102722007008F2027108031CF303F30275140130FE
:102732000310F10CF00CFF3E031D992B0130F70240
:10274200031DA42BA52B802B7608F1007508F00041
:102752000800803083160313A3062708831203138D
:10276200D90083160313260883120313D800831695
:102772000313250883120313D700831603132408B7
:1027820083120313D6008316031323088312031341
:10279200DD0083160313220883120313DC00831661
:1027A2000313210883120313DB008316031320088B
:1027B20083120313DA000A128A1578250A168A117F
:1027C20083120313590883160313A30083120313FE
:1027D200580883160313A2008312031357088316A3
:1027E2000313A10083120313560883160313A000D8
:1027F2000800031083120313280D290DF90079082C
:10280200AB002B08031D062C072C102C0030A9004E
:102812000030A8000030A7000030A600752C260862
:10282200F9002708FA002808FB002908FC001F30DD
:102832000310FC0CFB0CFA0CF90CFF3E031D192CC7
:102842007908FD007D08AA00A817FF30A605FF3011
:10285200A705FF30A8050030A9059630AB02AB1FD3
:10286200332C342C4E2C2B08803A973E03183A2CEA
:102872003B2C3C2C072C01300310A90CA80CA70CF4
:10288200A60CFF3E031D3D2C0130F9007908AB0771
:10289200031D4C2C4D2C3C2C652C20302B02031C90
:1028A200532C542C602C072C0130F9000310A60D78
:1028B200A70DA80DA90DF90B572C0130AB022B085F
:1028C200031D642C652C552C2A080319692C6A2CCB
:1028D200752CA609A709A809A909A60A0319A70A16
:1028E2000319A80A0319A90A080083120313A101F4
:1028F200F31F7C2C7D2C8A2CF009F109F209F309D3
:10290200F00A0319F10A0319F20A0319F30AA101E1
:10291200A10AF71F8D2C8E2C9D2CF409F509F609BE
:10292200F709F40A0319F50A0319F60A0319F70A53
:102932000130F8007808A1060030A5000030A4009C
:102942000030A3000030A200730872047104700406
:102952000319AC2CAD2CFA2CA001A00ABD2C01301D
:10296200F8000310F00DF10DF20DF30DF80BB22C7F
:102972000130F8007808A007F31FC02CC12CB02C3E
:102982000130F8000310A20DA30DA40DA50DF80B44
:10299200C32C73087702031DD82C72087602031D1C
:1029A200D82C71087502031DD82C70087402031C00
:1029B200DB2CDC2CEB2C7008F4027108031C710F69
:1029C200F5027208031C720FF6027308031C730FE0
:1029D200F702221401300310F30CF20CF10CF00C8C
:1029E200FF3E031DEC2C0130A002031DF92CFA2C32
:1029F200C12C21080319FE2CFF2C0A2DA209A309C0
:102A0200A409A509A20A0319A30A0319A40A03190E
:102A1200A50A2508F3002408F2002308F100220881
:102A2200F000080000308312031306180130EF0093
:102A32006F0803191D2D1E2D382D831603136708E9
:102A4200031D242D252D382D6E036F0403192A2D05
:102A52002B2D322D6430EC070318ED0A0030ED0700
:102A6200382D0A30EA070318EB0A0030EB0783120D
:102A72006F08F000700883160313E700003083121A
:102A820003138618013083160313E5006508031942
:102A92004B2D4C2D642D6608031D502D512D642D98
:102AA2006E036F040319562D572D5E2D9C30EC07D3
:102AB2000318ED0AFF30ED07642DF630EA0703181C
:102AC200EB0AFF30EB076508F0007008E600003003
:102AD200831203130619013083160313E3006308FC
:102AE2000319742D752D862D6408031D792D7A2DF9
:102AF200862D6E036F0403197F2D802D862D0A30DB
:102B0200EC070318ED0A0030ED076308F0007008C7
:102B1200E400003083120313861901308316031375
:102B2200E10061080319962D972DAB2D6208031D54
:102B32009B2D9C2DAB2D6E036F04031DA12DA22D89
:102B4200A72D0230EE000030EF00AB2D0130EE0079
:102B52000030EF006108F0007008E2000800831204
:102B62000313B60036080319B72DB82DCC2DB11FAB
:102B7200BB2DBC2DCC2D2E09B8002F09B900300970
:102B8200BA003109BB00B80A0319B90A0319BA0A13
:102B92000319BB0AD42D3108BB003008BA002F0834
:102BA200B9002E08B800310830042F042E04031D8A
:102BB200DB2DDC2DE52D0030B1000030B0000030FF
:102BC200AF000030AE006B2E9630B2003208B70074
:102BD200F72D0130B2003208B70701300310BB0CE9
:102BE200BA0CB90CB80CFF3E031DEF2DFE303B05AD
:102BF200031DFC2DFD2DEA2D192E0130B2003208E5
:102C0200B7070130B807003003180130B9070030A8
:102C120003180130BA07003003180130BB07013036
:102C22000310BB0CBA0CB90CB80CFF3E031D112EDD
:102C3200FF303B05031D1E2E1F2EFE2D2B2E0130B5
:102C4200B7020130B2000310B80DB90DBA0DBB0DB9
:102C5200B20B242EBA1B2E2E2F2E352E0230370207
:102C62000318342E352E202E3718382E392E412EA9
:102C7200FF30B805FF30B9057F30BA05FF30BB051C
:102C82000310B70C3708B200B301B401B501183014
:102C92000310B20DB30DB40DB50DFF3E031D492E49
:102CA2003208B8043308B9043408BA043508BB043E
:102CB200360803195D2E5E2E632EB11F612E622E21
:102CC200632EBB173B08B1003A08B0003908AF00C9
:102CD2003808AE000800FF308316031385000F305A
:102CE20086008701880189010A168A1187210A163E
:102CF2008A110A128A1503200A168A110A128A11E7
:102D020007200A168A110A168A11BF220A168A1188
:102D120080300A168A1190210A168A111730F200A1
:102D22008030F3000A168A112B220A168A11C0304B
:102D32000A168A1190210A168A110B30F20080308D
:102D4200F3000A168A112B220A168A110A168A1110
:102D520028270A168A11023083160313EE00003068
:102D6200EF000A168A1128270A168A1101308316E3
:102D72000313EE000030EF00831603136B08831277
:102D82000313AD00831603136A0883120313AC0006
:102D92000A168A11C3210A168A11831203132D08F7
:102DA20083160313EB00831203132C0883160313F9
:102DB200EA00690883120313AD008316031368083F
:102DC20083120313AC000A168A11C3210A168A1150
:102DD200831203132D0883160313E90083120313CE
:102DE2002C0883160313E8005E0883120313AD0058
:102DF200831603135D0883120313AC000A168A11AB
:102E0200C3210A168A11831203132D088316031392
:102E1200DE00831203132C0883160313DD000A1647
:102E22008A1113250A168A110A128A11DC230A163C
:102E32008A110A168A118A220A168A110A168A1118
:102E420028270A168A11BD2E0A128A110028831613
:102E520003136E036F0403192F2F302FB42F600852
:102E62006D06031D362F5F086C060319392F3A2FA2
:102E7200AD2FE830F7000330F8006D08FA006C0857
:102E8200F9000A128A1112200A168A11780883128E
:102E92000313AF007708AE006430F7000030F8008B
:102EA200831603136D08F3006C08F200E830F0009B
:102EB2000330F1000A128A150C200A168A117108D1
:102EC200FA007008F9000A128A1112200A168A11F1
:102ED200780883120313B1007708B00083300A1612
:102EE2008A1190210A168A11233083120313AD002E
:102EF2002D08A0002F08A2002E08A100AA300A1255
:102F02008A152D220A168A11AA30F2000130F30026
:102F12000A168A112B220A168A11233083120313EE
:102F2200AD002D08A0003108A2003008A100AA308F
:102F32000A128A152D220A168A11AA30F2000130CD
:102F4200F3000A168A112B220A168A11831603131A
:102F52006D08E0006C08DF008F300A168A1190219C
:102F62000A168A11FF2F83160317290883160313E3
:102F72006B06031DC22F831603172808831603133B
:102F82006A060319C52FC62FF92FC3300A168A11F4
:102F920090210A168A11233083120313AD002D08E3
:102FA200A000831603136B0883120313A200831677
:102FB20003136A0883120313A100AA300A128A15A6
:102FC2002D220A168A11AA30F2000130F3000A16E5
:102FD2008A112B220A168A11831603136B08831691
:102FE2000317A900831603136A0883160317A800A0
:0E2FF200CF300A168A1190210A168A110800A3
:02400E003A3F37
:00000001FF
