:060000000A128A11DC2F38
:10000C00831203135D088039DE005E08E7005D088B
:10001C00DE005E07DF005F08EE00DC1F16281728E5
:10002C0018286E146E0803191C281D282D286E0A1A
:10003C00031D212822282A280030DD000030DC0096
:10004C000030DB000030DA00DC17DD013528003031
:10005C00DD000030DC000030DB000030DA00590835
:10006C008039DE005E08E7065908DE005E07DF0017
:10007C005F08EF00D81F4328442845286F146F08E9
:10008C00031949284A285A286F0A031D4E284F285D
:10009C0057280030D9000030D8000030D70000308D
:1000AC00D600D817D90162280030D9000030D8000A
:1000BC000030D7000030D6005908580457045604B5
:1000CC00031D69286A2883280030DD000030DC001D
:1000DC000030DB000030DA008030DC047F30DD04DF
:1000EC006708DE005E08DD045D08D9005C08D800F6
:1000FC005B08D7005A08D600E2296E08031D872832
:10010C00882891280030D9000030D8000030D70062
:10011C000030D600E2296E08DE00DF015F08E10046
:10012C006F085E02E000031CE10360087F3EE800FC
:10013C0061080318013E003EE9005D08E6005C081A
:10014C00E5005B08E4005A08E3000030DD000030F5
:10015C00DC000030DB000030DA000030ED00003055
:10016C00EC000030EB000030EA00EF0107296F08CB
:10017C000319C128C228E2280130DE000310E30D68
:10018C00E40DE50DE60DDE0BC4280130DE00031096
:10019C00DA0DDB0DDC0DDD0DDE0BCD28ED1FD728C8
:1001AC00D828D9285A140130DE000310EA0DEB0DC3
:1001BC00EC0DED0DDE0BDB2859086602031DF02853
:1001CC0058086502031DF02857086402031DF02827
:1001DC0056086302031CF328F42803296D175608EC
:1001EC00E3025708031C570FE4025808031C580F6E
:1001FC00E5025908031C590FE6020130DE005E08C7
:10020C00EF071A306F02031C0C290D29BD28660854
:10021C0065046404630403191429152934296A1428
:10022C0034290130DE000310DA0DDB0DDC0DDD0DA1
:10023C00DE0B1929ED1F2329242925295A140130F5
:10024C00DE000310EA0DEB0DEC0DED0DDE0B272996
:10025C00FF30E8070318E90AFF30E907DC1F3729EC
:10026C0038291729EF01ED1F3C293D295929FF3069
:10027C006A05DE00FF306B05DF00FF306C05E00027
:10028C007F306D05E100610860045F045E040319B2
:10029C00502951295429EF01EF0A59295A1C572981
:1002AC005829592951296F0803195D295E298F296D
:1002BC000130DA07003003180130DB070030031877
:1002CC000130DC07003003180130DD075D1C6F299D
:1002DC0070298F295A08DE005B08DF005C08E000FB
:1002EC005D08E1000130E200610DE10CE00CDF0C77
:1002FC00DE0CE20B7A296108DD006008DC005F0887
:10030C00DB005E08DA000130E8070318E90A003068
:10031C00E9076908803AFF0080307F02031D9829A5
:10032C00FF306802031C9B299C29AA29FF308312E9
:10033C000313E8000030E9000030DD000030DC0081
:10034C000030DB000030DA00831203136908803AB6
:10035C00FF0080307F02031DB529013068020318AD
:10036C00B829B929C62983120313E801E901003021
:10037C00DD000030DC000030DB000030DA00E7018B
:10038C00831203136808DE005E08EE006E1CCF2992
:10039C00D029D229DC17D6297F30DE005E08DC0597
:1003AC006E08DE0003105E0CDF005F08DD006708DE
:1003BC00DE005E08DD047A28080073088039831299
:1003CC000313A0002008F8007308A0002007A10068
:1003DC002108FA00F21FF329F429F5297A147A0876
:1003EC000319F929FA290A2A7A0A031DFE29FF2979
:1003FC00072A0030F3000030F2000030F10000302A
:10040C00F000F217F301122A0030F3000030F20072
:10041C000030F1000030F00077088039A00020088F
:10042C00F9007908780603191C2A1D2A1E2A781748
:10043C007708A0002007A1002108F900F61F272A41
:10044C00282A292A7914790803192D2A2E2A3E2ABA
:10045C00790A031D322A332A3B2A0030F700003078
:10046C00F6000030F5000030F400F617F701462ACC
:10047C000030F7000030F6000030F5000030F400DA
:10048C007A08790203184B2A4C2A902A781F4F2A93
:10049C00502A542A8030A0002008F8067A08A000C0
:1004AC002008FB007908A0002008FA007B08A000B7
:1004BC002008F9007008A0002008FB007408A000B8
:1004CC002008F0007B08A0002008F4007108A000B0
:1004DC002008FB007508A0002008F1007B08A00094
:1004EC002008F5007208A0002008FB007608A00088
:1004FC002008F2007B08A0002008F6007308A0007A
:10050C002008FB007708A0002008F3007B08A0005F
:10051C002008F700FB017908A000A1012108A30025
:10052C007A082002A200031CA3032308803AFF00D0
:10053C0080307F02031DA42A1A302202031CA72A32
:10054C00A82AE92A7308720471047004031DAF2AE7
:10055C00B12A0130B22A003083120313A000200804
:10056C00FB000030F3000030F2000030F1000030EE
:10057C00F0007908A0002008FA00EF2A7B1CC72A9B
:10058C00C82AD32A7B0883120313A0000310200C63
:10059C000138A1002108FB00D52A0310FB0C701CAC
:1005AC00D82AD92ADA2AFB17013083120313A000A8
:1005BC00730DF30CF20CF10CF00CA00BDE2A0130D5
:1005CC00A0002008FA0779087A02031CEE2AEF2A09
:1005DC00C42A781BF22AF32A422B7A08031DF72A25
:1005EC00F82A012B0030F3000030F2000030F1004B
:1005FC000030F0007A2C7408F0077508031103180A
:10060C00013E03190A2BF107760803110318013E6A
:10061C000319112BF207770803110318013E031974
:10062C00182BF307731C1B2B1C2BFA2B7B1C1F2B5F
:10063C00202B2B2B7B0883120313A0000310200C00
:10064C000138A1002108FB002D2B0310FB0C701CA2
:10065C00302B312B322BFB17013083120313A000EC
:10066C00730DF30CF20CF10CF00CA00B362B0130CB
:10067C00A0002008FA07FA2B7308803AFF007708CD
:10068C00803A7F02031D542B76087202031D542BF3
:10069C0075087102031D542B740870020318572B34
:1006AC00582BB22BFF3083120313A000FF30A10094
:1006BC00FF30A200FF30A3007408A4007508A50049
:1006CC007608A6007708A7007008A4027108031C1E
:1006DC00710F712B722BA5027208031C720F772BF2
:1006EC00782BA6027308031C730F7D2B7E2BA7029D
:1006FC002408A00725080318250F852B862BA10796
:10070C0026080318260F8B2B8C2BA20727080318FF
:10071C00270AA3072308F3002208F2002108F1009E
:10072C002008F0008030A0002008F806FB09FB0A26
:10073C007B08031DA22BA32BC02B0130F00700302C
:10074C0003180130F107003003180130F2070030B4
:10075C0003180130F307C02B7408F0027508031C52
:10076C00750FF1027608031C760FF2027708031C52
:10077C00770FF3027308720471047004031DC72B06
:10078C00C82BF62B7B08031DCC2BCD2BF62B003066
:10079C00F3000030F2000030F1000030F0007A2C51
:1007AC00013083120313A0000310F00DF10DF20DB4
:1007BC00F30DA00BDA2BFB1FE42BE52BE62B7014AF
:1007CC007B1CE92BEA2BED2B0314FB0DEF2B0310F9
:1007DC00FB0D7A080319F32BF42BF62B0130FA02DC
:1007EC00F21FF92BFA2BD62BF901FB1FFE2BFF2B3B
:1007FC000D2C7B087F390319042C052C082CF901CE
:10080C00F90A0D2C701C0B2C0C2C0D2C052C7908BA
:10081C000319112C122C482C0130F007003003184E
:10082C000130F107003003180130F20700300318D3
:10083C000130F307731C232C242C482C70088312D2
:10084C000313A0007108A1007208A2007308A30092
:10085C000130A400230DA30CA20CA10CA00CA40B22
:10086C00302C2308F3002208F2002108F1002008A4
:10087C00F0007A0A0319432C442C482C0130A000B8
:10088C002008FA077A0A03194C2C4D2C522C7A08A2
:10089C00031D512C522C602C0030F3000030F20060
:1008AC000030F1000030F0007A08031D5E2C5F2C44
:1008BC00602CF8017A1C632C642C662CF2176C2CBF
:1008CC007F3083120313A0002008F2057A088312EC
:1008DC000313A0000310200CA1002108F300F81F43
:1008EC00782C792C7A2CF3170800831203133F0809
:1008FC008039C4004408C9003F08C4004407C5003F
:10090C004508CF00BE1F8B2C8C2C8D2C4F144F0800
:10091C000319912C922CA12C4F0A031D962C972C69
:10092C009F2C0030BF000030BE000030BD000030F6
:10093C00BC00BE17A92C0030BF000030BE00003038
:10094C00BD000030BC0043088039C4004408C9060F
:10095C004308C4004407C5004508CE00C21FB72C8D
:10096C00B82CB92C4E144E080319BD2CBE2CCD2C12
:10097C004E0A031DC22CC32CCB2C0030C3000030FC
:10098C00C2000030C1000030C000C217D52C0030AE
:10099C00C3000030C2000030C1000030C0004E085F
:1009AC000319D92CDA2CDF2C4F08031DDE2CDF2C7D
:1009BC00E82C0030BF000030BE000030BD0000301D
:1009CC00BC00DB2F3C08C4004408F00042080A16A7
:1009DC008A11CF230A128A11710883120313D500CE
:1009EC007008D4005408C400C501C601C7014708EB
:1009FC00CD004608CC004508CB004408CA00550879
:100A0C00C400C501C601C7014708D3004608D2007F
:100A1C004508D1004408D0003D08C4004408F0004B
:100A2C0041080A168A11CF230A128A1171088312FF
:100A3C000313D5007008D4005408C400C501C601C6
:100A4C00C7014408CA07450803110318013E0319DE
:100A5C00302DCB07460803110318013E0319372D1F
:100A6C00CC07470803110318013E03193E2DCD078F
:100A7C005508C400C501C601C7014408D007450884
:100A8C0003110318013E03194C2DD107460803111D
:100A9C000318013E0319532DD207470803110318FD
:100AAC00013E03195A2DD3073E08C4004408F00038
:100ABC0040080A168A11CF230A128A117108831270
:100ACC000313D5007008D4005408C400C501C60136
:100ADC00C7014408CA07450803110318013E03194E
:100AEC00782DCB07460803110318013E03197F2DFF
:100AFC00CC07470803110318013E0319862DCD07B7
:100B0C005508C400C501C601C7014408D0074508F3
:100B1C0003110318013E0319942DD1074608031144
:100B2C000318013E03199B2DD20747080311031824
:100B3C00013E0319A22DD3070830C4000310CA0DBF
:100B4C00CB0DCC0DCD0DC40BA42D3D08C400440819
:100B5C00F00040080A168A11CF230A128A11710874
:100B6C0083120313D5007008D4005408C400550830
:100B7C00C500C601C7014408CA074508031103187C
:100B8C00013E0319CA2DCB07460803110318013E79
:100B9C000319D12DCC07470803110318013E031983
:100BAC00D82DCD073C08C4004408F00041080A16B3
:100BBC008A11CF230A128A11710883120313D500EC
:100BCC007008D4005408C4005508C500C601C701FC
:100BDC004408CA07450803110318013E0319F72DF1
:100BEC00CB07460803110318013E0319FE2DCC0751
:100BFC00470803110318013E0319052ECD070830D1
:100C0C00C4000310CA0DCB0DCC0DCD0DC40B072E9B
:100C1C003C08C4004408F00040080A168A11CF238F
:100C2C000A128A11710883120313D5007008D400BC
:100C3C005408C4005508C500C601C7014408CA07BA
:100C4C00450803110318013E03192D2ECB07460846
:100C5C0003110318013E0319342ECC074708031166
:100C6C000318013E03193B2ECD073D08C400440870
:100C7C00F00042080A168A11CF230A128A11710851
:100C8C0083120313D5007008D4005408C40055080F
:100C9C00C500C601C7014408D00745080311031855
:100CAC00013E03195A2ED107460803110318013EC1
:100CBC000319612ED207470803110318013E0319CB
:100CCC00682ED3073E08C4004408F00041080A16F9
:100CDC008A11CF230A128A11710883120313D500CB
:100CEC007008D4005408C4005508C500C601C701DB
:100CFC004408D007450803110318013E0319872E39
:100D0C00D107460803110318013E03198E2ED20792
:100D1C00470803110318013E0319952ED3073E080B
:100D2C00C4004408F00042080A168A11CF230A12A4
:100D3C008A11710883120313D5007008D40054086B
:100D4C00C4005508C500C601C70108300310C40D06
:100D5C00C50DC60DC70DFF3E031DAC2E4408D007B4
:100D6C00450803110318013E0319BD2ED10746088F
:100D7C0003110318013E0319C42ED20747080311AF
:100D8C000318013E0319CB2ED3074A08C4004B08A5
:100D9C00C5004C08C6004D08C70018300310C70C1E
:100DAC00C60CC50CC40CFF3E031DD42E4408D00742
:100DBC00450803110318013E0319E52ED107460817
:100DCC0003110318013E0319EC2ED2074708031137
:100DDC000318013E0319F32ED3070830C400031087
:100DEC00CA0DCB0DCC0DCD0DC40BF52E4F084E07F7
:100DFC00C400C501C50D4408823ED4004508031843
:100E0C00013EFF3ED500272F0130C4000310D00D4A
:100E1C00D10DD20DD30DC40B0C2FCD1F162F172FA8
:100E2C00182F50140130C4000310CA0DCB0DCC0D7B
:100E3C00CD0DC40B1A2FFF30D4070318D50AFF3081
:100E4C00D507D21F2A2F2B2F0A2FCE01CD1F2F2FC4
:100E5C00302F4C2FFF304A05C400FF304B05C50026
:100E6C00FF304C05C6007F304D05C70047084604CF
:100E7C00450444040319432F442F472FCE01CE0AB7
:100E8C004C2F501C4A2F4B2F4C2F442F4E0803191C
:100E9C00502F512F822F0130D00700300318013012
:100EAC00D107003003180130D2070030031801308D
:100EBC00D307531C622F632F822F5008C400510894
:100ECC00C5005208C6005308C7000130C800470DC2
:100EDC00C70CC60CC50CC40CC80B6D2F4708D3002F
:100EEC004608D2004508D1004408D0000130D40790
:100EFC000318D50A0030D5075508803AFF0080301A
:100F0C007F02031D8B2FFF305402031C8E2F8F2F5B
:100F1C009A2F7F3083120313D3008030D20000301D
:100F2C00D1000030D000CF2F831203135508803A24
:100F3C00FF0080307F02031DA52F013054020318DF
:100F4C00A82FA92FB52F003083120313D300003024
:100F5C00D2000030D1000030D000C901CF2F831255
:100F6C0003135408C4004408CF00FF30D005FF30F1
:100F7C00D1057F30D2050030D3054F1CC62FC72FAB
:100F8C00C82FD2174F08C4000310440CC5004508E5
:100F9C00D3004908C4004408D3045308BF005208C6
:100FAC00BE005108BD005008BC0008008313EB3094
:100FBC00FD001330FE001630FF00E33084000A16EB
:100FCC008A115F230A128A11831790308400B03083
:100FDC000A168A110E230A128A118313A030840078
:100FEC00C8300A168A110E230A128A1183010A12BA
:040FFC008A15042826
:10100800FF308316031385000F308600870188019F
:1010180089010A168A111E230A128A150A168A11CC
:1010280027230A128A150A168A1130230A128A15EA
:101038000A168A117E240A128A1580300A168A1125
:101048003B230A128A151730F2008030F3000A1683
:101058008A111F240A128A15C0300A168A113B23E6
:101068000A128A150B30F2008030F3000A168A1132
:101078001F240A128A150A128A1586200A128A154E
:10108800831603136808F1006708F0000A168A112E
:101098006E230A128A15710883160313E800700874
:1010A800E7006608F1006508F0000A168A116E2349
:1010B8000A128A15710883160313E6007008E50002
:1010C8006408F1006308F0000A168A116E230A12F8
:1010D8008A15710883160313E4007008E3000A12E6
:1010E8008A1570250A128A150A168A11F6230A1219
:1010F8008A150A128A15D4230A128A153F280A1259
:101108008A11002800308312031306180130831651
:101118000313C6004608031992289328CB284708CA
:10112800031D97289828CB283E033F04031D9D28BC
:101138009E28A4286430E9070318EA0A0030EA0761
:1011480002303E063F04031DAA28AB28B12801300F
:10115800E7070318E80A0030E80703303E063F04B3
:10116800031DB728B828BE280130E5070318E60A8A
:101178000030E60704303E063F04031DC428C52896
:10118800CB280130E3070318E40A0030E4074608D7
:10119800F0007008C700003083120313861801306E
:1011A80083160313C40044080319DB28DC28142918
:1011B8004508031DE028E12814293E033F04031DC8
:1011C800E628E728ED289C30E9070318EA0AFF30EB
:1011D800EA0702303E063F04031DF328F428FA28E4
:1011E800FF30E7070318E80AFF30E80703303E0638
:1011F8003F04031D002901290729FF30E5070318CB
:10120800E60AFF30E60704303E063F04031D0D29B9
:101218000E291429FF30E3070318E40AFF30E40716
:101228004408F0007008C500003083120313061943
:10123800013083160313C2004208F0007008C3008F
:101248000030831203138619013083160313C0007C
:10125800400803193029312947294108031D352938
:10126800362947290130BE070318BF0A0030BF07D7
:1012780005303E063F04031D422943294729013012
:10128800BE000030BF004008F0007008C100080030
:1012980083160313530883120313A600831603133C
:1012A800540883120313A700A801A9010A168A117A
:1012B800B4240A128A15043083160313520200302C
:1012C80003195102031869296A291B2A5108831234
:1012D8000313A60083160313520883120313A700EF
:1012E800A801A90100300A168A1144270A128A1592
:1012F800831203132908DD002808DC002708DB0017
:101308002608DA004430D9007F30D800C030D70032
:101318000030D6000A128A1106200A128A15831292
:1013280003135908C3005808C2005708C1005608DB
:10133800C0000030F7003D30F6000930F5000030FD
:10134800F400831603135408D6005308D50003107D
:10135800D50DD60D0310D50DD60D5508F00056083D
:10136800F100F201F3010A168A11A7260A128A155A
:10137800730883120313A9007208A8007108A70054
:101388007008A60001300A168A1144270A128A1525
:10139800831203132908BF002808BE002708BD00D0
:1013A8002608BC000A128A117B240A128A158312A5
:1013B80003133F0883160313CB00831203133E085D
:1013C80083160313CA00831203133D0883160313FD
:1013D800C900831203133C0883160313C8000A16B6
:1013E8008A112B260A128A15831603134908D2007C
:1013F8004808D100831203139D1283160313511852
:10140800062A0A2A831203131D160D2A83120313B0
:101418001D12831603135108D50002300310D50C92
:10142800FF3E031D122A5508831203139B00080070
:1014380083160313530883120313A600831603139A
:10144800540883120313A700A801A9010A168A11D8
:10145800B4240A128A15043083160313520200308A
:10146800031951020318392A3A2AEB2A5108831220
:101478000313A60083160313520883120313A7004D
:10148800A801A90100300A168A1144270A128A15F0
:10149800831203132908DD002808DC002708DB0075
:1014A8002608DA004430D9007F30D800C030D70091
:1014B8000030D6000A128A1106200A128A158312F1
:1014C80003135908C3005808C2005708C10056083A
:1014D800C0000030F7003D30F6000930F50000305C
:1014E800F400831603135408D6005308D5000310DC
:1014F800D50DD60D0310D50DD60D5508F00056089C
:10150800F100F201F3010A168A11A7260A128A15B8
:10151800730883120313A9007208A8007108A700B2
:101528007008A60001300A168A1144270A128A1583
:10153800831203132908BF002808BE002708BD002E
:101548002608BC000A128A117B240A128A15831203
:1015580003133F0883160313CB00831203133E08BB
:1015680083160313CA00831203133D08831603135B
:10157800C900831203133C0883160313C8000A1614
:101588008A112B260A128A15831603134908D200DA
:101598004808D100831203139712831603135118B6
:1015A800D62ADA2A831203131716DD2A83120313A5
:1015B8001712831603135108D50002300310D50CF7
:1015C800FF3E031DE22A5508831203139500080005
:1015D80083120313AB002130A3002308A600BD2B00
:1015E80025302C060319F92AFA2A062B2C08A30001
:1015F8002B0884002308831780000130A3002308E8
:10160800AB07BD2BA7010130A007FF3020078400DE
:101618000A168A110A200A128A15AC00A300A4012E
:101628002408003A0319192BBD2B2308003A031983
:10163800CF2B643A0319242B0D3A0319242BBD2B05
:101648002608840083130008A900840A0008AA0059
:101658000230A3002308A607AA1F332B342B3D2BE7
:101668000330A3002308A704A909AA09A90A031992
:10167800AA0AAC01AC0A2C08A3002307013E840087
:101688000A168A110A200A128A15A4000A168A1153
:101698000A200A128A15A50025082A02031D562BBE
:1016A800240829020318592B5A2B5B2B652B013070
:1016B800A3002308AC0705302C06031D642B652BFB
:1016C8003F2B2708033903196A2B6B2B762B2D30F8
:1016D800A3002B0884002308831780000130A3008F
:1016E8002308AB072C08A3002308A800B42B0A3052
:1016F800F8000030F9002808A3002307013E840001
:101708000A168A110A200A128A15F0000A168A1186
:101718000A200A128A15F1002A08F3002908F200A3
:101728000A168A1125250A128A157108FB00700805
:10173800FA000A168A11EB240A128A157808303E34
:1017480083120313A4002408AC002C08A3002B0860
:1017580084002308831780000130A3002308AB0707
:10176800FF30A3002308A807280A031DBC2BBD2BA4
:101778007B2B0130A007FF30200784000A168A114E
:101788000A200A128A15A3002308AC002C08031D9E
:10179800CE2BCF2BF42A2B08840083178001080056
:1017A800831603133E033F04031DDB2BDC2BE22BC4
:1017B80087300A168A113B230A128A1502308316CB
:1017C80003133E063F04031DEA2BEB2BF12BC73016
:1017D8000A168A113B230A128A150330831603134B
:1017E8003E063F04031DF92BFA2B002C8F300A16F6
:1017F8008A113B230A128A150430831603133E0606
:101808003F04031D082C092C0F2CCF300A168A110F
:101818003B230A128A15831603133D086A06031D23
:10182800172C3C08690603191A2C1B2C9D2CE83030
:10183800F7000330F8006A08FA006908F9000A1688
:101848008A11C2250A128A15780883120313AF0079
:101858007708AE006430F7000030F80083160313F1
:101868006A08F3006908F200E830F0000330F1007C
:101878000A168A1169250A128A157108FA00700871
:10188800F9000A168A11C2250A128A1578088312E5
:101898000313B1007708B00083300A168A113B237E
:1018A8000A128A152930F2008030F3000A168A11CC
:1018B8001F240A128A1583300A168A113B230A123A
:1018C8008A152F3083120313AD002D08A0002F08AE
:1018D800A2002E08A10090300A128A15EC220A12E2
:1018E8008A159030F2000130F3000A168A111F247D
:1018F8000A128A152F3083120313AD002D08A00099
:101908003108A2003008A10090300A128A15EC2292
:101918000A128A159030F2000130F3000A168A1173
:101928001F240A128A15831603136A08BD00690862
:10193800BC003B086806031DA32C3A086706031978
:10194800A62CA72CE32CC3300A168A113B230A12B3
:101958008A152330F2008030F3000A168A111F24FA
:101968000A128A15C3300A168A113B230A128A15ED
:101978002F3083120313AD002D08A0008316031324
:10198800680883120313A2008316031367088312DF
:101998000313A10090300A128A15EC220A128A1544
:1019A8009030F2000130F3000A168A111F240A123F
:1019B8008A15831603136808BB006708BA0039083C
:1019C8006606031DE92C380865060319EC2CED2C76
:1019D800292D8B300A168A113B230A128A152330C7
:1019E800F2008030F3000A168A111F240A128A15A1
:1019F8008B300A168A113B230A128A152F3083125C
:101A08000313AD002D08A000831603136608831284
:101A18000313A20083160313650883120313A1009E
:101A280090300A128A15EC220A128A159030F200B8
:101A38000130F3000A168A111F240A128A15831628
:101A480003136608B9006508B80035082D06031D9C
:101A58002F2D34082C060319322D332D6F2DCB3042
:101A68000A168A113B230A128A152330F2008030A5
:101A7800F3000A168A111F240A128A15CB300A1697
:101A88008A113B230A128A152F3083120313AD00E3
:101A98002D08A000831603132D0883120313A20038
:101AA800831603132C0883120313A10090300A1223
:101AB8008A15EC220A128A159030F2000130F300E0
:101AC8000A168A111F240A128A15831603132D0871
:101AD800B5002C08B40008000A30F7000030F80000
:101AE80000300A168A114A240A128A157108F6006B
:101AF8007008F5000A168A11AA230A128A157508B1
:101B080083160313D7007608D8000310D80CD70C17
:101B18000310D80CD70C0310D80CD70C57086A3E02
:101B2800D90058080318013EFF3EDA005908DB00C7
:101B38005A08DC00DD01DE015E0883120313A900E8
:101B4800831603135D0883120313A8008316031377
:101B58005C0883120313A700831603135B08831220
:101B68000313A60000300A168A1144270A128A15A0
:101B780083120313290883160313AB00831203137C
:101B8800280883160313AA00831203132708831651
:101B98000313A90083120313260883160313A8004E
:101BA8002B0883120313B700831603132A08831222
:101BB8000313B60083160313290883120313B50011
:101BC80083160313280883120313B4008316031320
:101BD8006A08FA006908F9000A30F7000030F800CE
:101BE8000A168A11C2250A128A1577088312031366
:101BF800A6007808A7000030A71BFF30A800A9009E
:101C080001300A168A1144270A128A15831203130F
:101C18002908BB002808BA002708B9002608B80018
:101C28000A168A1186230A128A15831203133708A3
:101C380083160313A30083120313360883160313B2
:101C4800A20083120313350883160313A10083121D
:101C58000313340883160313A000670883120313C1
:101C6800A60083160313680883120313A700003025
:101C7800A71BFF30A800A90001300A168A114427C3
:101C88000A128A15831203132908C3002808C20000
:101C98002708C1002608C0008316031323088312EF
:101CA8000313BF0083160313220883120313BE0015
:101CB80083160313210883120313BD00831603132D
:101CC800200883120313BC000A128A117B240A120B
:101CD8008A15831203133F0883160313CB0083125C
:101CE80003133E0883160313CA00831203133D0827
:101CF80083160313C900831203133C0883160313C6
:101D0800C8000A168A112B260A128A15831603138D
:101D18004908B3004808B200650883120313A600F7
:101D280083160313660883120313A7000030A71B4A
:101D3800FF30A800A90001300A168A1144270A12A8
:101D48008A15831203132908C3002808C20027082C
:101D5800C1002608C0008316031323088312031347
:101D6800BF0083160313220883120313BE008316D1
:101D78000313210883120313BD00831603132008DD
:101D880083120313BC000A128A117B240A128A15D3
:101D9800831203133F0883160313E200831203130D
:101DA8003E0883160313E100831203133D088316CC
:101DB8000313E000831203133C0883160313DF00A8
:101DC800620883120313C300831603136108831286
:101DD8000313C20083160313600883120313C100A0
:101DE800831603135F0883120313C0003D30BF003E
:101DF800CC30BE00CC30BD00CD30BC000A128A11F8
:101E08007B240A128A15831203133F0883160313CF
:101E1800CB00831203133E0883160313CA008312F0
:101E280003133D0883160313C900831203133C08E8
:101E380083160313C8000A168A112B260A128A155C
:101E4800831603134808B0070318B10A4908B107F5
:101E5800270883120313BB00831603132608831273
:101E68000313BA0083160313250883120313B9005A
:101E780083160313240883120313B800831603136D
:101E88002B0883120313B700831603132A0883123F
:101E98000313B60083160313290883120313B5002E
:101EA80083160313280883120313B4000A168A1131
:101EB80086230A128A15831203133708C3003608CB
:101EC800C2003508C1003408C00083160313630834
:101ED80083120313A60083160313640883120313E3
:101EE800A7000030A71BFF30A800A90001300A1680
:101EF8008A1144270A128A15831203132908BF007E
:101F08002808BE002708BD002608BC000A128A114E
:101F18007B240A128A15831203133F08DD003E084A
:101F2800DC003D08DB003C08DA003D30D900CC304D
:101F3800D800CC30D700CD30D6000A128A1106203E
:101F48000A128A1583120313590883160313CB0048
:101F580083120313580883160313CA00831203134A
:101F6800570883160313C9008312031356088316F0
:101F78000313C8000A168A112B260A128A1583161B
:101F880003134808AE070318AF0A4908AF072B0820
:101F9800A7002A08A6002908A5002808A4003008D8
:101FA8003207D70031080318310A3307D8002E0842
:101FB8005707AC002F0803182F0A5807AD002D0843
:101FC800F1002C08F0000A168A116E230A128A15ED
:101FD800710883160313AD007008AC002D08D200F9
:101FE8002C08D100A030D3000F30D4000A128A1573
:101FF8001C220A128A150800FF1B0A2883137F185F
:1020080083170008840A0319FF0A080010308A00A1
:102018000408840A82070034013400340A34003486
:1020280064340034E8340334103427344B345034E7
:102038003A34203420342034203420344B3444348F
:102048003A340034543450343A342034203443344D
:10205800203420344B3449343A340034203420348A
:1020680020342034203400342034203443342034C5
:0A20780020340034253464340034B1
:10261000F000700883120313880008006400800132
:10262000840A04060319003404060F2B0134003415
:102630000134003464340034A0340F348030831605
:1026400003139F00C130831203139F0008008312FD
:102650000313971517151215831603130711080096
:10266000831203139D151D15121492101215831653
:10267000031387100800F1008312031389147108F3
:102680000A168A1108230A168A11831203130910E5
:10269000891089140800F10083120313891471084A
:1026A0000A168A1108230A168A11831203130914C1
:1026B0008910891408007E088A007F0882000A16A3
:1026C0008A115B230A168A118000840A04087D0699
:1026D00003190034FF0A0319FE0A5F2BF11F712B47
:1026E000722B742BF001F1017108803AFF008430E5
:1026F0007F02031D7D2B00307002031C802B812B79
:10270000852BFF30F0000330F10008008030831289
:102710000313B7063B08F3003A08F2003908F1004A
:102720003808F0003708F7003608F6003508F500DD
:102730003408F4000A128A11E3210A168A11730878
:1027400083120313B7007208B6007108B500700851
:10275000B4000800F901FA01751CAF2BB02BB62BA1
:102760007708F9070318FA0A7808FA070130031006
:10277000F70DF80DFF3E031DB72B01300310F60CCB
:10278000F50CFF3E031DBE2B75087604031DC92BF7
:10279000CA2BAC2B7A08F6007908F5000800F8007F
:1027A000F401F5017008F200F3017208F6007308F5
:1027B000F700781CDC2BDD2BE32B7608F4070318DD
:1027C000F50A7708F50701300310F60DF70DFF3E07
:1027D000031DE42B0310F80C7808031DF02BF12BDC
:1027E000D92B7508F1007408F000080001300A16B2
:1027F0008A114A240A168A11710883160313D80015
:102800007008D7005808F1005708F0000A168A111E
:102810006E230A168A11710883160313D8007008F4
:10282000D7005808D2005708D100A030D3000F308D
:10283000D4000A128A154C210A168A110800F501E3
:10284000362C75087207840073080318730AFF009A
:102850000A168A1100200A168A110A168A114B23B9
:102860000A168A110130F4007408F507750872071A
:10287000840073080318730A83120313FF000A16F7
:102880008A1100200A168A11003A031D482C492C8F
:10289000212C0800F40008307402031C502C512C29
:1028A000542CF001F1017D2CC530F2007208831226
:1028B00003139F057408F20002300310F20DFF3E6F
:1028C000031D5D2C0310720DF30073089F04033089
:1028D000F3009730F200F20B6B2CF30B6B2C702C87
:1028E000831203131F151F19762C772C732C1E08C7
:1028F000F100831603131E08F0000800831203136F
:1029000089100910891438300A168A113B230A16D7
:102910008A1138300A168A113B230A168A11383078
:102920000A168A113B230A168A1108300A168A11E0
:102930003B230A168A110F300A168A113B230A1606
:102940008A1101300A168A113B230A168A1138307F
:102950000A168A113B230A168A1180300A168A1138
:102960003B230A168A110800831203132608F90074
:102970002708FA002808FB002908FC000230031091
:10298000F90DFA0DFB0DFC0DFF3E031DBF2C0230AF
:102990000310F90DFA0DFB0DFC0DFF3E031DC82CB5
:1029A0007C08F3007B08F2007A08F1007908F00057
:1029B0000030F7003D30F6000930F5000030F4003B
:1029C0000A168A11A7260A168A117008FF3E831676
:1029D000031392000800780879040319F02CF12CF5
:1029E000202DFD01FD0AFF2C01300310F80DF90D1B
:1029F000FF3E031DF52C0130FC007C08FD07F91F8C
:102A0000022D032DF42C79087B02031D092D780873
:102A10007A02031C0C2D0D2D132D7808FA0279086B
:102A2000031CFB03FB0201300310F90CF80CFF3E02
:102A3000031D142D0130FD02031D1F2D202D032D1C
:102A40007B08F9007A08F8000800F501F601700823
:102A5000710403192C2D2D2D642DF701F70A3B2D40
:102A600001300310F00DF10DFF3E031D312D01303B
:102A7000F4007408F707F11F3E2D3F2D302D013073
:102A80000310F50DF60DFF3E031D402D7108730276
:102A9000031D4C2D70087202031C4F2D502D572D15
:102AA0007008F2027108031CF303F302751401307D
:102AB0000310F10CF00CFF3E031D582D0130F702FE
:102AC000031D632D642D3F2D7608F1007508F0007D
:102AD0000800F601F31F6D2D6E2D752DF209F30917
:102AE000F20A0319F30AF601F60AF11F782D792D7F
:102AF0007E2DF009F109F00A0319F10A700871043A
:102B00000319832D842DB32DF501F50A922D013083
:102B10000310F00DF10DFF3E031D882D0130F40070
:102B20007408F507F11F952D962D872D71087302F6
:102B3000031D9C2D70087202031C9F2DA02DA62D35
:102B40007008F2027108031CF303F3020130031052
:102B5000F10CF00CFF3E031DA72D0130F502031D03
:102B6000B22DB32D962D76080319B72DB82DBD2D96
:102B7000F209F309F20A0319F30A7308F100720863
:102B8000F000080083120313A101F81FC82DC92DFE
:102B9000D02DF709F809F70A0319F80AA101A10ACB
:102BA000FA1FD32DD42DDD2DF909FA09F90A0319DD
:102BB000FA0A0130FB007B08A106A201A3017708F5
:102BC00078040319E42DE52D1C2EA001A00AF32D95
:102BD00001300310F70DF80DFF3E031DE92D013004
:102BE000FB007B08A007F81FF62DF72DE82D01301C
:102BF0000310A20DA30DFF3E031DF82D78087A02E5
:102C0000031D042E77087902031C072E082E0F2EB1
:102C10007708F9027808031CFA03FA02221401303B
:102C20000310F80CF70CFF3E031D102E0130A0021C
:102C3000031D1B2E1C2EF72D21080319202E212EDB
:102C4000262EA209A309A20A0319A30A2308F80041
:102C50002208F70008000310831603134A0D4B0DDA
:102C6000CC004C08FD007D08031D372E382E412E68
:102C70000030CB000030CA000030C9000030C8006E
:102C8000A62E4808CC004908CD004A08CE004B08C3
:102C9000CF001F300310CF0CCE0CCD0CCC0CFF3E60
:102CA000031D4A2E4C08D0005008FC00CA17FF3004
:102CB000C805FF30C905FF30CA050030CB05963086
:102CC000FD02FD1F642E652E7F2E7D08803A973E03
:102CD00003186B2E6C2E6D2E382E01300310CB0C8A
:102CE000CA0CC90CC80CFF3E031D6E2E0130CC006F
:102CF0004C08FD07031D7D2E7E2E6D2E962E203056
:102D00007D02031C842E852E912E382E0130CC009E
:102D10000310C80DC90DCA0DCB0DCC0B882E013088
:102D2000FD027D08031D952E962E862E7C08031924
:102D30009A2E9B2EA62EC809C909CA09CB09C80A12
:102D40000319C90A0319CA0A0319CB0A0800831216
:102D50000313A101F31FAD2EAE2EBB2EF009F10916
:102D6000F209F309F00A0319F10A0319F20A031927
:102D7000F30AA101A10AF71FBE2EBF2ECE2EF40921
:102D8000F509F609F709F40A0319F50A0319F60A11
:102D90000319F70A0130F8007808A1060030A500F1
:102DA0000030A4000030A3000030A20073087204B9
:102DB000710470040319DD2EDE2E2B2FA001A00A52
:102DC000EE2E0130F8000310F00DF10DF20DF30DB1
:102DD000F80BE32E0130F8007808A007F31FF12E5E
:102DE000F22EE12E0130F8000310A20DA30DA40D68
:102DF000A50DF80BF42E73087702031D092F720836
:102E00007602031D092F71087502031D092F700832
:102E10007402031C0C2F0D2F1C2F7008F402710874
:102E2000031C710FF5027208031C720FF60273087F
:102E3000031C730FF702221401300310F30CF20C81
:102E4000F10CF00CFF3E031D1D2F0130A002031DED
:102E50002A2F2B2FF22E210803192F2F302F3B2F33
:102E6000A209A309A409A509A20A0319A30A03191F
:102E7000A40A0319A50A2508F3002408F200230870
:102E8000F1002208F000080083120313AE002E08A0
:102E900003194B2F4C2F602FA91F4F2F502F602F3E
:102EA0002609B0002709B1002809B2002909B3009A
:102EB000B00A0319B10A0319B20A0319B30A682F39
:102EC0002908B3002808B2002708B1002608B0007E
:102ED0002908280427042604031D6F2F702F792F3B
:102EE0000030A9000030A8000030A7000030A60084
:102EF000FF2F9630AA002A08AF008B2F0130AA00BE
:102F00002A08AF0701300310B30CB20CB10CB00C9F
:102F1000FF3E031D832FFE303305031D902F912F9D
:102F20007E2FAD2F0130AA002A08AF070130B0076D
:102F3000003003180130B107003003180130B20728
:102F4000003003180130B30701300310B30CB20C8A
:102F5000B10CB00CFF3E031DA52FFF303305031D40
:102F6000B22FB32F922FBF2F0130AF020130AA0032
:102F70000310B00DB10DB20DB30DAA0BB82FB21BDB
:102F8000C22FC32FC92F02302F020318C82FC92FF9
:102F9000B42F2F18CC2FCD2FD52FFF30B005FF30F9
:102FA000B1057F30B205FF30B3050310AF0C2F0819
:102FB000AA00AB01AC01AD0118300310AA0DAB0D96
:102FC000AC0DAD0DFF3E031DDD2F2A08B0042B080C
:102FD000B1042C08B2042D08B3042E080319F12FF4
:102FE000F22FF72FA91FF52FF62FF72FB31733085E
:102FF000A9003208A8003108A7003008A600080080
:02400E003A3F37
:00000001FF
