:100000000A128A11C42FF5011A2875087207840094
:1000100073080318730AFF000A128A1500200A12D7
:100020008A110A128A1545200A128A110130F40039
:100030007408F50775087207840073080318730ABB
:1000400083120313FF000A128A1500200A128A1174
:10005000003A031D2C282D280528080083120313BD
:10006000AE002E080319352836284A28A91F39283A
:100070003A284A282609B0002709B1002809B20009
:100080002909B300B00A0319B10A0319B20A031906
:10009000B30A52282908B3002808B2002708B10083
:1000A0002608B0002908280427042604031D59281F
:1000B0005A2863280030A9000030A8000030A700AB
:1000C0000030A600E9289630AA002A08AF0075285B
:1000D0000130AA002A08AF0701300310B30CB20C9C
:1000E000B10CB00CFF3E031D6D28FE303305031D1F
:1000F0007A287B28682897280130AA002A08AF07A9
:100100000130B007003003180130B1070030031888
:100110000130B207003003180130B307013003107B
:10012000B30CB20CB10CB00CFF3E031D8F28FF3096
:100130003305031D9C289D287C28A9280130AF0287
:100140000130AA000310B00DB10DB20DB30DAA0B12
:10015000A228B21BAC28AD28B32802302F02031806
:10016000B228B3289E282F18B628B728BF28FF30FA
:10017000B005FF30B1057F30B205FF30B305031085
:10018000AF0C2F08AA00AB01AC01AD011830031071
:10019000AA0DAB0DAC0DAD0DFF3E031DC7282A08FF
:1001A000B0042B08B1042C08B2042D08B3042E08A7
:1001B0000319DB28DC28E128A91FDF28E028E12833
:1001C000B3173308A9003208A8003108A700300887
:1001D000A60008008316031338033904031DF12811
:1001E000F228F82887300A168A11F3260A128A1193
:1001F00002308316031338063904031D0029012930
:100200000729C7300A168A11F3260A128A11033009
:100210008316031338063904031D0F2910291629E4
:100220008F300A168A11F3260A128A1104308316B7
:10023000031338063904031D1E291F292529CF3031
:100240000A168A11F3260A128A1183160313350837
:100250005706031D2D293408560603193029312964
:10026000B329E830F7000330F8005708FA005608C1
:10027000F9000A128A1563210A128A11780883127A
:100280000313AF007708AE006430F7000030F800C9
:10029000831603135708F3005608F200E830F00005
:1002A0000330F1000A128A150A210A128A11710814
:1002B000FA007008F9000A128A1563210A128A11DD
:1002C000780883120313B1007708B00083300A1650
:1002D0008A11F3260A128A112930F2008030F300C5
:1002E0000A128A1103200A128A1183300A168A110F
:1002F000F3260A128A112F3083120313AD002D0842
:10030000A0002F08A2002E08A10090300A128A1522
:10031000E4240A128A119030F2000130F3000A122C
:100320008A1103200A128A112F3083120313AD00A1
:100330002D08A0003108A2003008A10090300A1258
:100340008A15E4240A128A119030F2000130F30079
:100350000A128A1103200A128A11831603135708FE
:10036000B5005608B4002F085506031DB9292E08FC
:1003700054060319BC29BD29F929C3300A168A116C
:10038000F3260A128A112330F2008030F3000A1299
:100390008A1103200A128A11C3300A168A11F32621
:1003A0000A128A112F3083120313AD002D08A0000A
:1003B00083160313550883120313A2008316031335
:1003C000540883120313A10090300A128A15E42402
:1003D0000A128A119030F2000130F3000A128A11D9
:1003E00003200A128A11831603135508AF0054081C
:1003F000AE002D085306031DFF292C0852060319D1
:10040000022A032A3F2A8B300A168A11F3260A127F
:100410008A112330F2008030F3000A128A1103207F
:100420000A128A118B300A168A11F3260A128A11CF
:100430002F3083120313AD002D08A0008316031381
:10044000530883120313A200831603135208831266
:100450000313A10090300A128A15E4240A128A11AB
:100460009030F2000130F3000A128A1103200A12C0
:100470008A11831603135308AD005208AC002B08F1
:100480003106031D452A2A0830060319482A492A3D
:10049000852ACB300A168A11F3260A128A112330D4
:1004A000F2008030F3000A128A1103200A128A1126
:1004B000CB300A168A11F3260A128A112F308312C2
:1004C0000313AD002D08A000831603133108831217
:1004D0000313A20083160313300883120313A10031
:1004E00090300A128A15E4240A128A119030F20020
:1004F0000130F3000A128A1103200A128A118316AE
:1005000003133108AB003008AA000800831203135C
:100510003B088039BC003C08C5003B08BC003C07D8
:10052000BD003D08CC00BA1F962A972A982A4C1481
:100530004C0803199C2A9D2AAD2A4C0A031DA12AA6
:10054000A22AAA2A0030BB000030BA000030B9004D
:100550000030B800BA17BB01B52A0030BB0000302C
:10056000BA000030B9000030B80037088039BC004C
:100570003C08C5063708BC003C07BD003D08CD005F
:10058000B61FC32AC42AC52A4D144D080319C92A07
:10059000CA2ADA2A4D0A031DCE2ACF2AD72A0030CA
:1005A000B7000030B6000030B5000030B400B61718
:1005B000B701E22A0030B7000030B6000030B500C5
:1005C0000030B4003708360435043404031DE92A2A
:1005D000EA2A032B0030BB000030BA000030B9001B
:1005E0000030B8008030BA047F30BB044508BC003E
:1005F0003C08BB043B08B7003A08B6003908B50010
:100600003808B400622C4C08031D072B082B112B53
:100610000030B7000030B6000030B5000030B40044
:10062000622C4C08BC00BD013D08BF004D083C02D7
:10063000BE00031CBF033E087F3EC6003F080318F0
:10064000013E003EC7003B08C4003A08C300390819
:10065000C2003808C1000030BB000030BA000030D2
:10066000B9000030B8000030CB000030CA000030C4
:10067000C9000030C800CD01872B4D080319412B5C
:10068000422B622B0130BC000310C10DC20DC30D03
:10069000C40DBC0B442B0130BC000310B80DB90DC8
:1006A000BA0DBB0DBC0B4D2BCB1F572B582B592B09
:1006B00038140130BC000310C80DC90DCA0DCB0D94
:1006C000BC0B5B2B37084402031D702B360843021A
:1006D000031D702B35084202031D702B34084102A4
:1006E000031C732B742B832B4B173408C102350862
:1006F000031C350FC2023608031C360FC30237082D
:10070000031C370FC4020130BC003C08CD071A306F
:100710004D02031C8C2B8D2B3D2B440843044204BB
:1007200041040319942B952BB42B4814B42B01309E
:10073000BC000310B80DB90DBA0DBB0DBC0B992B45
:10074000CB1FA32BA42BA52B38140130BC00031006
:10075000C80DC90DCA0DCB0DBC0BA72BFF30C607AA
:100760000318C70AFF30C707BA1FB72BB82B972B40
:10077000CD01CB1FBC2BBD2BD92BFF304805BC00B6
:10078000FF304905BD00FF304A05BE007F304B05F4
:10079000BF003F083E043D043C040319D02BD12B7D
:1007A000D42BCD01CD0AD92B381CD72BD82BD92B44
:1007B000D12B4D080319DD2BDE2B0F2C0130B80790
:1007C000003003180130B907003003180130BA07B0
:1007D000003003180130BB073B1CEF2BF02B0F2C14
:1007E0003808BC003908BD003A08BE003B08BF000D
:1007F0000130C0003F0DBF0CBE0CBD0CBC0CC00BCB
:10080000FA2B3F08BB003E08BA003D08B9003C087F
:10081000B8000130C6070318C70A0030C7074708E9
:10082000803AFF0080307F02031D182CFF30460203
:10083000031C1B2C1C2C2A2CFF3083120313C60014
:100840000030C7000030BB000030BA000030B900F3
:100850000030B800831203134708803AFF0080304D
:100860007F02031D352C013046020318382C392C29
:10087000462C83120313C601C7010030BB000030B1
:10088000BA000030B9000030B800C501831203136C
:100890004608BC003C08CC004C1C4F2C502C522C61
:1008A000BA17562C7F30BC003C08BA054C08BC0077
:1008B00003103C0CBD003D08BB004508BC003C08D3
:1008C000BB04FA2A08008312031351088039D600AA
:1008D0005608DB005108D6005607D7005708E1003C
:1008E000D01F732C742C752C611461080319792C9A
:1008F0007A2C892C610A031D7E2C7F2C872C0030DA
:10090000D1000030D0000030CF000030CE00D01732
:10091000912C0030D1000030D0000030CF000030EA
:10092000CE0055088039D6005608DB065508D6009B
:100930005607D7005708E000D41F9F2CA02CA12CED
:10094000601460080319A52CA62CB52C600A031DA1
:10095000AA2CAB2CB32C0030D5000030D4000030D2
:10096000D3000030D200D417BD2C0030D5000030A9
:10097000D4000030D3000030D20060080319C12C2D
:10098000C22CC72C6108031DC62CC72CD02C0030EC
:10099000D1000030D0000030CF000030CE00C32F97
:1009A0004E08D6005608F00054080A168A1140274F
:1009B0000A128A11710883120313E7007008E60017
:1009C0006608D600D701D801D9015908DF005808B8
:1009D000DE005708DD005608DC006708D600D701A6
:1009E000D801D9015908E5005808E4005708E30088
:1009F0005608E2004F08D6005608F00053080A16C1
:100A00008A1140270A128A11710883120313E70022
:100A10007008E6006608D600D701D801D90156084B
:100A2000DC07570803110318013E0319182DDD07D1
:100A3000580803110318013E03191F2DDE0759083A
:100A400003110318013E0319262DDF076708D6009E
:100A5000D701D801D9015608E20757080311031836
:100A6000013E0319342DE307580803110318013E12
:100A700003193B2DE407590803110318013E03191C
:100A8000422DE5075008D6005608F00052080A1615
:100A90008A1140270A128A11710883120313E70092
:100AA0007008E6006608D600D701D801D9015608BB
:100AB000DC07570803110318013E0319602DDD07F9
:100AC000580803110318013E0319672DDE07590862
:100AD00003110318013E03196E2DDF076708D600C6
:100AE000D701D801D9015608E207570803110318A6
:100AF000013E03197C2DE307580803110318013E3A
:100B00000319832DE407590803110318013E031943
:100B10008A2DE5070830D6000310DC0DDD0DDE0D53
:100B2000DF0DD60B8C2D4F08D6005608F00052086A
:100B30000A168A1140270A128A11710883120313B8
:100B4000E7007008E6006608D6006708D700D801FD
:100B5000D9015608DC07570803110318013E031991
:100B6000B22DDD07580803110318013E0319B92DF2
:100B7000DE07590803110318013E0319C02DDF07D2
:100B80004E08D6005608F00053080A168A1140276E
:100B90000A128A11710883120313E7007008E60035
:100BA0006608D6006708D700D801D9015608DC07C7
:100BB000570803110318013E0319DF2DDD075808FC
:100BC00003110318013E0319E62DDE07590803112E
:100BD0000318013E0319ED2DDF070830D60003107E
:100BE000DC0DDD0DDE0DDF0DD60BEF2D4E08D60032
:100BF0005608F00052080A168A1140270A128A1174
:100C0000710883120313E7007008E6006608D60037
:100C10006708D700D801D9015608DC075708031127
:100C20000318013E0319152EDD0758080311031898
:100C3000013E03191C2EDE07590803110318013E5B
:100C40000319232EDF074F08D6005608F00054087A
:100C50000A168A1140270A128A1171088312031397
:100C6000E7007008E6006608D6006708D700D801DC
:100C7000D9015608E207570803110318013E03196A
:100C8000422EE307580803110318013E0319492EA9
:100C9000E407590803110318013E0319502EE50714
:100CA0005008D6005608F00053080A168A1140274B
:100CB0000A128A11710883120313E7007008E60014
:100CC0006608D6006708D700D801D9015608E207A0
:100CD000570803110318013E03196F2EE307580844
:100CE00003110318013E0319762EE4075908031176
:100CF0000318013E03197D2EE5075008D60056085B
:100D0000F00054080A168A1140270A128A11710845
:100D100083120313E7007008E6006608D600670830
:100D2000D700D801D90108300310D60DD70DD80D42
:100D3000D90DFF3E031D942E5608E20757080311F4
:100D40000318013E0319A52EE307580803110318E1
:100D5000013E0319AC2EE407590803110318013EA4
:100D60000319B32EE5075C08D6005D08D7005E08BE
:100D7000D8005F08D90018300310D90CD80CD70C54
:100D8000D60CFF3E031DBC2E5608E2075708031180
:100D90000318013E0319CD2EE30758080311031869
:100DA000013E0319D42EE407590803110318013E2C
:100DB0000319DB2EE5070830D6000310DC0DDD0D2E
:100DC000DE0DDF0DD60BDD2E61086007D600D701E2
:100DD000D70D5608823EE60057080318013EFF3E35
:100DE000E7000F2F0130D6000310E20DE30DE40DF4
:100DF000E50DD60BF42EDF1FFE2EFF2E002F621402
:100E00000130D6000310DC0DDD0DDE0DDF0DD60B3D
:100E1000022FFF30E6070318E70AFF30E707E41F59
:100E2000122F132FF22EE001DF1F172F182F342F50
:100E3000FF305C05D600FF305D05D700FF305E0552
:100E4000D8007F305F05D90059085804570456046C
:100E500003192B2F2C2F2F2FE001E00A342F621CB7
:100E6000322F332F342F2C2F60080319382F392FAE
:100E70006A2F0130E207003003180130E307003029
:100E800003180130E407003003180130E507651C42
:100E90004A2F4B2F6A2F6208D6006308D7006408D8
:100EA000D8006508D9000130DA00590DD90CD80CEA
:100EB000D70CD60CDA0B552F5908E5005808E4007A
:100EC0005708E3005608E2000130E6070318E70A76
:100ED0000030E7076708803AFF0080307F02031D7B
:100EE000732FFF306602031C762F772F822F7F30FF
:100EF00083120313E5008030E4000030E30000308B
:100F0000E200B72F831203136708803AFF00803096
:100F10007F02031D8D2F013066020318902F912F41
:100F20009D2F003083120313E5000030E4000030F1
:100F3000E3000030E200DB01B72F831203136608E1
:100F4000D6005608E100FF30E205FF30E3057F30B0
:100F5000E4050030E505611CAE2FAF2FB02FE4177C
:100F60006108D6000310560CD7005708E5005B084F
:100F7000D6005608E5046508D1006408D00063086F
:100F8000CF006208CE000800831603130A168A11E8
:100F9000C8260A128A11D2000A168A11C9260A1214
:100FA0008A11D3000A168A11CA260A128A11D4009D
:100FB0000A168A11CB260A128A11D5000A168A113E
:100FC000CC260A128A11D6000A168A11CD260A12D8
:100FD0008A11D700831790308400B0300A168A1126
:100FE000CE260A128A118313A0308400C6300A1656
:100FF0008A11CE260A128A1183010A128A15CC2977
:10100000FF1B0A2883137F1883170008840A03191B
:10101000FF0A080008308A000408840A82070034A6
:10102000013400340A34003464340034E8340334C6
:10103000103427344B3450343A34203420342034A4
:10104000203420344B3444343A3400345434503453
:101050003A34203420344334203420344B3449345F
:101060003A34003420342034203420342034003406
:101070002034203443342034203400342534643484
:0210800000343A
:10108A00F10083120313891471080A168A11C22601
:10109A000A128A1583120313091489108914080085
:1010AA00831203132608F9002708FA002808FB0010
:1010BA002908FC0002300310F90DFA0DFB0DFC0D96
:1010CA00FF3E031D602802300310F90DFA0DFB0DD7
:1010DA00FC0DFF3E031D69287C08F3007B08F20023
:1010EA007A08F1007908F0000030F7003D30F60088
:1010FA000930F5000030F4000A128A15DB220A12C0
:10110A008A157008FF3E83160313920008007808B8
:10111A007904031991289228C128FD01FD0AA02803
:10112A0001300310F80DF90DFF3E031D962801301A
:10113A00FC007C08FD07F91FA328A4289528790834
:10114A007B02031DAA2878087A02031CAD28AE2860
:10115A00B4287808FA027908031CFB03FB02013061
:10116A000310F90CF80CFF3E031DB5280130FD02EF
:10117A00031DC028C128A4287B08F9007A08F800B2
:10118A000800F501F601700871040319CD28CE286C
:10119A000529F701F70ADC2801300310F00DF10DDB
:1011AA00FF3E031DD2280130F4007408F707F11F2F
:1011BA00DF28E028D12801300310F50DF60DFF3E97
:1011CA00031DE12871087302031DED2870087202DD
:1011DA00031CF028F128F8287008F2027108031C91
:1011EA00F303F302751401300310F10CF00CFF3E07
:1011FA00031DF9280130F702031D04290529E028F7
:10120A007608F1007508F0000800F601F31F0E29B0
:10121A000F291629F209F309F20A0319F30AF6014A
:10122A00F60AF11F19291A291F29F009F109F00AEA
:10123A000319F10A7008710403192429252954296C
:10124A00F501F50A332901300310F00DF10DFF3EC7
:10125A00031D29290130F4007408F507F11F362906
:10126A003729282971087302031D3D297008720263
:10127A00031C4029412947297008F2027108031CFE
:10128A00F303F30201300310F10CF00CFF3E031DCF
:10129A0048290130F502031D5329542937297608B4
:1012AA000319582959295E29F209F309F20A03197F
:1012BA00F30A7308F1007208F0000800831203139E
:1012CA00A101F81F69296A297129F709F809F70A9A
:1012DA000319F80AA101A10AFA1F742975297E299E
:1012EA00F909FA09F90A0319FA0A0130FB007B081D
:1012FA00A106A201A3017708780403198529862982
:10130A00BD29A001A00A942901300310F70DF80D98
:10131A00FF3E031D8A290130FB007B08A007F81F46
:10132A0097299829892901300310A20DA30DFF3EA0
:10133A00031D992978087A02031DA52977087902DD
:10134A00031CA829A929B0297708F9027808031CDF
:10135A00FA03FA02221401300310F80CF70CFF3ECC
:10136A00031DB1290130A002031DBC29BD299829FA
:10137A0021080319C129C229C729A209A309A20A56
:10138A000319A30A2308F8002208F7000800FF300F
:10139A008316031385000F308600870188018901AF
:1013AA0007308100A0308B000930831203138100BB
:1013BA000A168A11D6260A128A150A168A11DF26F1
:1013CA000A128A150A168A11E8260A128A150A16B4
:1013DA008A11CA270A128A1580300A168A11F32638
:1013EA000A128A151730F2008030F3000A128A11A5
:1013FA0003200A128A15C0300A168A11F3260A1225
:10140A008A150B30F2008030F3000A128A11032089
:10141A000A128A150A128A15CC250A128A150B0C89
:10142A0083160313CF004F0C0139D000D1015008A5
:10143A00A0070318A10A5108A107003021027D3034
:10144A0003192002031C2A2A2B2A322AA001A101ED
:10145A000A128A15CD260A128A150A168A116727D0
:10146A000A128A150A128A11EA200A128A150F2A02
:10147A000A128A1100280310831203136A0D6B0DD6
:10148A0083160313C6004608FC007C08031D4E2A77
:10149A004F2A592A00308312EB000030EA0000304C
:1014AA00E9000030E800DA2A831203136808831679
:1014BA000313C60083120313690883160313C700B4
:1014CA00831203136A0883160313C80083120313D3
:1014DA006B0883160313C9001F300310C90CC80C0C
:1014EA00C70CC60CFF3E031D722A4608CA004A08EA
:1014FA00FB0083120313EA17FF30E805FF30E90502
:10150A00FF30EA050030EB059630FC02FC1F8E2AFC
:10151A008F2AAC2A7C08803A973E0318952A962A85
:10152A00972A4F2A013003108312EB0CEA0CE90CBC
:10153A00E80CFF3E031D982A013083160313C600E8
:10154A004608FC07031DAA2AAB2A972AC92A203073
:10155A007C02031CB12AB22AC42A4F2A01308316FC
:10156A000313C600031083120313E80DE90DEA0DF5
:10157A00EB0D83160313C60BB72A0130FC027C0855
:10158A00031DC82AC92AB32A7B080319CD2ACE2AE1
:10159A00DA2A8312E809E909EA09EB09E80A0319D0
:1015AA00E90A0319EA0A0319EB0A0800831203136A
:1015BA00A101F31FE12AE22AEF2AF009F109F2094F
:1015CA00F309F00A0319F10A0319F20A0319F30AD3
:1015DA00A101A10AF71FF22AF32A022BF409F5093D
:1015EA00F609F709F40A0319F50A0319F60A0319A1
:1015FA00F70A0130F8007808A1060030A50000308B
:10160A00A4000030A3000030A20073087204710421
:10161A0070040319112B122B5F2BA001A00A222B95
:10162A000130F8000310F00DF10DF20DF30DF80B77
:10163A00172B0130F8007808A007F31F252B262B5B
:10164A00152B0130F8000310A20DA30DA40DA50D52
:10165A00F80B282B73087702031D3D2B72087602BC
:10166A00031D3D2B71087502031D3D2B7008740282
:10167A00031C402B412B502B7008F4027108031CE9
:10168A00710FF5027208031C720FF6027308031C2D
:10169A00730FF702221401300310F30CF20CF10C51
:1016AA00F00CFF3E031D512B0130A002031D5E2BDF
:1016BA005F2B262B21080319632B642B6F2BA2099E
:1016CA00A309A409A509A20A0319A30A0319A40ACA
:1016DA000319A50A2508F3002408F2002308F100DB
:1016EA002208F0000800831203136E08A6006F0890
:1016FA00A700A801A9010A128A1555200A128A15FB
:10170A000430831203136D02003003196C020318AC
:10171A008F2B902B2D2C6C08A6006D08A700A80112
:10172A00A90100300A128A112E200A128A15831280
:10173A0003132908BB002808BA002708B90026089D
:10174A00B8004430B7007F30B600C030B500003072
:10175A00B4000A128A1186220A128A158312031306
:10176A003708D5003608D4003508D3003408D2002B
:10177A000030F7003D30F6000930F5000030F40083
:10178A006F0883160313CC00831203136E088316A3
:10179A000313CB000310CB0DCC0D0310CB0DCC0DD6
:1017AA004B08F0004C08F100F201F3010A128A1505
:1017BA00DB220A128A15730883120313A90072081E
:1017CA00A8007108A7007008A60001300A128A1141
:1017DA002E200A128A15831203132908D100280819
:1017EA00D0002708CF002608CE000A128A116324E7
:1017FA000A128A15831203135108EB005008EA00F3
:10180A004F08E9004E08E8000A128A1540220A1217
:10181A008A15831203136908ED006808EC009D120B
:10182A006C18182C1C2C831203131D161F2C8312E0
:10183A0003131D126C0883160313CB000230031026
:10184A00CB0CFF3E031D242C4B08831203139B0071
:10185A000800831203136E08A6006F08A700A801E8
:10186A00A9010A128A1555200A128A150430831210
:10187A0003136D02003003196C020318452C462C21
:10188A00E32C6C08A6006D08A700A801A901003086
:10189A000A128A112E200A128A15831203132908A2
:1018AA00BB002808BA002708B9002608B800443047
:1018BA00B7007F30B600C030B5000030B4000A125D
:1018CA008A1186220A128A15831203133708D50051
:1018DA003608D4003508D3003408D2000030F700A7
:1018EA003D30F6000930F5000030F4006F08831629
:1018FA000313CC00831203136E0883160313CB0061
:10190A000310CB0DCC0D0310CB0DCC0D4B08F00002
:10191A004C08F100F201F3010A128A15DB220A12BD
:10192A008A15730883120313A9007208A8007108A4
:10193A00A7007008A60001300A128A112E200A1286
:10194A008A15831203132908D1002808D000270812
:10195A00CF002608CE000A128A1163240A128A15B9
:10196A00831203135108EB005008EA004F08E900FC
:10197A004E08E8000A128A1540220A128A158312B2
:10198A0003136908ED006808EC0097126C18CE2C56
:10199A00D22C831203131716D52C83120313171292
:1019AA006C0883160313CB0002300310CB0CFF3EE6
:1019BA00031DDA2C4B0883120313950008008312C7
:1019CA000313AB002130A3002308A600B52D253050
:1019DA002C060319F12CF22CFE2C2C08A3002B0840
:1019EA0084002308831780000130A3002308AB0773
:1019FA00B52DA7010130A007FF30200784000A1285
:101A0A008A150A200A128A15AC00A300A401240828
:101A1A00003A0319112DB52D2308003A0319C72DD1
:101A2A00643A03191C2D0D3A03191C2DB52D2608ED
:101A3A00840083130008A900840A0008AA0002305F
:101A4A00A3002308A607AA1F2B2D2C2D352D033002
:101A5A00A3002308A704A909AA09A90A0319AA0A1B
:101A6A00AC01AC0A2C08A3002307013E84000A1229
:101A7A008A150A200A128A15A4000A128A150A204F
:101A8A000A128A15A50025082A02031D4E2D2408CC
:101A9A0029020318512D522D532D5D2D0130A3001B
:101AAA002308AC0705302C06031D5C2D5D2D372D50
:101ABA00270803390319622D632D6E2D2D30A300DB
:101ACA002B0884002308831780000130A300230811
:101ADA00AB072C08A3002308A800AC2D0A30F80095
:101AEA000030F9002808A3002307013E84000A12E7
:101AFA008A150A200A128A15F0000A128A150A2083
:101B0A000A128A15F1002A08F3002908F2000A12BB
:101B1A008A15C6200A128A157108FB007008FA0095
:101B2A000A128A158C200A128A157808303E831206
:101B3A000313A4002408AC002C08A3002B0884007B
:101B4A002308831780000130A3002308AB07FF3066
:101B5A00A3002308A807280A031DB42DB52D732D49
:101B6A000130A007FF30200784000A128A150A20D4
:101B7A000A128A15A3002308AC002C08031DC62DDF
:101B8A00C72DEC2C2B088400831780010800003035
:101B9A00831203130618013083160313C400440882
:101BAA000319D82DD92D112E4508031DDD2DDE2D43
:101BBA00112E38033904031DE32DE42DEA2D643078
:101BCA00D6070318D70A0030D70702303806390477
:101BDA00031DF02DF12DF72D0530D4070318D50A72
:101BEA000030D507033038063904031DFD2DFE2DBC
:101BFA00042E0130D2070318D30A0030D307043069
:101C0A0038063904031D0A2E0B2E112E0130B00797
:101C1A000318B10A0030B1074408F2007208C5007F
:101C2A000030831203138618013083160313C2008F
:101C3A0042080319212E222E5A2E4308031D262E4E
:101C4A00272E5A2E38033904031D2C2E2D2E332EFF
:101C5A009C30D6070318D70AFF30D7070230380658
:101C6A003904031D392E3A2E402EFB30D4070318AF
:101C7A00D50AFF30D507033038063904031D462E2E
:101C8A00472E4D2EFF30D2070318D30AFF30D30751
:101C9A00043038063904031D532E542E5A2EFF30B1
:101CAA00B0070318B10AFF30B1074208F200720800
:101CBA00C30000308312031306190130831603137D
:101CCA00C000400803196A2E6B2E742E4108031DAA
:101CDA006F2E702E742E5708B7005608B6004008AB
:101CEA00F2007208C1000030831203138619013012
:101CFA0083160313BE003E080319842E852E9B2EDD
:101D0A003F08031D892E8A2E9B2E0130B80703181F
:101D1A00B90A0030B907053038063904031D962E72
:101D2A00972E9B2E0130B8000030B9003E08F20011
:101D3A007208BF005508F1005408F0000A168A110B
:101D4A0003270A128A15710883160313D50070082F
:101D5A00D4005308F1005208F0000A168A1103272A
:101D6A000A128A15710883160313D3007008D20069
:101D7A003108F1003008F0000A168A1103270A1206
:101D8A008A15710883160313B1007008B0000800A1
:101D9A0000300A168A1196270A128A157108F60067
:101DAA007008F5000A30F7000030F8000A168A11A8
:101DBA001B270A128A15750883160313CD007608A5
:101DCA00CE000310CE0CCD0C0310CE0CCD0C03109C
:101DDA00CE0CCD0C4D086A3EBC004E080318013EDD
:101DEA00FF3EBD000A30F7000030F8003708FA005D
:101DFA003608F9000A128A1563210A128A1583160F
:101E0A0003133C087702B2003D08031C3D0A78021E
:101E1A00B3005508F6005408F5003308F8003208F4
:101E2A00F7000A168A111B270A128A1576088316E2
:101E3A000313A9007508A8005308F8005208F70010
:101E4A003308F6003208F5000A168A111B270A120F
:101E5A008A15750883120313A6007608A7000030B6
:101E6A00A71BFF30A800A90001300A128A112E20F0
:101E7A000A128A15831203132908D5002808D400E8
:101E8A002708D3002608D2003D30D100CC30D0003C
:101E9A00CC30CF00CD30CE000A128A1163240A1248
:101EAA008A15831203135108EB005008EA004F0801
:101EBA00E9004E08E8000A128A1540220A128A1519
:101ECA0083120313680883160313A6070318A70AC5
:101EDA0083120313690883160313A7073108F8004E
:101EEA003008F7003C083A02F5003D08031C3D0A99
:101EFA003B02F6000A168A111B270A128A15750870
:101F0A0083120313A6007608A7000030A71BFF3030
:101F1A00A800A90001300A128A112E200A128A1575
:101F2A00831203132908BB002808BA002708B9003E
:101F3A002608B8003D30B700CC30B600CC30B5002A
:101F4A00CD30B4000A128A1186220A128A15831227
:101F5A0003133708EB003608EA003508E9003408AD
:101F6A00E8000A128A1540220A128A1583120313FC
:101F7A00680883160313A4070318A50A8312031318
:101F8A00690883160313A5073D08BB003C08BA007D
:101F9A0026082807CD0027080318270A2907CE0094
:101FAA0024084D07A20025080318250A4E07A30096
:101FBA002308F1002208F0000A168A1103270A12E0
:101FCA008A15710883160313A3007008A200230858
:101FDA0083120313ED0083160313220883120313DB
:101FEA00EC00A030EE000F30EF000A128A152E2402
:061FFA000A128A1508001E
:102D8400F000700883120313880008000334003431
:102D94001E3400347C34153464008001840A040633
:102DA400031900340406CF2E8030831603139F00CA
:102DB400C130831203139F00080083120313971575
:102DC4001715121583160313071108008312031332
:102DD4009D151D15121492101215831603138710D6
:102DE4000800F10083120313891471080A168A116A
:102DF400C2260A168A118312031309108910891432
:102E04000800F11F062F072F092FF001F1017108A7
:102E1400803AFF0084307F02031D122F00307002BD
:102E2400031C152F162F1A2FFF30F0000330F1006A
:102E34000800F901FA01751C202F212F272F77088C
:102E4400F9070318FA0A7808FA0701300310F70D96
:102E5400F80DFF3E031D282F01300310F60CF50C6E
:102E6400FF3E031D2F2F75087604031D3A2F3B2FB9
:102E74001D2F7A08F6007908F5000800F800F4011F
:102E8400F5017008F200F3017208F6007308F70008
:102E9400781C4D2F4E2F542F7608F4070318F50A8B
:102EA4007708F50701300310F60DF70DFF3E031DFB
:102EB400552F0310F80C7808031D612F622F4A2F39
:102EC4007508F1007408F000080001300A168A1130
:102ED40096270A168A11710883160313CE00700808
:102EE400CD004E08F1004D08F0000A168A110327A0
:102EF4000A168A11710883160313CE007008CD00D8
:102F04004E0883120313ED00831603134D08831236
:102F14000313EC00A030EE000F30EF000A128A1504
:102F240078230A168A110800F40008307402031C7E
:102F34009C2F9D2FA02FF001F101C92FC530F20065
:102F44007208831203139F057408F2000230031001
:102F5400F20DFF3E031DA92F0310720DF300730839
:102F64009F040330F3009730F200F20BB72FF30BFA
:102F7400B72FBC2F831203131F151F19C22FC32F82
:102F8400BF2F1E08F100831603131E08F00008006B
:102F94008312031389100910891438300A168A1110
:102FA400F3260A168A1138300A168A11F3260A16ED
:102FB4008A1138300A168A11F3260A168A11083043
:102FC4000A168A11F3260A168A110F300A168A1174
:102FD400F3260A168A1101300A168A11F3260A16F4
:102FE4008A1138300A168A11F3260A168A1180309B
:0C2FF4000A168A11F3260A168A1108003A
:02400E003A3F37
:00000001FF
