:060000000A128A11DC2F38
:10000C007808790403190B280C283B28FD01FD0AFC
:10001C001A2801300310F80DF90DFF3E031D1028AE
:10002C000130FC007C08FD07F91F1D281E280F2835
:10003C0079087B02031D242878087A02031C2728E0
:10004C0028282E287808FA027908031CFB03FB02E7
:10005C0001300310F90CF80CFF3E031D2F28013062
:10006C00FD02031D3A283B281E287B08F9007A085C
:10007C00F8000800831603133C033D04031D4728B6
:10008C0048284E2887300A168A112A230A128A1108
:10009C000230831603133C063D04031D56285728D3
:1000AC005D28C7300A168A112A230A128A110330D6
:1000BC00831603133C063D04031D652866286C2833
:1000CC008F300A168A112A230A128A1104308316D9
:1000DC0003133C063D04031D742875287B28CF3080
:1000EC000A168A112A230A128A11831603133B0853
:1000FC006806031D83283A08670603198628872893
:10010C000929E830F7000330F8006808FA0067089E
:10011C00F9000A168A1140250A128A1178088312EE
:10012C000313AF007708AE006430F7000030F8001E
:10013C00831603136808F3006708F200E830F00038
:10014C000330F1000A168A11E7240A128A11710889
:10015C00FA007008F9000A168A1140250A128A1151
:10016C00780883120313B1007708B00083300A16A5
:10017C008A112A230A128A112930F2008030F300E6
:10018C000A168A110E240A128A1183300A168A1151
:10019C002A230A128A112F3083120313AD002D0863
:1001AC00A0002F08A2002E08A10090300A128A1578
:1001BC00A3220A128A119030F2000130F3000A16C1
:1001CC008A110E240A128A112F3083120313AD00E8
:1001DC002D08A0003108A2003008A10090300A12AE
:1001EC008A15A3220A128A119030F2000130F30012
:1001FC000A168A110E240A128A1183160313680830
:10020C00BB006708BA0039086606031D0F293808B9
:10021C0065060319122913294F29C3300A168A11AE
:10022C002A230A128A112330F2008030F3000A16B6
:10023C008A110E240A128A11C3300A168A112A2333
:10024C000A128A112F3083120313AD002D08A0005F
:10025C0083160313660883120313A2008316031379
:10026C00650883120313A10090300A128A15A32289
:10027C000A128A119030F2000130F3000A168A112A
:10028C000E240A128A11831603136608B900650836
:10029C00B80037086406031D552936086306031990
:1002AC005829592995298B300A168A112A230A12A2
:1002BC008A112330F2008030F3000A168A110E24C2
:1002CC000A128A118B300A168A112A230A128A11F1
:1002DC002F3083120313AD002D08A00083160313D7
:1002EC00640883120313A20083160313630883129A
:1002FC000313A10090300A128A15A3220A128A1144
:10030C009030F2000130F3000A168A110E240A1202
:10031C008A11831603136408B7006308B600350806
:10032C006206031D9B293408610603199E299F2927
:10033C00DB29CB300A168A112A230A128A112330A0
:10034C00F2008030F3000A168A110E240A128A1168
:10035C00CB300A168A112A230A128A112F308312E3
:10036C000313AD002D08A00083160313620883123B
:10037C000313A20083160313610883120313A10055
:10038C0090300A128A15A3220A128A119030F200B8
:10039C000130F3000A168A110E240A128A118316F0
:1003AC0003136208B5006108B40008000A30F700B6
:1003BC000030F80000300A168A1139240A128A110A
:1003CC007108F6007008F5000A168A1199230A12B2
:1003DC008A11750883160313D5007608D60003100E
:1003EC00D60CD50C0310D60CD50C0310D60CD50C92
:1003FC0055086A3ED70056080318013EFF3ED80048
:10040C005708D9005808DA00DB01DC015C088312BC
:10041C000313A900831603135B0883120313A800AC
:10042C00831603135A0883120313A70083160313AE
:10043C00590883120313A60000300A168A114427A8
:10044C000A128A1183120313290883160313AB00B3
:10045C0083120313280883160313AA0083120313B1
:10046C00270883160313A900831203132608831687
:10047C000313A8002B0883120313B700831603136E
:10048C002A0883120313B600831603132908831258
:10049C000313B50083160313280883120313B40047
:1004AC00831603136808FA006708F9000A30F7008E
:1004BC000030F8000A168A1140250A128A117708B2
:1004CC0083120313A6007808A7000030A71BFF3087
:1004DC00A800A90001300A168A1144270A128A11B1
:1004EC00831203132908BB002808BA002708B90097
:1004FC002608B8000A168A1175230A128A1183126B
:10050C000313370883160313A3008312031336084F
:10051C0083160313A20083120313350883160313E7
:10052C00A10083120313340883160313A00065087B
:10053C0083120313A6008316031366088312031396
:10054C00A7000030A71BFF30A800A90001300A1635
:10055C008A1144270A128A11831203132908C30033
:10056C002808C2002708C1002608C0008316031300
:10057C00230883120313BF0083160313220883126C
:10058C000313BE0083160313210883120313BD004B
:10059C0083160313200883120313BC000A128A115A
:1005AC007B240A128A11831203133F088316031348
:1005BC00C900831203133E0883160313C800831269
:1005CC0003133D0883160313C700831203133C085F
:1005DC0083160313C6000A168A11A9250A128A115A
:1005EC00831603134708B3004608B200630883124E
:1005FC000313A60083160313640883120313A700C6
:10060C000030A71BFF30A800A90001300A168A1180
:10061C0044270A128A11831203132908C3002808DD
:10062C00C2002708C1002608C00083160313230844
:10063C0083120313BF0083160313220883120313C0
:10064C00BE0083160313210883120313BD00831607
:10065C000313200883120313BC000A128A117B2493
:10066C000A128A11831203133F0883160313E00046
:10067C00831203133E0883160313DF008312031344
:10068C003D0883160313DE00831203133C08831604
:10069C000313DD00600883120313C30083160313D6
:1006AC005F0883120313C200831603135E088312C0
:1006BC000313C100831603135D0883120313C000D8
:1006CC003D30BF00CC30BE00CC30BD00CD30BC00C6
:1006DC000A128A117B240A128A11831203133F080F
:1006EC0083160313C900831203133E0883160313E6
:1006FC00C800831203133D0883160313C70083122B
:10070C0003133C0883160313C6000A168A11A92585
:10071C000A128A11831603134608B0070318B10A8C
:10072C004708B107270883120313BB008316031372
:10073C00260883120313BA008316031325088312A9
:10074C000313B90083160313240883120313B80090
:10075C00831603132B0883120313B700831603139A
:10076C002A0883120313B600831603132908831275
:10077C000313B50083160313280883120313B40064
:10078C000A168A1175230A128A1183120313370869
:10079C00C3003608C2003508C1003408C0008316F7
:1007AC000313610883120313A60083160313620854
:1007BC0083120313A7000030A71BFF30A800A90069
:1007CC0001300A168A1144270A128A118312031364
:1007DC002908BF002808BE002708BD002608BC0059
:1007EC000A128A117B240A128A11831203133F08FE
:1007FC00DD003E08DC003D08DB003C08DA003D3043
:10080C00D900CC30D800CC30D700CD30D6000A126D
:10081C008A158B230A128A11831203135908831623
:10082C000313C90083120313580883160313C8005B
:10083C0083120313570883160313C7008312031381
:10084C00560883160313C6000A168A11A9250A1224
:10085C008A11831603134608AE070318AF0A47081C
:10086C00AF072B08A7002A08A6002908A50028080E
:10087C00A4000430F7000030F80030083207D5002F
:10088C0031080318310A3307D6002E085507F90032
:10089C002F0803182F0A5607FA000A168A1140254A
:1008AC000A128A11780883160313AD007708AC007E
:1008BC002D08F1002C08F0000A168A115D230A128B
:1008CC008A11710883160313AD007008AC002D0853
:1008DC00D0002C08CF00A030D1000F30D2000A126B
:1008EC008A15D3210A128A110800831203133F08B8
:1008FC008039C4004408C9003F08C4004407C5003F
:10090C004508CF00BE1F8B2C8C2C8D2C4F144F0800
:10091C000319912C922CA12C4F0A031D962C972C69
:10092C009F2C0030BF000030BE000030BD000030F6
:10093C00BC00BE17A92C0030BF000030BE00003038
:10094C00BD000030BC0043088039C4004408C9060F
:10095C004308C4004407C5004508CE00C21FB72C8D
:10096C00B82CB92C4E144E080319BD2CBE2CCD2C12
:10097C004E0A031DC22CC32CCB2C0030C3000030FC
:10098C00C2000030C1000030C000C217D52C0030AE
:10099C00C3000030C2000030C1000030C0004E085F
:1009AC000319D92CDA2CDF2C4F08031DDE2CDF2C7D
:1009BC00E82C0030BF000030BE000030BD0000301D
:1009CC00BC00DB2F3C08C4004408F00042080A16A7
:1009DC008A11BE230A128A11710883120313D500DF
:1009EC007008D4005408C400C501C601C7014708EB
:1009FC00CD004608CC004508CB004408CA00550879
:100A0C00C400C501C601C7014708D3004608D2007F
:100A1C004508D1004408D0003D08C4004408F0004B
:100A2C0041080A168A11BE230A128A117108831210
:100A3C000313D5007008D4005408C400C501C601C6
:100A4C00C7014408CA07450803110318013E0319DE
:100A5C00302DCB07460803110318013E0319372D1F
:100A6C00CC07470803110318013E03193E2DCD078F
:100A7C005508C400C501C601C7014408D007450884
:100A8C0003110318013E03194C2DD107460803111D
:100A9C000318013E0319532DD207470803110318FD
:100AAC00013E03195A2DD3073E08C4004408F00038
:100ABC0040080A168A11BE230A128A117108831281
:100ACC000313D5007008D4005408C400C501C60136
:100ADC00C7014408CA07450803110318013E03194E
:100AEC00782DCB07460803110318013E03197F2DFF
:100AFC00CC07470803110318013E0319862DCD07B7
:100B0C005508C400C501C601C7014408D0074508F3
:100B1C0003110318013E0319942DD1074608031144
:100B2C000318013E03199B2DD20747080311031824
:100B3C00013E0319A22DD3070830C4000310CA0DBF
:100B4C00CB0DCC0DCD0DC40BA42D3D08C400440819
:100B5C00F00040080A168A11BE230A128A11710885
:100B6C0083120313D5007008D4005408C400550830
:100B7C00C500C601C7014408CA074508031103187C
:100B8C00013E0319CA2DCB07460803110318013E79
:100B9C000319D12DCC07470803110318013E031983
:100BAC00D82DCD073C08C4004408F00041080A16B3
:100BBC008A11BE230A128A11710883120313D500FD
:100BCC007008D4005408C4005508C500C601C701FC
:100BDC004408CA07450803110318013E0319F72DF1
:100BEC00CB07460803110318013E0319FE2DCC0751
:100BFC00470803110318013E0319052ECD070830D1
:100C0C00C4000310CA0DCB0DCC0DCD0DC40B072E9B
:100C1C003C08C4004408F00040080A168A11BE23A0
:100C2C000A128A11710883120313D5007008D400BC
:100C3C005408C4005508C500C601C7014408CA07BA
:100C4C00450803110318013E03192D2ECB07460846
:100C5C0003110318013E0319342ECC074708031166
:100C6C000318013E03193B2ECD073D08C400440870
:100C7C00F00042080A168A11BE230A128A11710862
:100C8C0083120313D5007008D4005408C40055080F
:100C9C00C500C601C7014408D00745080311031855
:100CAC00013E03195A2ED107460803110318013EC1
:100CBC000319612ED207470803110318013E0319CB
:100CCC00682ED3073E08C4004408F00041080A16F9
:100CDC008A11BE230A128A11710883120313D500DC
:100CEC007008D4005408C4005508C500C601C701DB
:100CFC004408D007450803110318013E0319872E39
:100D0C00D107460803110318013E03198E2ED20792
:100D1C00470803110318013E0319952ED3073E080B
:100D2C00C4004408F00042080A168A11BE230A12B5
:100D3C008A11710883120313D5007008D40054086B
:100D4C00C4005508C500C601C70108300310C40D06
:100D5C00C50DC60DC70DFF3E031DAC2E4408D007B4
:100D6C00450803110318013E0319BD2ED10746088F
:100D7C0003110318013E0319C42ED20747080311AF
:100D8C000318013E0319CB2ED3074A08C4004B08A5
:100D9C00C5004C08C6004D08C70018300310C70C1E
:100DAC00C60CC50CC40CFF3E031DD42E4408D00742
:100DBC00450803110318013E0319E52ED107460817
:100DCC0003110318013E0319EC2ED2074708031137
:100DDC000318013E0319F32ED3070830C400031087
:100DEC00CA0DCB0DCC0DCD0DC40BF52E4F084E07F7
:100DFC00C400C501C50D4408823ED4004508031843
:100E0C00013EFF3ED500272F0130C4000310D00D4A
:100E1C00D10DD20DD30DC40B0C2FCD1F162F172FA8
:100E2C00182F50140130C4000310CA0DCB0DCC0D7B
:100E3C00CD0DC40B1A2FFF30D4070318D50AFF3081
:100E4C00D507D21F2A2F2B2F0A2FCE01CD1F2F2FC4
:100E5C00302F4C2FFF304A05C400FF304B05C50026
:100E6C00FF304C05C6007F304D05C70047084604CF
:100E7C00450444040319432F442F472FCE01CE0AB7
:100E8C004C2F501C4A2F4B2F4C2F442F4E0803191C
:100E9C00502F512F822F0130D00700300318013012
:100EAC00D107003003180130D2070030031801308D
:100EBC00D307531C622F632F822F5008C400510894
:100ECC00C5005208C6005308C7000130C800470DC2
:100EDC00C70CC60CC50CC40CC80B6D2F4708D3002F
:100EEC004608D2004508D1004408D0000130D40790
:100EFC000318D50A0030D5075508803AFF0080301A
:100F0C007F02031D8B2FFF305402031C8E2F8F2F5B
:100F1C009A2F7F3083120313D3008030D20000301D
:100F2C00D1000030D000CF2F831203135508803A24
:100F3C00FF0080307F02031DA52F013054020318DF
:100F4C00A82FA92FB52F003083120313D300003024
:100F5C00D2000030D1000030D000C901CF2F831255
:100F6C0003135408C4004408CF00FF30D005FF30F1
:100F7C00D1057F30D2050030D3054F1CC62FC72FAB
:100F8C00C82FD2174F08C4000310440CC5004508E5
:100F9C00D3004908C4004408D3045308BF005208C6
:100FAC00BE005108BD005008BC0008008313EB3094
:100FBC00FD001330FE001530FF00E13084000A16EE
:100FCC008A114E230A128A11831790308400B03094
:100FDC000A168A11FB220A128A118313A03084008C
:100FEC00C6300A168A11FB220A128A1183010A16CC
:100FFC008A11252EF0007008831203138800080054
:10100C00831203132608F9002708FA002808FB00AE
:10101C002908FC0002300310F90DFA0DFB0DFC0D34
:10102C00FF3E031D112802300310F90DFA0DFB0DC4
:10103C00FC0DFF3E031D1A287C08F3007B08F20010
:10104C007A08F1007908F0000030F7003D30F60026
:10105C000930F5000030F4000A168A11A7260A128E
:10106C008A157008FF3E83160313920008000030A7
:10107C00831203130618013083160313C4004408AB
:10108C00031949284A2882284508031D4E284F2851
:10109C0082283C033D04031D542855285B286430EA
:1010AC00E7070318E80A0030E80702303C063D0465
:1010BC00031D6128622868280130E5070318E60A39
:1010CC000030E60703303C063D04031D6E286F28F4
:1010DC0075280130E3070318E40A0030E4070430F4
:1010EC003C063D04031D7B287C2882280130E10747
:1010FC000318E20A0030E2074408F0007008C5004B
:10110C000030831203138618013083160313C200B8
:10111C004208031992289328CB284308031D9728CB
:10112C009828CB283C033D04031D9D289E28A42809
:10113C009C30E7070318E80AFF30E80702303C064A
:10114C003D04031DAA28AB28B128FF30E50703187E
:10115C00E60AFF30E60703303C063D04031DB728C2
:10116C00B828BE28FF30E3070318E40AFF30E40771
:10117C0004303C063D04031DC428C528CB28FF3091
:10118C00E1070318E20AFF30E2074208F00070089A
:10119C00C3000030831203130619013083160313A6
:1011AC00C0004008F0007008C10000308312031327
:1011BC008619013083160313BE003E080319E72875
:1011CC00E828FE283F08031DEC28ED28FE280130F6
:1011DC00BC070318BD0A0030BD0705303C063D04B2
:1011EC00031DF928FA28FE280130BC000030BD0090
:1011FC003E08F0007008BF00080083160313510866
:10120C0083120313A60083160313520883120313CD
:10121C00A700A801A9010A128A1506200A128A152C
:10122C000430831603135002003003194F020318C5
:10123C0020292129D2294F0883120313A6008316D3
:10124C000313500883120313A700A801A90100304F
:10125C000A168A1144270A128A15831203132908C5
:10126C00DD002808DC002708DB002608DA00443003
:10127C00D9007F30D800C030D7000030D6000A1219
:10128C008A158B230A128A15831203135908C3007B
:10129C005808C2005708C1005608C0000030F700BB
:1012AC003D30F6000930F5000030F40083160313CE
:1012BC005208D4005108D3000310D30DD40D0310E1
:1012CC00D30DD40D5308F0005408F100F201F301D2
:1012DC000A168A11A7260A128A1573088312031399
:1012EC00A9007208A8007108A7007008A6000130B8
:1012FC000A168A1144270A128A1583120313290825
:10130C00BF002808BE002708BD002608BC000A1232
:10131C008A117B240A128A15831203133F08831641
:10132C000313C900831203133E0883160313C8006A
:10133C00831203133D0883160313C7008312031390
:10134C003C0883160313C6000A168A11A9250A1233
:10135C008A15831603134708D0004608CF00831262
:10136C0003139D12831603134F18BD29C129831231
:10137C0003131D16C429831203131D1283160313A2
:10138C004F08D30002300310D30CFF3E031DC929B4
:10139C005308831203139B00080083160313510890
:1013AC0083120313A600831603135208831203132C
:1013BC00A700A801A9010A128A1506200A128A158B
:1013CC000430831603135002003003194F02031824
:1013DC00F029F129A22A4F0883120313A6008316C1
:1013EC000313500883120313A700A801A9010030AE
:1013FC000A168A1144270A128A1583120313290824
:10140C00DD002808DC002708DB002608DA00443061
:10141C00D9007F30D800C030D7000030D6000A1277
:10142C008A158B230A128A15831203135908C300D9
:10143C005808C2005708C1005608C0000030F70019
:10144C003D30F6000930F5000030F400831603132C
:10145C005208D4005108D3000310D30DD40D03103F
:10146C00D30DD40D5308F0005408F100F201F30130
:10147C000A168A11A7260A128A15730883120313F7
:10148C00A9007208A8007108A7007008A600013016
:10149C000A168A1144270A128A1583120313290883
:1014AC00BF002808BE002708BD002608BC000A1291
:1014BC008A117B240A128A15831203133F088316A0
:1014CC000313C900831203133E0883160313C800C9
:1014DC00831203133D0883160313C70083120313EF
:1014EC003C0883160313C6000A168A11A9250A1292
:1014FC008A15831603134708D0004608CF008312C1
:10150C0003139712831603134F188D2A912A8312F3
:10151C0003131716942A831203131712831603133B
:10152C004F08D30002300310D30CFF3E031D992A41
:10153C005308831203139500080083120313AB00A6
:10154C002130A3002308A600742B25302C06031988
:10155C00B02AB12ABD2A2C08A3002B08840023082A
:10156C00831780000130A3002308AB07742BA7015D
:10157C000130A007FF30200784000A168A110A20C8
:10158C000A128A15AC00A300A4012408003A03191E
:10159C00D02A742B2308003A0319862B643A0319BA
:1015AC00DB2A0D3A0319DB2A742B260884008313DB
:1015BC000008A900840A0008AA000230A30023082E
:1015CC00A607AA1FEA2AEB2AF42A0330A300230851
:1015DC00A704A909AA09A90A0319AA0AAC01AC0A09
:1015EC002C08A3002307013E84000A168A110A2046
:1015FC000A128A15A4000A168A110A200A128A15E0
:10160C00A50025082A02031D0D2B24082902031806
:10161C00102B112B122B1C2B0130A3002308AC0711
:10162C0005302C06031D1B2B1C2BF62A270803390F
:10163C000319212B222B2D2B2D30A3002B088400DA
:10164C002308831780000130A3002308AB072C0864
:10165C00A3002308A8006B2B0A30F8000030F90017
:10166C002808A3002307013E84000A168A110A20C9
:10167C000A128A15F0000A168A110A200A128A1513
:10168C00F1002A08F3002908F2000A168A11A32493
:10169C000A128A157108FB007008FA000A128A11E6
:1016AC0006200A128A157808303E83120313A40010
:1016BC002408AC002C08A3002B08840023088317F3
:1016CC0080000130A3002308AB07FF30A3002308E0
:1016DC00A807280A031D732B742B322B0130A0078B
:1016EC00FF30200784000A168A110A200A128A1574
:1016FC00A3002308AC002C08031D852B862BAB2ADA
:10170C002B088400831780010800831203135D08E3
:10171C008039DE005E08E7005D08DE005E07DF0052
:10172C005F08EE00DC1F9B2B9C2B9D2B6E146E0810
:10173C000319A12BA22BB22B6E0A031DA62BA72BD0
:10174C00AF2B0030DD000030DC000030DB0000305F
:10175C00DA00DC17DD01BA2B0030DD000030DC00D4
:10176C000030DB000030DA0059088039DE005E08FA
:10177C00E7065908DE005E07DF005F08EF00D81FA0
:10178C00C82BC92BCA2B6F146F080319CE2BCF2B68
:10179C00DF2B6F0A031DD32BD42BDC2B0030D9008D
:1017AC000030D8000030D7000030D600D817D9014F
:1017BC00E72B0030D9000030D8000030D7000030C3
:1017CC00D6005908580457045604031DEE2BEF2B72
:1017DC00082C0030DD000030DC000030DB00003075
:1017EC00DA008030DC047F30DD046708DE005E0840
:1017FC00DD045D08D9005C08D8005B08D7005A08E6
:10180C00D600672D6E08031D0C2C0D2C162C0030E9
:10181C00D9000030D8000030D7000030D600672D3A
:10182C006E08DE00DF015F08E1006F085E02E00079
:10183C00031CE10360087F3EE80061080318013EC9
:10184C00003EE9005D08E6005C08E5005B08E4008A
:10185C005A08E3000030DD000030DC000030DB0013
:10186C000030DA000030ED000030EC000030EB000E
:10187C000030EA00EF018C2C6F080319462C472C22
:10188C00672C0130DE000310E30DE40DE50DE60DD1
:10189C00DE0B492C0130DE000310DA0DDB0DDC0D04
:1018AC00DD0DDE0B522CED1F5C2C5D2C5E2C5A14C6
:1018BC000130DE000310EA0DEB0DEC0DED0DDE0B2F
:1018CC00602C59086602031D752C58086502031D0F
:1018DC00752C57086402031D752C56086302031CF3
:1018EC00782C792C882C6D175608E3025708031CAA
:1018FC00570FE4025808031C580FE5025908031C43
:10190C00590FE6020130DE005E08EF071A306F0255
:10191C00031C912C922C422C66086504640463040D
:10192C000319992C9A2CB92C6A14B92C0130DE00AD
:10193C000310DA0DDB0DDC0DDD0DDE0B9E2CED1F27
:10194C00A82CA92CAA2C5A140130DE000310EA0D85
:10195C00EB0DEC0DED0DDE0BAC2CFF30E807031896
:10196C00E90AFF30E907DC1FBC2CBD2C9C2CEF01D5
:10197C00ED1FC12CC22CDE2CFF306A05DE00FF30BF
:10198C006B05DF00FF306C05E0007F306D05E1007A
:10199C00610860045F045E040319D52CD62CD92C85
:1019AC00EF01EF0ADE2C5A1CDC2CDD2CDE2CD62CA5
:1019BC006F080319E22CE32C142D0130DA070030E8
:1019CC0003180130DB07003003180130DC0700304E
:1019DC0003180130DD075D1CF42CF52C142D5A086E
:1019EC00DE005B08DF005C08E0005D08E100013010
:1019FC00E200610DE10CE00CDF0CDE0CE20BFF2CC5
:101A0C006108DD006008DC005F08DB005E08DA00BE
:101A1C000130E8070318E90A0030E9076908803A41
:101A2C00FF0080307F02031D1D2DFF306802031C58
:101A3C00202D212D2F2DFF3083120313E8000030B1
:101A4C00E9000030DD000030DC000030DB0000304D
:101A5C00DA00831203136908803AFF0080307F029A
:101A6C00031D3A2D0130680203183D2D3E2D4B2DE0
:101A7C0083120313E801E9010030DD000030DC00C3
:101A8C000030DB000030DA00E70183120313680832
:101A9C00DE005E08EE006E1C542D552D572DDC1704
:101AAC005B2D7F30DE005E08DC056E08DE00031067
:101ABC005E0CDF005F08DD006708DE005E08DD04F9
:101ACC00FF2B08007308803983120313A000200831
:101ADC00F8007308A0002007A1002108FA00F21FEB
:101AEC00782D792D7A2D7A147A0803197E2D7F2D75
:101AFC008F2D7A0A031D832D842D8C2D0030F3003D
:101B0C000030F2000030F1000030F000F217F30169
:101B1C00972D0030F3000030F2000030F10000305F
:101B2C00F00077088039A0002008F90079087806C1
:101B3C000319A12DA22DA32D78177708A00020073B
:101B4C00A1002108F900F61FAC2DAD2DAE2D791496
:101B5C0079080319B22DB32DC32D790A031DB72DA6
:101B6C00B82DC02D0030F7000030F6000030F50025
:101B7C000030F400F617F701CB2D0030F7000030E1
:101B8C00F6000030F5000030F4007A0879020318F2
:101B9C00D02DD12D152E781FD42DD52DD92D8030AB
:101BAC00A0002008F8067A08A0002008FB0079089D
:101BBC00A0002008FA007B08A0002008F90070089B
:101BCC00A0002008FB007408A0002008F0007B088F
:101BDC00A0002008F4007108A0002008FB00750884
:101BEC00A0002008F1007B08A0002008F500720876
:101BFC00A0002008FB007608A0002008F2007B085B
:101C0C00A0002008F6007308A0002008FB0077084D
:101C1C00A0002008F3007B08A0002008F700FB01BF
:101C2C007908A000A1012108A3007A082002A200D3
:101C3C00031CA3032308803AFF0080307F02031D9E
:101C4C00292E1A302202031C2C2E2D2E6E2E7308D8
:101C5C00720471047004031D342E362E0130372E9D
:101C6C00003083120313A0002008FB000030F300A7
:101C7C000030F2000030F1000030F0007908A000D4
:101C8C002008FA00742E7B1C4C2E4D2E582E7B08EF
:101C9C0083120313A0000310200C0138A1002108AB
:101CAC00FB005A2E0310FB0C701C5D2E5E2E5F2E5B
:101CBC00FB17013083120313A000730DF30CF20C0D
:101CCC00F10CF00CA00B632E0130A0002008FA07D9
:101CDC0079087A02031C732E742E492E781B772EEA
:101CEC00782EC72E7A08031D7C2E7D2E862E003072
:101CFC00F3000030F2000030F1000030F000FF2F54
:101D0C007408F007750803110318013E03198F2E90
:101D1C00F107760803110318013E0319962EF207FA
:101D2C00770803110318013E03199D2EF307731C4A
:101D3C00A02EA12E7F2F7B1CA42EA52EB02E7B08AF
:101D4C0083120313A0000310200C0138A1002108FA
:101D5C00FB00B22E0310FB0C701CB52EB62EB72E4A
:101D6C00FB17013083120313A000730DF30CF20C5C
:101D7C00F10CF00CA00BBB2E0130A0002008FA07D0
:101D8C007F2F7308803AFF007708803A7F02031D8B
:101D9C00D92E76087202031DD92E75087102031D07
:101DAC00D92E740870020318DC2EDD2E372FFF306D
:101DBC0083120313A000FF30A100FF30A200FF30FC
:101DCC00A3007408A4007508A5007608A60077087F
:101DDC00A7007008A4027108031C710FF62EF72ED1
:101DEC00A5027208031C720FFC2EFD2EA6027308AE
:101DFC00031C730F022F032FA7022408A00725082A
:101E0C000318250F0A2F0B2FA10726080318260FDE
:101E1C00102F112FA20727080318270AA30723083E
:101E2C00F3002208F2002108F1002008F0008030B5
:101E3C00A0002008F806FB09FB0A7B08031D272FCE
:101E4C00282F452F0130F007003003180130F1071F
:101E5C00003003180130F207003003180130F3078B
:101E6C00452F7408F0027508031C750FF1027608F3
:101E7C00031C760FF2027708031C770FF30273082A
:101E8C00720471047004031D4C2F4D2F7B2F7B08A3
:101E9C00031D512F522F7B2F0030F3000030F20026
:101EAC000030F1000030F000FF2F013083120313DB
:101EBC00A0000310F00DF10DF20DF30DA00B5F2F30
:101ECC00FB1F692F6A2F6B2F70147B1C6E2F6F2FCB
:101EDC00722F0314FB0D742F0310FB0D7A080319DA
:101EEC00782F792F7B2F0130FA02F21F7E2F7F2F54
:101EFC005B2FF901FB1F832F842F922F7B087F39D7
:101F0C000319892F8A2F8D2FF901F90A922F701C32
:101F1C00902F912F922F8A2F79080319962F972F94
:101F2C00CD2F0130F007003003180130F1070030DD
:101F3C0003180130F207003003180130F307731C4B
:101F4C00A82FA92FCD2F700883120313A00071089E
:101F5C00A1007208A2007308A3000130A400230D95
:101F6C00A30CA20CA10CA00CA40BB52F2308F300FE
:101F7C002208F2002108F1002008F0007A0A031967
:101F8C00C82FC92FCD2F0130A0002008FA077A0ADC
:101F9C000319D12FD22FD72F7A08031DD62FD72F65
:101FAC00E52F0030F3000030F2000030F10000307B
:101FBC00F0007A08031DE32FE42FE52FF8017A1CBB
:101FCC00E82FE92FEB2FF217F12F7F308312031339
:101FDC00A0002008F2057A0883120313A000031056
:101FEC00200CA1002108F300F81FFD2FFE2FFF2F5E
:101FFC00F3170800FF1B0A2883137F1883170008A8
:10200C00840A0319FF0A080010308A000408840AA5
:10201C0082070034013400340A3400346434003450
:10202C00E8340334103427344B3450343A342034ED
:10203C0020342034203420344B3444343A340034AB
:10204C00543450343A342034203443342034203443
:10205C004B3449343A340034203420342034203486
:10206C0020340034203420344334203420340034E1
:06207C0025346434003439
:1025F60064008001840A0406031900340406FC2AD8
:102606008030831603139F00C130831203139F008B
:102616000800831203139715171512158316031353
:102626000711080001340034013400340A34003440
:102636008834133401340034831203139D151D1599
:102646001214921012158316031387100800F10056
:1026560083120313891471080A128A1500200A16B8
:102666008A11831203130910891089140800F100D6
:1026760083120313891471080A128A1500200A1698
:102686008A118312031309148910891408007E081D
:102696008A007F0882000A168A114A230A168A11BE
:1026A6008000840A04087D0603190034FF0A031912
:1026B600FE0A4E2BF11F602B612B632BF001F101FB
:1026C6007108803AFF0084307F02031D6C2B0030B6
:1026D6007002031C6F2B702B742BFF30F00003303D
:1026E600F1000800803083120313B7063B08F3009D
:1026F6003A08F2003908F1003808F0003708F70008
:102706003608F6003508F5003408F4000A128A1572
:1027160068250A168A11730883120313B700720814
:10272600B6007108B5007008B4000800F901FA0196
:10273600751C9E2B9F2BA52B7708F9070318FA0A01
:102746007808FA0701300310F70DF80DFF3E031D58
:10275600A62B01300310F60CF50CFF3E031DAD2B26
:1027660075087604031DB82BB92B9B2B7A08F60047
:102776007908F5000800F800F401F5017008F20088
:10278600F3017208F6007308F700781CCB2BCC2BEC
:10279600D22B7608F4070318F50A7708F5070130F7
:1027A6000310F60DF70DFF3E031DD32B0310F80C97
:1027B6007808031DDF2BE02BC82B7508F100740881
:1027C600F000080001300A168A1139240A168A1107
:1027D600710883160313D6007008D5005608F10059
:1027E6005508F0000A168A115D230A168A11710827
:1027F60083160313D6007008D5005608D000550876
:10280600CF00A030D1000F30D2000A128A15032162
:102816000A168A110800F501252C7508720784002E
:1028260073080318730AFF000A168A1100200A1695
:102836008A110A168A113A230A168A110130F400FF
:102846007408F50775087207840073080318730A7D
:1028560083120313FF000A168A1100200A168A1132
:10286600003A031D372C382C102C0800F4000830D1
:102876007402031C3F2C402C432CF001F1016C2CFC
:10288600C530F2007208831203139F057408F20024
:1028960002300310F20DFF3E031D4C2C0310720D87
:1028A600F30073089F040330F3009730F200F20B35
:1028B6005A2CF30B5A2C5F2C831203131F151F1966
:1028C600652C662C622C1E08F100831603131E0865
:1028D600F000080083120313891009108914383098
:1028E6000A168A112A230A168A1138300A168A11FC
:1028F6002A230A168A1138300A168A112A230A163A
:102906008A1108300A168A112A230A168A110F30EC
:102916000A168A112A230A168A1101300A168A1102
:102926002A230A168A1138300A168A112A230A1609
:102936008A1180300A168A112A230A168A1108007B
:10294600F501F601700871040319AA2CAB2CE22CD0
:10295600F701F70AB92C01300310F00DF10DFF3E17
:10296600031DAF2C0130F4007408F707F11FBC2CCF
:10297600BD2CAE2C01300310F50DF60DFF3E031DE8
:10298600BE2C71087302031DCA2C70087202031C48
:10299600CD2CCE2CD52C7008F2027108031CF30343
:1029A600F302751401300310F10CF00CFF3E031D09
:1029B600D62C0130F702031DE12CE22CBD2C760843
:1029C600F1007508F0000800F601F31FEB2CEC2C63
:1029D600F32CF209F309F20A0319F30AF601F60ACF
:1029E600F11FF62CF72CFC2CF009F109F00A03195B
:1029F600F10A700871040319012D022D312DF5011C
:102A0600F50A102D01300310F00DF10DFF3E031DE8
:102A1600062D0130F4007408F507F11F132D142D4F
:102A2600052D71087302031D1A2D70087202031C0E
:102A36001D2D1E2D242D7008F2027108031CF303B0
:102A4600F30201300310F10CF00CFF3E031D252D9F
:102A56000130F502031D302D312D142D7608031992
:102A6600352D362D3B2DF209F309F20A0319F30A27
:102A76007308F1007208F000080083120313A10125
:102A8600F81F462D472D4E2DF709F809F70A0319A9
:102A9600F80AA101A10AFA1F512D522D5B2DF90941
:102AA600FA09F90A0319FA0A0130FB007B08A106A4
:102AB600A201A301770878040319622D632D9A2DCC
:102AC600A001A00A712D01300310F70DF80DFF3E8D
:102AD600031D672D0130FB007B08A007F81F742D2E
:102AE600752D662D01300310A20DA30DFF3E031DAB
:102AF600762D78087A02031D822D77087902031C49
:102B0600852D862D8D2D7708F9027808031CFA038A
:102B1600FA02221401300310F80CF70CFF3E031DD5
:102B26008E2D0130A002031D992D9A2D752D210899
:102B360003199E2D9F2DA42DA209A309A20A0319EC
:102B4600A30A2308F8002208F700080003108316DA
:102B56000313480D490DCA004A08FD007D08031DF0
:102B6600B52DB62DBF2D0030C9000030C80000308D
:102B7600C7000030C600242E4608CA004708CB000E
:102B86004808CC004908CD001F300310CD0CCC0CF2
:102B9600CB0CCA0CFF3E031DC82D4A08CE004E08BA
:102BA600FC00C817FF30C605FF30C705FF30C80553
:102BB6000030C9059630FD02FD1FE22DE32DFD2DE7
:102BC6007D08803A973E0318E92DEA2DEB2DB62DA8
:102BD60001300310C90CC80CC70CC60CFF3E031D00
:102BE600EC2D0130CA004A08FD07031DFB2DFC2D04
:102BF600EB2D142E20307D02031C022E032E0F2EE9
:102C0600B62D0130CA000310C60DC70DC80DC90D7B
:102C1600CA0B062E0130FD027D08031D132E142E4D
:102C2600042E7C080319182E192E242EC609C7094E
:102C3600C809C909C60A0319C70A0319C80A031924
:102C4600C90A0800FF308316031385000F3086007B
:102C56008701880189010A168A1103230A168A1137
:102C66000A168A110C230A168A110A168A111F23BC
:102C76000A168A110A168A116D240A168A118030DC
:102C86000A168A112A230A168A111730F200803092
:102C9600F3000A168A110E240A168A11C0300A1683
:102CA6008A112A230A168A110B30F2008030F300AB
:102CB6000A168A110E240A168A110A128A153D204E
:102CC6000A168A11831603136608F1006508F000D8
:102CD6000A168A115D230A168A11710883160313D0
:102CE600E6007008E5006408F1006308F0000A16C3
:102CF6008A115D230A168A11710883160313E400EC
:102D06007008E3006208F1006108F0000A168A11F3
:102D16005D230A168A11710883160313E2007008F0
:102D2600E1000A128A11DC210A168A110A168A1192
:102D3600E5230A168A110A128A1140200A168A11F8
:102D4600602E0A128A11002883120313A101F31FB1
:102D5600AD2EAE2EBB2EF009F109F209F309F00AE9
:102D66000319F10A0319F20A0319F30AA101A10AC8
:102D7600F71FBE2EBF2ECE2EF409F509F609F70968
:102D8600F40A0319F50A0319F60A0319F70A0130BA
:102D9600F8007808A1060030A5000030A400003035
:102DA600A3000030A20073087204710470040319B2
:102DB600DD2EDE2E2B2FA001A00AEE2E0130F8000C
:102DC6000310F00DF10DF20DF30DF80BE32E0130AB
:102DD600F8007808A007F31FF12EF22EE12E01303D
:102DE600F8000310A20DA30DA40DA50DF80BF42EEB
:102DF60073087702031D092F72087602031D092F37
:102E060071087502031D092F70087402031C0C2F2C
:102E16000D2F1C2F7008F4027108031C710FF502A8
:102E26007208031C720FF6027308031C730FF70275
:102E3600221401300310F30CF20CF10CF00CFF3EDF
:102E4600031D1D2F0130A002031D2A2F2B2FF22E4A
:102E5600210803192F2F302F3B2FA209A309A409FC
:102E6600A509A20A0319A30A0319A40A0319A50AA4
:102E76002508F3002408F2002308F1002208F000D8
:102E8600080083120313AE002E0803194B2F4C2F94
:102E9600602FA91F4F2F502F602F2609B00027093A
:102EA600B1002809B2002909B300B00A0319B10A12
:102EB6000319B20A0319B30A682F2908B3002808B0
:102EC600B2002708B1002608B00029082804270404
:102ED6002604031D6F2F702F792F0030A9000030B4
:102EE600A8000030A7000030A600FF2F9630AA00E9
:102EF6002A08AF008B2F0130AA002A08AF0701303D
:102F06000310B30CB20CB10CB00CFF3E031D832FA3
:102F1600FE303305031D902F912F7E2FAD2F0130EC
:102F2600AA002A08AF070130B007003003180130A5
:102F3600B107003003180130B20700300318013022
:102F4600B30701300310B30CB20CB10CB00CFF3E4A
:102F5600031DA52FFF303305031DB22FB32F922F6C
:102F6600BF2F0130AF020130AA000310B00DB10D22
:102F7600B20DB30DAA0BB82FB21BC22FC32FC92F88
:102F860002302F020318C82FC92FB42F2F18CC2FA9
:102F9600CD2FD52FFF30B005FF30B1057F30B205FC
:102FA600FF30B3050310AF0C2F08AA00AB01AC012C
:102FB600AD0118300310AA0DAB0DAC0DAD0DFF3EE3
:102FC600031DDD2F2A08B0042B08B1042C08B20417
:102FD6002D08B3042E080319F12FF22FF72FA91F7E
:102FE600F52FF62FF72FB3173308A9003208A800DC
:0A2FF6003108A7003008A60008000B
:02400E003A3F37
:00000001FF
